{
	"contracts/clicker.sol": {
		"ClickerGameWithRewards": {
			"abi": [
				{
					"anonymous": false,
					"inputs": [
						{
							"indexed": true,
							"internalType": "address",
							"name": "owner",
							"type": "address"
						},
						{
							"indexed": true,
							"internalType": "address",
							"name": "spender",
							"type": "address"
						},
						{
							"indexed": false,
							"internalType": "uint256",
							"name": "value",
							"type": "uint256"
						}
					],
					"name": "Approval",
					"type": "event"
				},
				{
					"anonymous": false,
					"inputs": [
						{
							"indexed": true,
							"internalType": "address",
							"name": "user",
							"type": "address"
						},
						{
							"indexed": false,
							"internalType": "uint256",
							"name": "totalClicks",
							"type": "uint256"
						},
						{
							"indexed": false,
							"internalType": "uint256",
							"name": "addedClicks",
							"type": "uint256"
						}
					],
					"name": "ClicksRecorded",
					"type": "event"
				},
				{
					"anonymous": false,
					"inputs": [
						{
							"indexed": true,
							"internalType": "address",
							"name": "from",
							"type": "address"
						},
						{
							"indexed": true,
							"internalType": "address",
							"name": "to",
							"type": "address"
						},
						{
							"indexed": false,
							"internalType": "uint256",
							"name": "value",
							"type": "uint256"
						}
					],
					"name": "Transfer",
					"type": "event"
				},
				{
					"inputs": [],
					"name": "TOKENS_PER_CLICK",
					"outputs": [
						{
							"internalType": "uint256",
							"name": "",
							"type": "uint256"
						}
					],
					"stateMutability": "view",
					"type": "function"
				},
				{
					"inputs": [
						{
							"internalType": "address",
							"name": "owner",
							"type": "address"
						},
						{
							"internalType": "address",
							"name": "spender",
							"type": "address"
						}
					],
					"name": "allowance",
					"outputs": [
						{
							"internalType": "uint256",
							"name": "",
							"type": "uint256"
						}
					],
					"stateMutability": "view",
					"type": "function"
				},
				{
					"inputs": [
						{
							"internalType": "address",
							"name": "spender",
							"type": "address"
						},
						{
							"internalType": "uint256",
							"name": "amount",
							"type": "uint256"
						}
					],
					"name": "approve",
					"outputs": [
						{
							"internalType": "bool",
							"name": "",
							"type": "bool"
						}
					],
					"stateMutability": "nonpayable",
					"type": "function"
				},
				{
					"inputs": [
						{
							"internalType": "address",
							"name": "account",
							"type": "address"
						}
					],
					"name": "balanceOf",
					"outputs": [
						{
							"internalType": "uint256",
							"name": "",
							"type": "uint256"
						}
					],
					"stateMutability": "view",
					"type": "function"
				},
				{
					"inputs": [],
					"name": "decimals",
					"outputs": [
						{
							"internalType": "uint8",
							"name": "",
							"type": "uint8"
						}
					],
					"stateMutability": "view",
					"type": "function"
				},
				{
					"inputs": [
						{
							"internalType": "address",
							"name": "user",
							"type": "address"
						}
					],
					"name": "getClicks",
					"outputs": [
						{
							"internalType": "uint256",
							"name": "",
							"type": "uint256"
						}
					],
					"stateMutability": "view",
					"type": "function"
				},
				{
					"inputs": [],
					"name": "getLeaderboard",
					"outputs": [
						{
							"internalType": "address[]",
							"name": "",
							"type": "address[]"
						},
						{
							"internalType": "uint256[]",
							"name": "",
							"type": "uint256[]"
						}
					],
					"stateMutability": "view",
					"type": "function"
				},
				{
					"inputs": [
						{
							"internalType": "address",
							"name": "",
							"type": "address"
						}
					],
					"name": "hasPlayed",
					"outputs": [
						{
							"internalType": "bool",
							"name": "",
							"type": "bool"
						}
					],
					"stateMutability": "view",
					"type": "function"
				},
				{
					"inputs": [],
					"name": "name",
					"outputs": [
						{
							"internalType": "string",
							"name": "",
							"type": "string"
						}
					],
					"stateMutability": "view",
					"type": "function"
				},
				{
					"inputs": [
						{
							"internalType": "uint256",
							"name": "",
							"type": "uint256"
						}
					],
					"name": "players",
					"outputs": [
						{
							"internalType": "address",
							"name": "",
							"type": "address"
						}
					],
					"stateMutability": "view",
					"type": "function"
				},
				{
					"inputs": [
						{
							"internalType": "uint256",
							"name": "count",
							"type": "uint256"
						}
					],
					"name": "recordClicks",
					"outputs": [],
					"stateMutability": "nonpayable",
					"type": "function"
				},
				{
					"inputs": [],
					"name": "symbol",
					"outputs": [
						{
							"internalType": "string",
							"name": "",
							"type": "string"
						}
					],
					"stateMutability": "view",
					"type": "function"
				},
				{
					"inputs": [],
					"name": "totalSupply",
					"outputs": [
						{
							"internalType": "uint256",
							"name": "",
							"type": "uint256"
						}
					],
					"stateMutability": "view",
					"type": "function"
				},
				{
					"inputs": [
						{
							"internalType": "address",
							"name": "to",
							"type": "address"
						},
						{
							"internalType": "uint256",
							"name": "amount",
							"type": "uint256"
						}
					],
					"name": "transfer",
					"outputs": [
						{
							"internalType": "bool",
							"name": "",
							"type": "bool"
						}
					],
					"stateMutability": "nonpayable",
					"type": "function"
				},
				{
					"inputs": [
						{
							"internalType": "address",
							"name": "from",
							"type": "address"
						},
						{
							"internalType": "address",
							"name": "to",
							"type": "address"
						},
						{
							"internalType": "uint256",
							"name": "amount",
							"type": "uint256"
						}
					],
					"name": "transferFrom",
					"outputs": [
						{
							"internalType": "bool",
							"name": "",
							"type": "bool"
						}
					],
					"stateMutability": "nonpayable",
					"type": "function"
				},
				{
					"inputs": [
						{
							"internalType": "address",
							"name": "",
							"type": "address"
						}
					],
					"name": "userClicks",
					"outputs": [
						{
							"internalType": "uint256",
							"name": "",
							"type": "uint256"
						}
					],
					"stateMutability": "view",
					"type": "function"
				}
			],
			"devdoc": {
				"details": "Optimized clicker game: 1 click = 10 Tokens (Instant Mint) No separate claim step. Cheaper gas. Better UX.",
				"kind": "dev",
				"methods": {
					"getClicks(address)": {
						"details": "Get total clicks for a user"
					},
					"getLeaderboard()": {
						"details": "Get full leaderboard data WARNING: This function returns arrays of all players.  It is suitable for a demo/small scale, but not production with thousands of users due to gas limits."
					},
					"recordClicks(uint256)": {
						"details": "Record clicks and MINT tokens immediately in one transaction",
						"params": {
							"count": "Number of clicks to record (must be > 0)"
						}
					}
				},
				"title": "ClickerGameWithRewards",
				"version": 1
			},
			"evm": {
				"assembly": "    /* \"contracts/clicker.sol\":217:5017  contract ClickerGameWithRewards {... */\n  mstore(0x40, 0x80)\n  callvalue\n  dup1\n  iszero\n  tag_1\n  jumpi\n  revert(0x00, 0x00)\ntag_1:\n  pop\n  dataSize(sub_0)\n  dup1\n  dataOffset(sub_0)\n  0x00\n  codecopy\n  0x00\n  return\nstop\n\nsub_0: assembly {\n        /* \"contracts/clicker.sol\":217:5017  contract ClickerGameWithRewards {... */\n      mstore(0x40, 0x80)\n      callvalue\n      dup1\n      iszero\n      tag_1\n      jumpi\n      revert(0x00, 0x00)\n    tag_1:\n      pop\n      jumpi(tag_2, lt(calldatasize, 0x04))\n      shr(0xe0, calldataload(0x00))\n      dup1\n      0x6d763a6e\n      gt\n      tag_19\n      jumpi\n      dup1\n      0x95d89b41\n      gt\n      tag_20\n      jumpi\n      dup1\n      0x95d89b41\n      eq\n      tag_15\n      jumpi\n      dup1\n      0xa9059cbb\n      eq\n      tag_16\n      jumpi\n      dup1\n      0xdd62ed3e\n      eq\n      tag_17\n      jumpi\n      dup1\n      0xf71d96cb\n      eq\n      tag_18\n      jumpi\n      jump(tag_2)\n    tag_20:\n      dup1\n      0x6d763a6e\n      eq\n      tag_11\n      jumpi\n      dup1\n      0x70a08231\n      eq\n      tag_12\n      jumpi\n      dup1\n      0x786c2e68\n      eq\n      tag_13\n      jumpi\n      dup1\n      0x7c2bb719\n      eq\n      tag_14\n      jumpi\n      jump(tag_2)\n    tag_19:\n      dup1\n      0x2373580e\n      gt\n      tag_21\n      jumpi\n      dup1\n      0x2373580e\n      eq\n      tag_7\n      jumpi\n      dup1\n      0x23b872dd\n      eq\n      tag_8\n      jumpi\n      dup1\n      0x313ce567\n      eq\n      tag_9\n      jumpi\n      dup1\n      0x32d0bbe3\n      eq\n      tag_10\n      jumpi\n      jump(tag_2)\n    tag_21:\n      dup1\n      0x06fdde03\n      eq\n      tag_3\n      jumpi\n      dup1\n      0x095ea7b3\n      eq\n      tag_4\n      jumpi\n      dup1\n      0x1101dc3d\n      eq\n      tag_5\n      jumpi\n      dup1\n      0x18160ddd\n      eq\n      tag_6\n      jumpi\n    tag_2:\n      revert(0x00, 0x00)\n        /* \"contracts/clicker.sol\":279:321  string public constant name = \"ClickToken\" */\n    tag_3:\n      tag_22\n      tag_23\n      jump\t// in\n    tag_22:\n      mload(0x40)\n      tag_24\n      swap2\n      swap1\n      tag_25\n      jump\t// in\n    tag_24:\n      mload(0x40)\n      dup1\n      swap2\n      sub\n      swap1\n      return\n        /* \"contracts/clicker.sol\":3222:3369  function approve(address spender, uint256 amount) public returns (bool) {... */\n    tag_4:\n      tag_26\n      0x04\n      dup1\n      calldatasize\n      sub\n      dup2\n      add\n      swap1\n      tag_27\n      swap2\n      swap1\n      tag_28\n      jump\t// in\n    tag_27:\n      tag_29\n      jump\t// in\n    tag_26:\n      mload(0x40)\n      tag_30\n      swap2\n      swap1\n      tag_31\n      jump\t// in\n    tag_30:\n      mload(0x40)\n      dup1\n      swap2\n      sub\n      swap1\n      return\n        /* \"contracts/clicker.sol\":496:549  uint256 public constant TOKENS_PER_CLICK = 1 * 10**18 */\n    tag_5:\n      tag_32\n      tag_33\n      jump\t// in\n    tag_32:\n      mload(0x40)\n      tag_34\n      swap2\n      swap1\n      tag_35\n      jump\t// in\n    tag_34:\n      mload(0x40)\n      dup1\n      swap2\n      sub\n      swap1\n      return\n        /* \"contracts/clicker.sol\":411:437  uint256 public totalSupply */\n    tag_6:\n      tag_36\n      tag_37\n      jump\t// in\n    tag_36:\n      mload(0x40)\n      tag_38\n      swap2\n      swap1\n      tag_35\n      jump\t// in\n    tag_38:\n      mload(0x40)\n      dup1\n      swap2\n      sub\n      swap1\n      return\n        /* \"contracts/clicker.sol\":1954:2059  function getClicks(address user) external view returns (uint256) {... */\n    tag_7:\n      tag_39\n      0x04\n      dup1\n      calldatasize\n      sub\n      dup2\n      add\n      swap1\n      tag_40\n      swap2\n      swap1\n      tag_41\n      jump\t// in\n    tag_40:\n      tag_42\n      jump\t// in\n    tag_39:\n      mload(0x40)\n      tag_43\n      swap2\n      swap1\n      tag_35\n      jump\t// in\n    tag_43:\n      mload(0x40)\n      dup1\n      swap2\n      sub\n      swap1\n      return\n        /* \"contracts/clicker.sol\":3379:3581  function transferFrom(address from, address to, uint256 amount) public returns (bool) {... */\n    tag_8:\n      tag_44\n      0x04\n      dup1\n      calldatasize\n      sub\n      dup2\n      add\n      swap1\n      tag_45\n      swap2\n      swap1\n      tag_46\n      jump\t// in\n    tag_45:\n      tag_47\n      jump\t// in\n    tag_44:\n      mload(0x40)\n      tag_48\n      swap2\n      swap1\n      tag_31\n      jump\t// in\n    tag_48:\n      mload(0x40)\n      dup1\n      swap2\n      sub\n      swap1\n      return\n        /* \"contracts/clicker.sol\":370:405  uint8 public constant decimals = 18 */\n    tag_9:\n      tag_49\n      tag_50\n      jump\t// in\n    tag_49:\n      mload(0x40)\n      tag_51\n      swap2\n      swap1\n      tag_52\n      jump\t// in\n    tag_51:\n      mload(0x40)\n      dup1\n      swap2\n      sub\n      swap1\n      return\n        /* \"contracts/clicker.sol\":663:704  mapping(address => bool) public hasPlayed */\n    tag_10:\n      tag_53\n      0x04\n      dup1\n      calldatasize\n      sub\n      dup2\n      add\n      swap1\n      tag_54\n      swap2\n      swap1\n      tag_41\n      jump\t// in\n    tag_54:\n      tag_55\n      jump\t// in\n    tag_53:\n      mload(0x40)\n      tag_56\n      swap2\n      swap1\n      tag_31\n      jump\t// in\n    tag_56:\n      mload(0x40)\n      dup1\n      swap2\n      sub\n      swap1\n      return\n        /* \"contracts/clicker.sol\":2293:2753  function getLeaderboard() external view returns (address[] memory, uint256[] memory) {... */\n    tag_11:\n      tag_57\n      tag_58\n      jump\t// in\n    tag_57:\n      mload(0x40)\n      tag_59\n      swap3\n      swap2\n      swap1\n      tag_60\n      jump\t// in\n    tag_59:\n      mload(0x40)\n      dup1\n      swap2\n      sub\n      swap1\n      return\n        /* \"contracts/clicker.sol\":2813:2921  function balanceOf(address account) public view returns (uint256) {... */\n    tag_12:\n      tag_61\n      0x04\n      dup1\n      calldatasize\n      sub\n      dup2\n      add\n      swap1\n      tag_62\n      swap2\n      swap1\n      tag_41\n      jump\t// in\n    tag_62:\n      tag_63\n      jump\t// in\n    tag_61:\n      mload(0x40)\n      tag_64\n      swap2\n      swap1\n      tag_35\n      jump\t// in\n    tag_64:\n      mload(0x40)\n      dup1\n      swap2\n      sub\n      swap1\n      return\n        /* \"contracts/clicker.sol\":1300:1888  function recordClicks(uint256 count) external {... */\n    tag_13:\n      tag_65\n      0x04\n      dup1\n      calldatasize\n      sub\n      dup2\n      add\n      swap1\n      tag_66\n      swap2\n      swap1\n      tag_67\n      jump\t// in\n    tag_66:\n      tag_68\n      jump\t// in\n    tag_65:\n      stop\n        /* \"contracts/clicker.sol\":582:627  mapping(address => uint256) public userClicks */\n    tag_14:\n      tag_69\n      0x04\n      dup1\n      calldatasize\n      sub\n      dup2\n      add\n      swap1\n      tag_70\n      swap2\n      swap1\n      tag_41\n      jump\t// in\n    tag_70:\n      tag_71\n      jump\t// in\n    tag_69:\n      mload(0x40)\n      tag_72\n      swap2\n      swap1\n      tag_35\n      jump\t// in\n    tag_72:\n      mload(0x40)\n      dup1\n      swap2\n      sub\n      swap1\n      return\n        /* \"contracts/clicker.sol\":327:364  string public constant symbol = \"CLK\" */\n    tag_15:\n      tag_73\n      tag_74\n      jump\t// in\n    tag_73:\n      mload(0x40)\n      tag_75\n      swap2\n      swap1\n      tag_25\n      jump\t// in\n    tag_75:\n      mload(0x40)\n      dup1\n      swap2\n      sub\n      swap1\n      return\n        /* \"contracts/clicker.sol\":2931:3070  function transfer(address to, uint256 amount) public returns (bool) {... */\n    tag_16:\n      tag_76\n      0x04\n      dup1\n      calldatasize\n      sub\n      dup2\n      add\n      swap1\n      tag_77\n      swap2\n      swap1\n      tag_28\n      jump\t// in\n    tag_77:\n      tag_78\n      jump\t// in\n    tag_76:\n      mload(0x40)\n      tag_79\n      swap2\n      swap1\n      tag_31\n      jump\t// in\n    tag_79:\n      mload(0x40)\n      dup1\n      swap2\n      sub\n      swap1\n      return\n        /* \"contracts/clicker.sol\":3080:3212  function allowance(address owner, address spender) public view returns (uint256) {... */\n    tag_17:\n      tag_80\n      0x04\n      dup1\n      calldatasize\n      sub\n      dup2\n      add\n      swap1\n      tag_81\n      swap2\n      swap1\n      tag_82\n      jump\t// in\n    tag_81:\n      tag_83\n      jump\t// in\n    tag_80:\n      mload(0x40)\n      tag_84\n      swap2\n      swap1\n      tag_35\n      jump\t// in\n    tag_84:\n      mload(0x40)\n      dup1\n      swap2\n      sub\n      swap1\n      return\n        /* \"contracts/clicker.sol\":633:657  address[] public players */\n    tag_18:\n      tag_85\n      0x04\n      dup1\n      calldatasize\n      sub\n      dup2\n      add\n      swap1\n      tag_86\n      swap2\n      swap1\n      tag_67\n      jump\t// in\n    tag_86:\n      tag_87\n      jump\t// in\n    tag_85:\n      mload(0x40)\n      tag_88\n      swap2\n      swap1\n      tag_89\n      jump\t// in\n    tag_88:\n      mload(0x40)\n      dup1\n      swap2\n      sub\n      swap1\n      return\n        /* \"contracts/clicker.sol\":279:321  string public constant name = \"ClickToken\" */\n    tag_23:\n      mload(0x40)\n      dup1\n      0x40\n      add\n      0x40\n      mstore\n      dup1\n      0x0a\n      dup2\n      mstore\n      0x20\n      add\n      0x436c69636b546f6b656e00000000000000000000000000000000000000000000\n      dup2\n      mstore\n      pop\n      dup2\n      jump\t// out\n        /* \"contracts/clicker.sol\":3222:3369  function approve(address spender, uint256 amount) public returns (bool) {... */\n    tag_29:\n        /* \"contracts/clicker.sol\":3288:3292  bool */\n      0x00\n        /* \"contracts/clicker.sol\":3304:3341  _approve(msg.sender, spender, amount) */\n      tag_91\n        /* \"contracts/clicker.sol\":3313:3323  msg.sender */\n      caller\n        /* \"contracts/clicker.sol\":3325:3332  spender */\n      dup5\n        /* \"contracts/clicker.sol\":3334:3340  amount */\n      dup5\n        /* \"contracts/clicker.sol\":3304:3312  _approve */\n      tag_92\n        /* \"contracts/clicker.sol\":3304:3341  _approve(msg.sender, spender, amount) */\n      jump\t// in\n    tag_91:\n        /* \"contracts/clicker.sol\":3358:3362  true */\n      0x01\n        /* \"contracts/clicker.sol\":3351:3362  return true */\n      swap1\n      pop\n        /* \"contracts/clicker.sol\":3222:3369  function approve(address spender, uint256 amount) public returns (bool) {... */\n      swap3\n      swap2\n      pop\n      pop\n      jump\t// out\n        /* \"contracts/clicker.sol\":496:549  uint256 public constant TOKENS_PER_CLICK = 1 * 10**18 */\n    tag_33:\n        /* \"contracts/clicker.sol\":539:549  1 * 10**18 */\n      0x0de0b6b3a7640000\n        /* \"contracts/clicker.sol\":496:549  uint256 public constant TOKENS_PER_CLICK = 1 * 10**18 */\n      dup2\n      jump\t// out\n        /* \"contracts/clicker.sol\":411:437  uint256 public totalSupply */\n    tag_37:\n      sload(0x00)\n      dup2\n      jump\t// out\n        /* \"contracts/clicker.sol\":1954:2059  function getClicks(address user) external view returns (uint256) {... */\n    tag_42:\n        /* \"contracts/clicker.sol\":2010:2017  uint256 */\n      0x00\n        /* \"contracts/clicker.sol\":2036:2046  userClicks */\n      0x01\n        /* \"contracts/clicker.sol\":2036:2052  userClicks[user] */\n      0x00\n        /* \"contracts/clicker.sol\":2047:2051  user */\n      dup4\n        /* \"contracts/clicker.sol\":2036:2052  userClicks[user] */\n      0xffffffffffffffffffffffffffffffffffffffff\n      and\n      0xffffffffffffffffffffffffffffffffffffffff\n      and\n      dup2\n      mstore\n      0x20\n      add\n      swap1\n      dup2\n      mstore\n      0x20\n      add\n      0x00\n      keccak256\n      sload\n        /* \"contracts/clicker.sol\":2029:2052  return userClicks[user] */\n      swap1\n      pop\n        /* \"contracts/clicker.sol\":1954:2059  function getClicks(address user) external view returns (uint256) {... */\n      swap2\n      swap1\n      pop\n      jump\t// out\n        /* \"contracts/clicker.sol\":3379:3581  function transferFrom(address from, address to, uint256 amount) public returns (bool) {... */\n    tag_47:\n        /* \"contracts/clicker.sol\":3459:3463  bool */\n      0x00\n        /* \"contracts/clicker.sol\":3475:3516  _spendAllowance(from, msg.sender, amount) */\n      tag_95\n        /* \"contracts/clicker.sol\":3491:3495  from */\n      dup5\n        /* \"contracts/clicker.sol\":3497:3507  msg.sender */\n      caller\n        /* \"contracts/clicker.sol\":3509:3515  amount */\n      dup5\n        /* \"contracts/clicker.sol\":3475:3490  _spendAllowance */\n      tag_96\n        /* \"contracts/clicker.sol\":3475:3516  _spendAllowance(from, msg.sender, amount) */\n      jump\t// in\n    tag_95:\n        /* \"contracts/clicker.sol\":3526:3553  _transfer(from, to, amount) */\n      tag_97\n        /* \"contracts/clicker.sol\":3536:3540  from */\n      dup5\n        /* \"contracts/clicker.sol\":3542:3544  to */\n      dup5\n        /* \"contracts/clicker.sol\":3546:3552  amount */\n      dup5\n        /* \"contracts/clicker.sol\":3526:3535  _transfer */\n      tag_98\n        /* \"contracts/clicker.sol\":3526:3553  _transfer(from, to, amount) */\n      jump\t// in\n    tag_97:\n        /* \"contracts/clicker.sol\":3570:3574  true */\n      0x01\n        /* \"contracts/clicker.sol\":3563:3574  return true */\n      swap1\n      pop\n        /* \"contracts/clicker.sol\":3379:3581  function transferFrom(address from, address to, uint256 amount) public returns (bool) {... */\n      swap4\n      swap3\n      pop\n      pop\n      pop\n      jump\t// out\n        /* \"contracts/clicker.sol\":370:405  uint8 public constant decimals = 18 */\n    tag_50:\n        /* \"contracts/clicker.sol\":403:405  18 */\n      0x12\n        /* \"contracts/clicker.sol\":370:405  uint8 public constant decimals = 18 */\n      dup2\n      jump\t// out\n        /* \"contracts/clicker.sol\":663:704  mapping(address => bool) public hasPlayed */\n    tag_55:\n      mstore(0x20, 0x03)\n      dup1\n      0x00\n      mstore\n      keccak256(0x00, 0x40)\n      0x00\n      swap2\n      pop\n      sload\n      swap1\n      0x0100\n      exp\n      swap1\n      div\n      0xff\n      and\n      dup2\n      jump\t// out\n        /* \"contracts/clicker.sol\":2293:2753  function getLeaderboard() external view returns (address[] memory, uint256[] memory) {... */\n    tag_58:\n        /* \"contracts/clicker.sol\":2342:2358  address[] memory */\n      0x60\n        /* \"contracts/clicker.sol\":2360:2376  uint256[] memory */\n      dup1\n        /* \"contracts/clicker.sol\":2388:2402  uint256 length */\n      0x00\n        /* \"contracts/clicker.sol\":2405:2412  players */\n      0x02\n        /* \"contracts/clicker.sol\":2405:2419  players.length */\n      dup1\n      sload\n      swap1\n      pop\n        /* \"contracts/clicker.sol\":2388:2419  uint256 length = players.length */\n      swap1\n      pop\n        /* \"contracts/clicker.sol\":2429:2456  address[] memory allPlayers */\n      0x00\n        /* \"contracts/clicker.sol\":2473:2479  length */\n      dup2\n        /* \"contracts/clicker.sol\":2459:2480  new address[](length) */\n      0xffffffffffffffff\n      dup2\n      gt\n      iszero\n      tag_100\n      jumpi\n      tag_101\n      tag_102\n      jump\t// in\n    tag_101:\n    tag_100:\n      mload(0x40)\n      swap1\n      dup1\n      dup3\n      mstore\n      dup1\n      0x20\n      mul\n      0x20\n      add\n      dup3\n      add\n      0x40\n      mstore\n      dup1\n      iszero\n      tag_103\n      jumpi\n      dup2\n      0x20\n      add\n      0x20\n      dup3\n      mul\n      dup1\n      calldatasize\n      dup4\n      calldatacopy\n      dup1\n      dup3\n      add\n      swap2\n      pop\n      pop\n      swap1\n      pop\n    tag_103:\n      pop\n        /* \"contracts/clicker.sol\":2429:2480  address[] memory allPlayers = new address[](length) */\n      swap1\n      pop\n        /* \"contracts/clicker.sol\":2490:2516  uint256[] memory allScores */\n      0x00\n        /* \"contracts/clicker.sol\":2533:2539  length */\n      dup3\n        /* \"contracts/clicker.sol\":2519:2540  new uint256[](length) */\n      0xffffffffffffffff\n      dup2\n      gt\n      iszero\n      tag_104\n      jumpi\n      tag_105\n      tag_102\n      jump\t// in\n    tag_105:\n    tag_104:\n      mload(0x40)\n      swap1\n      dup1\n      dup3\n      mstore\n      dup1\n      0x20\n      mul\n      0x20\n      add\n      dup3\n      add\n      0x40\n      mstore\n      dup1\n      iszero\n      tag_106\n      jumpi\n      dup2\n      0x20\n      add\n      0x20\n      dup3\n      mul\n      dup1\n      calldatasize\n      dup4\n      calldatacopy\n      dup1\n      dup3\n      add\n      swap2\n      pop\n      pop\n      swap1\n      pop\n    tag_106:\n      pop\n        /* \"contracts/clicker.sol\":2490:2540  uint256[] memory allScores = new uint256[](length) */\n      swap1\n      pop\n        /* \"contracts/clicker.sol\":2564:2573  uint256 i */\n      0x00\n        /* \"contracts/clicker.sol\":2576:2577  0 */\n      0x00\n        /* \"contracts/clicker.sol\":2564:2577  uint256 i = 0 */\n      swap1\n      pop\n        /* \"contracts/clicker.sol\":2559:2698  for (uint256 i = 0; i < length; i++) {... */\n    tag_107:\n        /* \"contracts/clicker.sol\":2583:2589  length */\n      dup4\n        /* \"contracts/clicker.sol\":2579:2580  i */\n      dup2\n        /* \"contracts/clicker.sol\":2579:2589  i < length */\n      lt\n        /* \"contracts/clicker.sol\":2559:2698  for (uint256 i = 0; i < length; i++) {... */\n      iszero\n      tag_108\n      jumpi\n        /* \"contracts/clicker.sol\":2626:2633  players */\n      0x02\n        /* \"contracts/clicker.sol\":2634:2635  i */\n      dup2\n        /* \"contracts/clicker.sol\":2626:2636  players[i] */\n      dup2\n      sload\n      dup2\n      lt\n      tag_110\n      jumpi\n      tag_111\n      tag_112\n      jump\t// in\n    tag_111:\n    tag_110:\n      swap1\n      0x00\n      mstore\n      keccak256(0x00, 0x20)\n      add\n      0x00\n      swap1\n      sload\n      swap1\n      0x0100\n      exp\n      swap1\n      div\n      0xffffffffffffffffffffffffffffffffffffffff\n      and\n        /* \"contracts/clicker.sol\":2610:2620  allPlayers */\n      dup4\n        /* \"contracts/clicker.sol\":2621:2622  i */\n      dup3\n        /* \"contracts/clicker.sol\":2610:2623  allPlayers[i] */\n      dup2\n      mload\n      dup2\n      lt\n      tag_114\n      jumpi\n      tag_115\n      tag_112\n      jump\t// in\n    tag_115:\n    tag_114:\n      0x20\n      mul\n      0x20\n      add\n      add\n        /* \"contracts/clicker.sol\":2610:2636  allPlayers[i] = players[i] */\n      swap1\n      0xffffffffffffffffffffffffffffffffffffffff\n      and\n      swap1\n      dup2\n      0xffffffffffffffffffffffffffffffffffffffff\n      and\n      dup2\n      mstore\n      pop\n      pop\n        /* \"contracts/clicker.sol\":2665:2675  userClicks */\n      0x01\n        /* \"contracts/clicker.sol\":2665:2687  userClicks[players[i]] */\n      0x00\n        /* \"contracts/clicker.sol\":2676:2683  players */\n      0x02\n        /* \"contracts/clicker.sol\":2684:2685  i */\n      dup4\n        /* \"contracts/clicker.sol\":2676:2686  players[i] */\n      dup2\n      sload\n      dup2\n      lt\n      tag_116\n      jumpi\n      tag_117\n      tag_112\n      jump\t// in\n    tag_117:\n    tag_116:\n      swap1\n      0x00\n      mstore\n      keccak256(0x00, 0x20)\n      add\n      0x00\n      swap1\n      sload\n      swap1\n      0x0100\n      exp\n      swap1\n      div\n      0xffffffffffffffffffffffffffffffffffffffff\n      and\n        /* \"contracts/clicker.sol\":2665:2687  userClicks[players[i]] */\n      0xffffffffffffffffffffffffffffffffffffffff\n      and\n      0xffffffffffffffffffffffffffffffffffffffff\n      and\n      dup2\n      mstore\n      0x20\n      add\n      swap1\n      dup2\n      mstore\n      0x20\n      add\n      0x00\n      keccak256\n      sload\n        /* \"contracts/clicker.sol\":2650:2659  allScores */\n      dup3\n        /* \"contracts/clicker.sol\":2660:2661  i */\n      dup3\n        /* \"contracts/clicker.sol\":2650:2662  allScores[i] */\n      dup2\n      mload\n      dup2\n      lt\n      tag_119\n      jumpi\n      tag_120\n      tag_112\n      jump\t// in\n    tag_120:\n    tag_119:\n      0x20\n      mul\n      0x20\n      add\n      add\n        /* \"contracts/clicker.sol\":2650:2687  allScores[i] = userClicks[players[i]] */\n      dup2\n      dup2\n      mstore\n      pop\n      pop\n        /* \"contracts/clicker.sol\":2591:2594  i++ */\n      dup1\n      dup1\n      0x01\n      add\n      swap2\n      pop\n      pop\n        /* \"contracts/clicker.sol\":2559:2698  for (uint256 i = 0; i < length; i++) {... */\n      jump(tag_107)\n    tag_108:\n      pop\n        /* \"contracts/clicker.sol\":2724:2734  allPlayers */\n      dup2\n        /* \"contracts/clicker.sol\":2736:2745  allScores */\n      dup2\n        /* \"contracts/clicker.sol\":2716:2746  return (allPlayers, allScores) */\n      swap5\n      pop\n      swap5\n      pop\n      pop\n      pop\n      pop\n        /* \"contracts/clicker.sol\":2293:2753  function getLeaderboard() external view returns (address[] memory, uint256[] memory) {... */\n      swap1\n      swap2\n      jump\t// out\n        /* \"contracts/clicker.sol\":2813:2921  function balanceOf(address account) public view returns (uint256) {... */\n    tag_63:\n        /* \"contracts/clicker.sol\":2870:2877  uint256 */\n      0x00\n        /* \"contracts/clicker.sol\":2896:2905  _balances */\n      0x04\n        /* \"contracts/clicker.sol\":2896:2914  _balances[account] */\n      0x00\n        /* \"contracts/clicker.sol\":2906:2913  account */\n      dup4\n        /* \"contracts/clicker.sol\":2896:2914  _balances[account] */\n      0xffffffffffffffffffffffffffffffffffffffff\n      and\n      0xffffffffffffffffffffffffffffffffffffffff\n      and\n      dup2\n      mstore\n      0x20\n      add\n      swap1\n      dup2\n      mstore\n      0x20\n      add\n      0x00\n      keccak256\n      sload\n        /* \"contracts/clicker.sol\":2889:2914  return _balances[account] */\n      swap1\n      pop\n        /* \"contracts/clicker.sol\":2813:2921  function balanceOf(address account) public view returns (uint256) {... */\n      swap2\n      swap1\n      pop\n      jump\t// out\n        /* \"contracts/clicker.sol\":1300:1888  function recordClicks(uint256 count) external {... */\n    tag_68:\n        /* \"contracts/clicker.sol\":1372:1373  0 */\n      0x00\n        /* \"contracts/clicker.sol\":1364:1369  count */\n      dup2\n        /* \"contracts/clicker.sol\":1364:1373  count > 0 */\n      gt\n        /* \"contracts/clicker.sol\":1356:1406  require(count > 0, \"Count must be greater than 0\") */\n      tag_123\n      jumpi\n      mload(0x40)\n      0x08c379a000000000000000000000000000000000000000000000000000000000\n      dup2\n      mstore\n      0x04\n      add\n      tag_124\n      swap1\n      tag_125\n      jump\t// in\n    tag_124:\n      mload(0x40)\n      dup1\n      swap2\n      sub\n      swap1\n      revert\n    tag_123:\n        /* \"contracts/clicker.sol\":1479:1484  count */\n      dup1\n        /* \"contracts/clicker.sol\":1453:1463  userClicks */\n      0x01\n        /* \"contracts/clicker.sol\":1453:1475  userClicks[msg.sender] */\n      0x00\n        /* \"contracts/clicker.sol\":1464:1474  msg.sender */\n      caller\n        /* \"contracts/clicker.sol\":1453:1475  userClicks[msg.sender] */\n      0xffffffffffffffffffffffffffffffffffffffff\n      and\n      0xffffffffffffffffffffffffffffffffffffffff\n      and\n      dup2\n      mstore\n      0x20\n      add\n      swap1\n      dup2\n      mstore\n      0x20\n      add\n      0x00\n      keccak256\n      0x00\n        /* \"contracts/clicker.sol\":1453:1484  userClicks[msg.sender] += count */\n      dup3\n      dup3\n      sload\n      tag_126\n      swap2\n      swap1\n      tag_127\n      jump\t// in\n    tag_126:\n      swap3\n      pop\n      pop\n      dup2\n      swap1\n      sstore\n      pop\n        /* \"contracts/clicker.sol\":1542:1551  hasPlayed */\n      0x03\n        /* \"contracts/clicker.sol\":1542:1563  hasPlayed[msg.sender] */\n      0x00\n        /* \"contracts/clicker.sol\":1552:1562  msg.sender */\n      caller\n        /* \"contracts/clicker.sol\":1542:1563  hasPlayed[msg.sender] */\n      0xffffffffffffffffffffffffffffffffffffffff\n      and\n      0xffffffffffffffffffffffffffffffffffffffff\n      and\n      dup2\n      mstore\n      0x20\n      add\n      swap1\n      dup2\n      mstore\n      0x20\n      add\n      0x00\n      keccak256\n      0x00\n      swap1\n      sload\n      swap1\n      0x0100\n      exp\n      swap1\n      div\n      0xff\n      and\n        /* \"contracts/clicker.sol\":1537:1656  if (!hasPlayed[msg.sender]) {... */\n      tag_128\n      jumpi\n        /* \"contracts/clicker.sol\":1603:1607  true */\n      0x01\n        /* \"contracts/clicker.sol\":1579:1588  hasPlayed */\n      0x03\n        /* \"contracts/clicker.sol\":1579:1600  hasPlayed[msg.sender] */\n      0x00\n        /* \"contracts/clicker.sol\":1589:1599  msg.sender */\n      caller\n        /* \"contracts/clicker.sol\":1579:1600  hasPlayed[msg.sender] */\n      0xffffffffffffffffffffffffffffffffffffffff\n      and\n      0xffffffffffffffffffffffffffffffffffffffff\n      and\n      dup2\n      mstore\n      0x20\n      add\n      swap1\n      dup2\n      mstore\n      0x20\n      add\n      0x00\n      keccak256\n      0x00\n        /* \"contracts/clicker.sol\":1579:1607  hasPlayed[msg.sender] = true */\n      0x0100\n      exp\n      dup2\n      sload\n      dup2\n      0xff\n      mul\n      not\n      and\n      swap1\n      dup4\n      iszero\n      iszero\n      mul\n      or\n      swap1\n      sstore\n      pop\n        /* \"contracts/clicker.sol\":1621:1628  players */\n      0x02\n        /* \"contracts/clicker.sol\":1634:1644  msg.sender */\n      caller\n        /* \"contracts/clicker.sol\":1621:1645  players.push(msg.sender) */\n      swap1\n      dup1\n      0x01\n      dup2\n      sload\n      add\n      dup1\n      dup3\n      sstore\n      dup1\n      swap2\n      pop\n      pop\n      0x01\n      swap1\n      sub\n      swap1\n      0x00\n      mstore\n      keccak256(0x00, 0x20)\n      add\n      0x00\n      swap1\n      swap2\n      swap1\n      swap2\n      swap1\n      swap2\n      0x0100\n      exp\n      dup2\n      sload\n      dup2\n      0xffffffffffffffffffffffffffffffffffffffff\n      mul\n      not\n      and\n      swap1\n      dup4\n      0xffffffffffffffffffffffffffffffffffffffff\n      and\n      mul\n      or\n      swap1\n      sstore\n      pop\n        /* \"contracts/clicker.sol\":1537:1656  if (!hasPlayed[msg.sender]) {... */\n    tag_128:\n        /* \"contracts/clicker.sol\":1694:1704  msg.sender */\n      caller\n        /* \"contracts/clicker.sol\":1679:1736  ClicksRecorded(msg.sender, userClicks[msg.sender], count) */\n      0xffffffffffffffffffffffffffffffffffffffff\n      and\n      0x98a3c470ec7dec38a342cc8c873d0594e0911eeea8004e2af3ef1d66f01fdaab\n        /* \"contracts/clicker.sol\":1706:1716  userClicks */\n      0x01\n        /* \"contracts/clicker.sol\":1706:1728  userClicks[msg.sender] */\n      0x00\n        /* \"contracts/clicker.sol\":1717:1727  msg.sender */\n      caller\n        /* \"contracts/clicker.sol\":1706:1728  userClicks[msg.sender] */\n      0xffffffffffffffffffffffffffffffffffffffff\n      and\n      0xffffffffffffffffffffffffffffffffffffffff\n      and\n      dup2\n      mstore\n      0x20\n      add\n      swap1\n      dup2\n      mstore\n      0x20\n      add\n      0x00\n      keccak256\n      sload\n        /* \"contracts/clicker.sol\":1730:1735  count */\n      dup4\n        /* \"contracts/clicker.sol\":1679:1736  ClicksRecorded(msg.sender, userClicks[msg.sender], count) */\n      mload(0x40)\n      tag_130\n      swap3\n      swap2\n      swap1\n      tag_131\n      jump\t// in\n    tag_130:\n      mload(0x40)\n      dup1\n      swap2\n      sub\n      swap1\n      log2\n        /* \"contracts/clicker.sol\":1793:1813  uint256 tokensToMint */\n      0x00\n        /* \"contracts/clicker.sol\":539:549  1 * 10**18 */\n      0x0de0b6b3a7640000\n        /* \"contracts/clicker.sol\":1816:1821  count */\n      dup3\n        /* \"contracts/clicker.sol\":1816:1840  count * TOKENS_PER_CLICK */\n      tag_132\n      swap2\n      swap1\n      tag_133\n      jump\t// in\n    tag_132:\n        /* \"contracts/clicker.sol\":1793:1840  uint256 tokensToMint = count * TOKENS_PER_CLICK */\n      swap1\n      pop\n        /* \"contracts/clicker.sol\":1850:1881  _mint(msg.sender, tokensToMint) */\n      tag_134\n        /* \"contracts/clicker.sol\":1856:1866  msg.sender */\n      caller\n        /* \"contracts/clicker.sol\":1868:1880  tokensToMint */\n      dup3\n        /* \"contracts/clicker.sol\":1850:1855  _mint */\n      tag_135\n        /* \"contracts/clicker.sol\":1850:1881  _mint(msg.sender, tokensToMint) */\n      jump\t// in\n    tag_134:\n        /* \"contracts/clicker.sol\":1346:1888  {... */\n      pop\n        /* \"contracts/clicker.sol\":1300:1888  function recordClicks(uint256 count) external {... */\n      pop\n      jump\t// out\n        /* \"contracts/clicker.sol\":582:627  mapping(address => uint256) public userClicks */\n    tag_71:\n      mstore(0x20, 0x01)\n      dup1\n      0x00\n      mstore\n      keccak256(0x00, 0x40)\n      0x00\n      swap2\n      pop\n      swap1\n      pop\n      sload\n      dup2\n      jump\t// out\n        /* \"contracts/clicker.sol\":327:364  string public constant symbol = \"CLK\" */\n    tag_74:\n      mload(0x40)\n      dup1\n      0x40\n      add\n      0x40\n      mstore\n      dup1\n      0x03\n      dup2\n      mstore\n      0x20\n      add\n      0x434c4b0000000000000000000000000000000000000000000000000000000000\n      dup2\n      mstore\n      pop\n      dup2\n      jump\t// out\n        /* \"contracts/clicker.sol\":2931:3070  function transfer(address to, uint256 amount) public returns (bool) {... */\n    tag_78:\n        /* \"contracts/clicker.sol\":2993:2997  bool */\n      0x00\n        /* \"contracts/clicker.sol\":3009:3042  _transfer(msg.sender, to, amount) */\n      tag_137\n        /* \"contracts/clicker.sol\":3019:3029  msg.sender */\n      caller\n        /* \"contracts/clicker.sol\":3031:3033  to */\n      dup5\n        /* \"contracts/clicker.sol\":3035:3041  amount */\n      dup5\n        /* \"contracts/clicker.sol\":3009:3018  _transfer */\n      tag_98\n        /* \"contracts/clicker.sol\":3009:3042  _transfer(msg.sender, to, amount) */\n      jump\t// in\n    tag_137:\n        /* \"contracts/clicker.sol\":3059:3063  true */\n      0x01\n        /* \"contracts/clicker.sol\":3052:3063  return true */\n      swap1\n      pop\n        /* \"contracts/clicker.sol\":2931:3070  function transfer(address to, uint256 amount) public returns (bool) {... */\n      swap3\n      swap2\n      pop\n      pop\n      jump\t// out\n        /* \"contracts/clicker.sol\":3080:3212  function allowance(address owner, address spender) public view returns (uint256) {... */\n    tag_83:\n        /* \"contracts/clicker.sol\":3152:3159  uint256 */\n      0x00\n        /* \"contracts/clicker.sol\":3178:3189  _allowances */\n      0x05\n        /* \"contracts/clicker.sol\":3178:3196  _allowances[owner] */\n      0x00\n        /* \"contracts/clicker.sol\":3190:3195  owner */\n      dup5\n        /* \"contracts/clicker.sol\":3178:3196  _allowances[owner] */\n      0xffffffffffffffffffffffffffffffffffffffff\n      and\n      0xffffffffffffffffffffffffffffffffffffffff\n      and\n      dup2\n      mstore\n      0x20\n      add\n      swap1\n      dup2\n      mstore\n      0x20\n      add\n      0x00\n      keccak256\n        /* \"contracts/clicker.sol\":3178:3205  _allowances[owner][spender] */\n      0x00\n        /* \"contracts/clicker.sol\":3197:3204  spender */\n      dup4\n        /* \"contracts/clicker.sol\":3178:3205  _allowances[owner][spender] */\n      0xffffffffffffffffffffffffffffffffffffffff\n      and\n      0xffffffffffffffffffffffffffffffffffffffff\n      and\n      dup2\n      mstore\n      0x20\n      add\n      swap1\n      dup2\n      mstore\n      0x20\n      add\n      0x00\n      keccak256\n      sload\n        /* \"contracts/clicker.sol\":3171:3205  return _allowances[owner][spender] */\n      swap1\n      pop\n        /* \"contracts/clicker.sol\":3080:3212  function allowance(address owner, address spender) public view returns (uint256) {... */\n      swap3\n      swap2\n      pop\n      pop\n      jump\t// out\n        /* \"contracts/clicker.sol\":633:657  address[] public players */\n    tag_87:\n      0x02\n      dup2\n      dup2\n      sload\n      dup2\n      lt\n      tag_139\n      jumpi\n      0x00\n      dup1\n      revert\n    tag_139:\n      swap1\n      0x00\n      mstore\n      keccak256(0x00, 0x20)\n      add\n      0x00\n      swap2\n      pop\n      sload\n      swap1\n      0x0100\n      exp\n      swap1\n      div\n      0xffffffffffffffffffffffffffffffffffffffff\n      and\n      dup2\n      jump\t// out\n        /* \"contracts/clicker.sol\":4333:4651  function _approve(address owner, address spender, uint256 amount) internal {... */\n    tag_92:\n        /* \"contracts/clicker.sol\":4443:4444  0 */\n      0x00\n        /* \"contracts/clicker.sol\":4426:4445  owner != address(0) */\n      0xffffffffffffffffffffffffffffffffffffffff\n      and\n        /* \"contracts/clicker.sol\":4426:4431  owner */\n      dup4\n        /* \"contracts/clicker.sol\":4426:4445  owner != address(0) */\n      0xffffffffffffffffffffffffffffffffffffffff\n      and\n      sub\n        /* \"contracts/clicker.sol\":4418:4475  require(owner != address(0), \"Approve from zero address\") */\n      tag_142\n      jumpi\n      mload(0x40)\n      0x08c379a000000000000000000000000000000000000000000000000000000000\n      dup2\n      mstore\n      0x04\n      add\n      tag_143\n      swap1\n      tag_144\n      jump\t// in\n    tag_143:\n      mload(0x40)\n      dup1\n      swap2\n      sub\n      swap1\n      revert\n    tag_142:\n        /* \"contracts/clicker.sol\":4512:4513  0 */\n      0x00\n        /* \"contracts/clicker.sol\":4493:4514  spender != address(0) */\n      0xffffffffffffffffffffffffffffffffffffffff\n      and\n        /* \"contracts/clicker.sol\":4493:4500  spender */\n      dup3\n        /* \"contracts/clicker.sol\":4493:4514  spender != address(0) */\n      0xffffffffffffffffffffffffffffffffffffffff\n      and\n      sub\n        /* \"contracts/clicker.sol\":4485:4542  require(spender != address(0), \"Approve to zero address\") */\n      tag_145\n      jumpi\n      mload(0x40)\n      0x08c379a000000000000000000000000000000000000000000000000000000000\n      dup2\n      mstore\n      0x04\n      add\n      tag_146\n      swap1\n      tag_147\n      jump\t// in\n    tag_146:\n      mload(0x40)\n      dup1\n      swap2\n      sub\n      swap1\n      revert\n    tag_145:\n        /* \"contracts/clicker.sol\":4591:4597  amount */\n      dup1\n        /* \"contracts/clicker.sol\":4561:4572  _allowances */\n      0x05\n        /* \"contracts/clicker.sol\":4561:4579  _allowances[owner] */\n      0x00\n        /* \"contracts/clicker.sol\":4573:4578  owner */\n      dup6\n        /* \"contracts/clicker.sol\":4561:4579  _allowances[owner] */\n      0xffffffffffffffffffffffffffffffffffffffff\n      and\n      0xffffffffffffffffffffffffffffffffffffffff\n      and\n      dup2\n      mstore\n      0x20\n      add\n      swap1\n      dup2\n      mstore\n      0x20\n      add\n      0x00\n      keccak256\n        /* \"contracts/clicker.sol\":4561:4588  _allowances[owner][spender] */\n      0x00\n        /* \"contracts/clicker.sol\":4580:4587  spender */\n      dup5\n        /* \"contracts/clicker.sol\":4561:4588  _allowances[owner][spender] */\n      0xffffffffffffffffffffffffffffffffffffffff\n      and\n      0xffffffffffffffffffffffffffffffffffffffff\n      and\n      dup2\n      mstore\n      0x20\n      add\n      swap1\n      dup2\n      mstore\n      0x20\n      add\n      0x00\n      keccak256\n        /* \"contracts/clicker.sol\":4561:4597  _allowances[owner][spender] = amount */\n      dup2\n      swap1\n      sstore\n      pop\n        /* \"contracts/clicker.sol\":4628:4635  spender */\n      dup2\n        /* \"contracts/clicker.sol\":4612:4644  Approval(owner, spender, amount) */\n      0xffffffffffffffffffffffffffffffffffffffff\n      and\n        /* \"contracts/clicker.sol\":4621:4626  owner */\n      dup4\n        /* \"contracts/clicker.sol\":4612:4644  Approval(owner, spender, amount) */\n      0xffffffffffffffffffffffffffffffffffffffff\n      and\n      0x8c5be1e5ebec7d5bd14f71427d1e84f3dd0314c0f7b2291e5b200ac8c7c3b925\n        /* \"contracts/clicker.sol\":4637:4643  amount */\n      dup4\n        /* \"contracts/clicker.sol\":4612:4644  Approval(owner, spender, amount) */\n      mload(0x40)\n      tag_148\n      swap2\n      swap1\n      tag_35\n      jump\t// in\n    tag_148:\n      mload(0x40)\n      dup1\n      swap2\n      sub\n      swap1\n      log3\n        /* \"contracts/clicker.sol\":4333:4651  function _approve(address owner, address spender, uint256 amount) internal {... */\n      pop\n      pop\n      pop\n      jump\t// out\n        /* \"contracts/clicker.sol\":4661:5015  function _spendAllowance(address owner, address spender, uint256 amount) internal {... */\n    tag_96:\n        /* \"contracts/clicker.sol\":4753:4777  uint256 currentAllowance */\n      0x00\n        /* \"contracts/clicker.sol\":4780:4805  allowance(owner, spender) */\n      tag_150\n        /* \"contracts/clicker.sol\":4790:4795  owner */\n      dup5\n        /* \"contracts/clicker.sol\":4797:4804  spender */\n      dup5\n        /* \"contracts/clicker.sol\":4780:4789  allowance */\n      tag_83\n        /* \"contracts/clicker.sol\":4780:4805  allowance(owner, spender) */\n      jump\t// in\n    tag_150:\n        /* \"contracts/clicker.sol\":4753:4805  uint256 currentAllowance = allowance(owner, spender) */\n      swap1\n      pop\n        /* \"contracts/clicker.sol\":4839:4856  type(uint256).max */\n      0xffffffffffffffffffffffffffffffffffffffffffffffffffffffffffffffff\n        /* \"contracts/clicker.sol\":4819:4835  currentAllowance */\n      dup2\n        /* \"contracts/clicker.sol\":4819:4856  currentAllowance != type(uint256).max */\n      eq\n        /* \"contracts/clicker.sol\":4815:5009  if (currentAllowance != type(uint256).max) {... */\n      tag_151\n      jumpi\n        /* \"contracts/clicker.sol\":4900:4906  amount */\n      dup2\n        /* \"contracts/clicker.sol\":4880:4896  currentAllowance */\n      dup2\n        /* \"contracts/clicker.sol\":4880:4906  currentAllowance >= amount */\n      lt\n      iszero\n        /* \"contracts/clicker.sol\":4872:4933  require(currentAllowance >= amount, \"Insufficient allowance\") */\n      tag_152\n      jumpi\n      mload(0x40)\n      0x08c379a000000000000000000000000000000000000000000000000000000000\n      dup2\n      mstore\n      0x04\n      add\n      tag_153\n      swap1\n      tag_154\n      jump\t// in\n    tag_153:\n      mload(0x40)\n      dup1\n      swap2\n      sub\n      swap1\n      revert\n    tag_152:\n        /* \"contracts/clicker.sol\":4947:4998  _approve(owner, spender, currentAllowance - amount) */\n      tag_155\n        /* \"contracts/clicker.sol\":4956:4961  owner */\n      dup5\n        /* \"contracts/clicker.sol\":4963:4970  spender */\n      dup5\n        /* \"contracts/clicker.sol\":4991:4997  amount */\n      dup5\n        /* \"contracts/clicker.sol\":4972:4988  currentAllowance */\n      dup5\n        /* \"contracts/clicker.sol\":4972:4997  currentAllowance - amount */\n      tag_156\n      swap2\n      swap1\n      tag_157\n      jump\t// in\n    tag_156:\n        /* \"contracts/clicker.sol\":4947:4955  _approve */\n      tag_92\n        /* \"contracts/clicker.sol\":4947:4998  _approve(owner, spender, currentAllowance - amount) */\n      jump\t// in\n    tag_155:\n        /* \"contracts/clicker.sol\":4815:5009  if (currentAllowance != type(uint256).max) {... */\n    tag_151:\n        /* \"contracts/clicker.sol\":4743:5015  {... */\n      pop\n        /* \"contracts/clicker.sol\":4661:5015  function _spendAllowance(address owner, address spender, uint256 amount) internal {... */\n      pop\n      pop\n      pop\n      jump\t// out\n        /* \"contracts/clicker.sol\":3921:4323  function _transfer(address from, address to, uint256 amount) internal {... */\n    tag_98:\n        /* \"contracts/clicker.sol\":4025:4026  0 */\n      0x00\n        /* \"contracts/clicker.sol\":4009:4027  from != address(0) */\n      0xffffffffffffffffffffffffffffffffffffffff\n      and\n        /* \"contracts/clicker.sol\":4009:4013  from */\n      dup4\n        /* \"contracts/clicker.sol\":4009:4027  from != address(0) */\n      0xffffffffffffffffffffffffffffffffffffffff\n      and\n      sub\n        /* \"contracts/clicker.sol\":4001:4058  require(from != address(0), \"Transfer from zero address\") */\n      tag_159\n      jumpi\n      mload(0x40)\n      0x08c379a000000000000000000000000000000000000000000000000000000000\n      dup2\n      mstore\n      0x04\n      add\n      tag_160\n      swap1\n      tag_161\n      jump\t// in\n    tag_160:\n      mload(0x40)\n      dup1\n      swap2\n      sub\n      swap1\n      revert\n    tag_159:\n        /* \"contracts/clicker.sol\":4090:4091  0 */\n      0x00\n        /* \"contracts/clicker.sol\":4076:4092  to != address(0) */\n      0xffffffffffffffffffffffffffffffffffffffff\n      and\n        /* \"contracts/clicker.sol\":4076:4078  to */\n      dup3\n        /* \"contracts/clicker.sol\":4076:4092  to != address(0) */\n      0xffffffffffffffffffffffffffffffffffffffff\n      and\n      sub\n        /* \"contracts/clicker.sol\":4068:4121  require(to != address(0), \"Transfer to zero address\") */\n      tag_162\n      jumpi\n      mload(0x40)\n      0x08c379a000000000000000000000000000000000000000000000000000000000\n      dup2\n      mstore\n      0x04\n      add\n      tag_163\n      swap1\n      tag_164\n      jump\t// in\n    tag_163:\n      mload(0x40)\n      dup1\n      swap2\n      sub\n      swap1\n      revert\n    tag_162:\n        /* \"contracts/clicker.sol\":4158:4164  amount */\n      dup1\n        /* \"contracts/clicker.sol\":4139:4148  _balances */\n      0x04\n        /* \"contracts/clicker.sol\":4139:4154  _balances[from] */\n      0x00\n        /* \"contracts/clicker.sol\":4149:4153  from */\n      dup6\n        /* \"contracts/clicker.sol\":4139:4154  _balances[from] */\n      0xffffffffffffffffffffffffffffffffffffffff\n      and\n      0xffffffffffffffffffffffffffffffffffffffff\n      and\n      dup2\n      mstore\n      0x20\n      add\n      swap1\n      dup2\n      mstore\n      0x20\n      add\n      0x00\n      keccak256\n      sload\n        /* \"contracts/clicker.sol\":4139:4164  _balances[from] >= amount */\n      lt\n      iszero\n        /* \"contracts/clicker.sol\":4131:4189  require(_balances[from] >= amount, \"Insufficient balance\") */\n      tag_165\n      jumpi\n      mload(0x40)\n      0x08c379a000000000000000000000000000000000000000000000000000000000\n      dup2\n      mstore\n      0x04\n      add\n      tag_166\n      swap1\n      tag_167\n      jump\t// in\n    tag_166:\n      mload(0x40)\n      dup1\n      swap2\n      sub\n      swap1\n      revert\n    tag_165:\n        /* \"contracts/clicker.sol\":4227:4233  amount */\n      dup1\n        /* \"contracts/clicker.sol\":4208:4217  _balances */\n      0x04\n        /* \"contracts/clicker.sol\":4208:4223  _balances[from] */\n      0x00\n        /* \"contracts/clicker.sol\":4218:4222  from */\n      dup6\n        /* \"contracts/clicker.sol\":4208:4223  _balances[from] */\n      0xffffffffffffffffffffffffffffffffffffffff\n      and\n      0xffffffffffffffffffffffffffffffffffffffff\n      and\n      dup2\n      mstore\n      0x20\n      add\n      swap1\n      dup2\n      mstore\n      0x20\n      add\n      0x00\n      keccak256\n      0x00\n        /* \"contracts/clicker.sol\":4208:4233  _balances[from] -= amount */\n      dup3\n      dup3\n      sload\n      tag_168\n      swap2\n      swap1\n      tag_157\n      jump\t// in\n    tag_168:\n      swap3\n      pop\n      pop\n      dup2\n      swap1\n      sstore\n      pop\n        /* \"contracts/clicker.sol\":4260:4266  amount */\n      dup1\n        /* \"contracts/clicker.sol\":4243:4252  _balances */\n      0x04\n        /* \"contracts/clicker.sol\":4243:4256  _balances[to] */\n      0x00\n        /* \"contracts/clicker.sol\":4253:4255  to */\n      dup5\n        /* \"contracts/clicker.sol\":4243:4256  _balances[to] */\n      0xffffffffffffffffffffffffffffffffffffffff\n      and\n      0xffffffffffffffffffffffffffffffffffffffff\n      and\n      dup2\n      mstore\n      0x20\n      add\n      swap1\n      dup2\n      mstore\n      0x20\n      add\n      0x00\n      keccak256\n      0x00\n        /* \"contracts/clicker.sol\":4243:4266  _balances[to] += amount */\n      dup3\n      dup3\n      sload\n      tag_169\n      swap2\n      swap1\n      tag_127\n      jump\t// in\n    tag_169:\n      swap3\n      pop\n      pop\n      dup2\n      swap1\n      sstore\n      pop\n        /* \"contracts/clicker.sol\":4305:4307  to */\n      dup2\n        /* \"contracts/clicker.sol\":4290:4316  Transfer(from, to, amount) */\n      0xffffffffffffffffffffffffffffffffffffffff\n      and\n        /* \"contracts/clicker.sol\":4299:4303  from */\n      dup4\n        /* \"contracts/clicker.sol\":4290:4316  Transfer(from, to, amount) */\n      0xffffffffffffffffffffffffffffffffffffffff\n      and\n      0xddf252ad1be2c89b69c2b068fc378daa952ba7f163c4a11628f55a4df523b3ef\n        /* \"contracts/clicker.sol\":4309:4315  amount */\n      dup4\n        /* \"contracts/clicker.sol\":4290:4316  Transfer(from, to, amount) */\n      mload(0x40)\n      tag_170\n      swap2\n      swap1\n      tag_35\n      jump\t// in\n    tag_170:\n      mload(0x40)\n      dup1\n      swap2\n      sub\n      swap1\n      log3\n        /* \"contracts/clicker.sol\":3921:4323  function _transfer(address from, address to, uint256 amount) internal {... */\n      pop\n      pop\n      pop\n      jump\t// out\n        /* \"contracts/clicker.sol\":3644:3911  function _mint(address account, uint256 amount) internal {... */\n    tag_135:\n        /* \"contracts/clicker.sol\":3738:3739  0 */\n      0x00\n        /* \"contracts/clicker.sol\":3719:3740  account != address(0) */\n      0xffffffffffffffffffffffffffffffffffffffff\n      and\n        /* \"contracts/clicker.sol\":3719:3726  account */\n      dup3\n        /* \"contracts/clicker.sol\":3719:3740  account != address(0) */\n      0xffffffffffffffffffffffffffffffffffffffff\n      and\n      sub\n        /* \"contracts/clicker.sol\":3711:3765  require(account != address(0), \"Mint to zero address\") */\n      tag_172\n      jumpi\n      mload(0x40)\n      0x08c379a000000000000000000000000000000000000000000000000000000000\n      dup2\n      mstore\n      0x04\n      add\n      tag_173\n      swap1\n      tag_174\n      jump\t// in\n    tag_173:\n      mload(0x40)\n      dup1\n      swap2\n      sub\n      swap1\n      revert\n    tag_172:\n        /* \"contracts/clicker.sol\":3799:3805  amount */\n      dup1\n        /* \"contracts/clicker.sol\":3784:3795  totalSupply */\n      0x00\n      0x00\n        /* \"contracts/clicker.sol\":3784:3805  totalSupply += amount */\n      dup3\n      dup3\n      sload\n      tag_175\n      swap2\n      swap1\n      tag_127\n      jump\t// in\n    tag_175:\n      swap3\n      pop\n      pop\n      dup2\n      swap1\n      sstore\n      pop\n        /* \"contracts/clicker.sol\":3837:3843  amount */\n      dup1\n        /* \"contracts/clicker.sol\":3815:3824  _balances */\n      0x04\n        /* \"contracts/clicker.sol\":3815:3833  _balances[account] */\n      0x00\n        /* \"contracts/clicker.sol\":3825:3832  account */\n      dup5\n        /* \"contracts/clicker.sol\":3815:3833  _balances[account] */\n      0xffffffffffffffffffffffffffffffffffffffff\n      and\n      0xffffffffffffffffffffffffffffffffffffffff\n      and\n      dup2\n      mstore\n      0x20\n      add\n      swap1\n      dup2\n      mstore\n      0x20\n      add\n      0x00\n      keccak256\n      0x00\n        /* \"contracts/clicker.sol\":3815:3843  _balances[account] += amount */\n      dup3\n      dup3\n      sload\n      tag_176\n      swap2\n      swap1\n      tag_127\n      jump\t// in\n    tag_176:\n      swap3\n      pop\n      pop\n      dup2\n      swap1\n      sstore\n      pop\n        /* \"contracts/clicker.sol\":3888:3895  account */\n      dup2\n        /* \"contracts/clicker.sol\":3867:3904  Transfer(address(0), account, amount) */\n      0xffffffffffffffffffffffffffffffffffffffff\n      and\n        /* \"contracts/clicker.sol\":3884:3885  0 */\n      0x00\n        /* \"contracts/clicker.sol\":3867:3904  Transfer(address(0), account, amount) */\n      0xffffffffffffffffffffffffffffffffffffffff\n      and\n      0xddf252ad1be2c89b69c2b068fc378daa952ba7f163c4a11628f55a4df523b3ef\n        /* \"contracts/clicker.sol\":3897:3903  amount */\n      dup4\n        /* \"contracts/clicker.sol\":3867:3904  Transfer(address(0), account, amount) */\n      mload(0x40)\n      tag_177\n      swap2\n      swap1\n      tag_35\n      jump\t// in\n    tag_177:\n      mload(0x40)\n      dup1\n      swap2\n      sub\n      swap1\n      log3\n        /* \"contracts/clicker.sol\":3644:3911  function _mint(address account, uint256 amount) internal {... */\n      pop\n      pop\n      jump\t// out\n        /* \"#utility.yul\":7:106   */\n    tag_178:\n        /* \"#utility.yul\":59:65   */\n      0x00\n        /* \"#utility.yul\":93:98   */\n      dup2\n        /* \"#utility.yul\":87:99   */\n      mload\n        /* \"#utility.yul\":77:99   */\n      swap1\n      pop\n        /* \"#utility.yul\":7:106   */\n      swap2\n      swap1\n      pop\n      jump\t// out\n        /* \"#utility.yul\":112:281   */\n    tag_179:\n        /* \"#utility.yul\":196:207   */\n      0x00\n        /* \"#utility.yul\":230:236   */\n      dup3\n        /* \"#utility.yul\":225:228   */\n      dup3\n        /* \"#utility.yul\":218:237   */\n      mstore\n        /* \"#utility.yul\":270:274   */\n      0x20\n        /* \"#utility.yul\":265:268   */\n      dup3\n        /* \"#utility.yul\":261:275   */\n      add\n        /* \"#utility.yul\":246:275   */\n      swap1\n      pop\n        /* \"#utility.yul\":112:281   */\n      swap3\n      swap2\n      pop\n      pop\n      jump\t// out\n        /* \"#utility.yul\":287:426   */\n    tag_180:\n        /* \"#utility.yul\":376:382   */\n      dup3\n        /* \"#utility.yul\":371:374   */\n      dup2\n        /* \"#utility.yul\":366:369   */\n      dup4\n        /* \"#utility.yul\":360:383   */\n      mcopy\n        /* \"#utility.yul\":417:418   */\n      0x00\n        /* \"#utility.yul\":408:414   */\n      dup4\n        /* \"#utility.yul\":403:406   */\n      dup4\n        /* \"#utility.yul\":399:415   */\n      add\n        /* \"#utility.yul\":392:419   */\n      mstore\n        /* \"#utility.yul\":287:426   */\n      pop\n      pop\n      pop\n      jump\t// out\n        /* \"#utility.yul\":432:534   */\n    tag_181:\n        /* \"#utility.yul\":473:479   */\n      0x00\n        /* \"#utility.yul\":524:526   */\n      0x1f\n        /* \"#utility.yul\":520:527   */\n      not\n        /* \"#utility.yul\":515:517   */\n      0x1f\n        /* \"#utility.yul\":508:513   */\n      dup4\n        /* \"#utility.yul\":504:518   */\n      add\n        /* \"#utility.yul\":500:528   */\n      and\n        /* \"#utility.yul\":490:528   */\n      swap1\n      pop\n        /* \"#utility.yul\":432:534   */\n      swap2\n      swap1\n      pop\n      jump\t// out\n        /* \"#utility.yul\":540:917   */\n    tag_182:\n        /* \"#utility.yul\":628:631   */\n      0x00\n        /* \"#utility.yul\":656:695   */\n      tag_236\n        /* \"#utility.yul\":689:694   */\n      dup3\n        /* \"#utility.yul\":656:695   */\n      tag_178\n      jump\t// in\n    tag_236:\n        /* \"#utility.yul\":711:782   */\n      tag_237\n        /* \"#utility.yul\":775:781   */\n      dup2\n        /* \"#utility.yul\":770:773   */\n      dup6\n        /* \"#utility.yul\":711:782   */\n      tag_179\n      jump\t// in\n    tag_237:\n        /* \"#utility.yul\":704:782   */\n      swap4\n      pop\n        /* \"#utility.yul\":791:856   */\n      tag_238\n        /* \"#utility.yul\":849:855   */\n      dup2\n        /* \"#utility.yul\":844:847   */\n      dup6\n        /* \"#utility.yul\":837:841   */\n      0x20\n        /* \"#utility.yul\":830:835   */\n      dup7\n        /* \"#utility.yul\":826:842   */\n      add\n        /* \"#utility.yul\":791:856   */\n      tag_180\n      jump\t// in\n    tag_238:\n        /* \"#utility.yul\":881:910   */\n      tag_239\n        /* \"#utility.yul\":903:909   */\n      dup2\n        /* \"#utility.yul\":881:910   */\n      tag_181\n      jump\t// in\n    tag_239:\n        /* \"#utility.yul\":876:879   */\n      dup5\n        /* \"#utility.yul\":872:911   */\n      add\n        /* \"#utility.yul\":865:911   */\n      swap2\n      pop\n        /* \"#utility.yul\":632:917   */\n      pop\n        /* \"#utility.yul\":540:917   */\n      swap3\n      swap2\n      pop\n      pop\n      jump\t// out\n        /* \"#utility.yul\":923:1236   */\n    tag_25:\n        /* \"#utility.yul\":1036:1040   */\n      0x00\n        /* \"#utility.yul\":1074:1076   */\n      0x20\n        /* \"#utility.yul\":1063:1072   */\n      dup3\n        /* \"#utility.yul\":1059:1077   */\n      add\n        /* \"#utility.yul\":1051:1077   */\n      swap1\n      pop\n        /* \"#utility.yul\":1123:1132   */\n      dup2\n        /* \"#utility.yul\":1117:1121   */\n      dup2\n        /* \"#utility.yul\":1113:1133   */\n      sub\n        /* \"#utility.yul\":1109:1110   */\n      0x00\n        /* \"#utility.yul\":1098:1107   */\n      dup4\n        /* \"#utility.yul\":1094:1111   */\n      add\n        /* \"#utility.yul\":1087:1134   */\n      mstore\n        /* \"#utility.yul\":1151:1229   */\n      tag_241\n        /* \"#utility.yul\":1224:1228   */\n      dup2\n        /* \"#utility.yul\":1215:1221   */\n      dup5\n        /* \"#utility.yul\":1151:1229   */\n      tag_182\n      jump\t// in\n    tag_241:\n        /* \"#utility.yul\":1143:1229   */\n      swap1\n      pop\n        /* \"#utility.yul\":923:1236   */\n      swap3\n      swap2\n      pop\n      pop\n      jump\t// out\n        /* \"#utility.yul\":1323:1440   */\n    tag_184:\n        /* \"#utility.yul\":1432:1433   */\n      0x00\n        /* \"#utility.yul\":1429:1430   */\n      0x00\n        /* \"#utility.yul\":1422:1434   */\n      revert\n        /* \"#utility.yul\":1569:1695   */\n    tag_186:\n        /* \"#utility.yul\":1606:1613   */\n      0x00\n        /* \"#utility.yul\":1646:1688   */\n      0xffffffffffffffffffffffffffffffffffffffff\n        /* \"#utility.yul\":1639:1644   */\n      dup3\n        /* \"#utility.yul\":1635:1689   */\n      and\n        /* \"#utility.yul\":1624:1689   */\n      swap1\n      pop\n        /* \"#utility.yul\":1569:1695   */\n      swap2\n      swap1\n      pop\n      jump\t// out\n        /* \"#utility.yul\":1701:1797   */\n    tag_187:\n        /* \"#utility.yul\":1738:1745   */\n      0x00\n        /* \"#utility.yul\":1767:1791   */\n      tag_247\n        /* \"#utility.yul\":1785:1790   */\n      dup3\n        /* \"#utility.yul\":1767:1791   */\n      tag_186\n      jump\t// in\n    tag_247:\n        /* \"#utility.yul\":1756:1791   */\n      swap1\n      pop\n        /* \"#utility.yul\":1701:1797   */\n      swap2\n      swap1\n      pop\n      jump\t// out\n        /* \"#utility.yul\":1803:1925   */\n    tag_188:\n        /* \"#utility.yul\":1876:1900   */\n      tag_249\n        /* \"#utility.yul\":1894:1899   */\n      dup2\n        /* \"#utility.yul\":1876:1900   */\n      tag_187\n      jump\t// in\n    tag_249:\n        /* \"#utility.yul\":1869:1874   */\n      dup2\n        /* \"#utility.yul\":1866:1901   */\n      eq\n        /* \"#utility.yul\":1856:1919   */\n      tag_250\n      jumpi\n        /* \"#utility.yul\":1915:1916   */\n      0x00\n        /* \"#utility.yul\":1912:1913   */\n      0x00\n        /* \"#utility.yul\":1905:1917   */\n      revert\n        /* \"#utility.yul\":1856:1919   */\n    tag_250:\n        /* \"#utility.yul\":1803:1925   */\n      pop\n      jump\t// out\n        /* \"#utility.yul\":1931:2070   */\n    tag_189:\n        /* \"#utility.yul\":1977:1982   */\n      0x00\n        /* \"#utility.yul\":2015:2021   */\n      dup2\n        /* \"#utility.yul\":2002:2022   */\n      calldataload\n        /* \"#utility.yul\":1993:2022   */\n      swap1\n      pop\n        /* \"#utility.yul\":2031:2064   */\n      tag_252\n        /* \"#utility.yul\":2058:2063   */\n      dup2\n        /* \"#utility.yul\":2031:2064   */\n      tag_188\n      jump\t// in\n    tag_252:\n        /* \"#utility.yul\":1931:2070   */\n      swap3\n      swap2\n      pop\n      pop\n      jump\t// out\n        /* \"#utility.yul\":2076:2153   */\n    tag_190:\n        /* \"#utility.yul\":2113:2120   */\n      0x00\n        /* \"#utility.yul\":2142:2147   */\n      dup2\n        /* \"#utility.yul\":2131:2147   */\n      swap1\n      pop\n        /* \"#utility.yul\":2076:2153   */\n      swap2\n      swap1\n      pop\n      jump\t// out\n        /* \"#utility.yul\":2159:2281   */\n    tag_191:\n        /* \"#utility.yul\":2232:2256   */\n      tag_255\n        /* \"#utility.yul\":2250:2255   */\n      dup2\n        /* \"#utility.yul\":2232:2256   */\n      tag_190\n      jump\t// in\n    tag_255:\n        /* \"#utility.yul\":2225:2230   */\n      dup2\n        /* \"#utility.yul\":2222:2257   */\n      eq\n        /* \"#utility.yul\":2212:2275   */\n      tag_256\n      jumpi\n        /* \"#utility.yul\":2271:2272   */\n      0x00\n        /* \"#utility.yul\":2268:2269   */\n      0x00\n        /* \"#utility.yul\":2261:2273   */\n      revert\n        /* \"#utility.yul\":2212:2275   */\n    tag_256:\n        /* \"#utility.yul\":2159:2281   */\n      pop\n      jump\t// out\n        /* \"#utility.yul\":2287:2426   */\n    tag_192:\n        /* \"#utility.yul\":2333:2338   */\n      0x00\n        /* \"#utility.yul\":2371:2377   */\n      dup2\n        /* \"#utility.yul\":2358:2378   */\n      calldataload\n        /* \"#utility.yul\":2349:2378   */\n      swap1\n      pop\n        /* \"#utility.yul\":2387:2420   */\n      tag_258\n        /* \"#utility.yul\":2414:2419   */\n      dup2\n        /* \"#utility.yul\":2387:2420   */\n      tag_191\n      jump\t// in\n    tag_258:\n        /* \"#utility.yul\":2287:2426   */\n      swap3\n      swap2\n      pop\n      pop\n      jump\t// out\n        /* \"#utility.yul\":2432:2906   */\n    tag_28:\n        /* \"#utility.yul\":2500:2506   */\n      0x00\n        /* \"#utility.yul\":2508:2514   */\n      0x00\n        /* \"#utility.yul\":2557:2559   */\n      0x40\n        /* \"#utility.yul\":2545:2554   */\n      dup4\n        /* \"#utility.yul\":2536:2543   */\n      dup6\n        /* \"#utility.yul\":2532:2555   */\n      sub\n        /* \"#utility.yul\":2528:2560   */\n      slt\n        /* \"#utility.yul\":2525:2644   */\n      iszero\n      tag_260\n      jumpi\n        /* \"#utility.yul\":2563:2642   */\n      tag_261\n      tag_184\n      jump\t// in\n    tag_261:\n        /* \"#utility.yul\":2525:2644   */\n    tag_260:\n        /* \"#utility.yul\":2683:2684   */\n      0x00\n        /* \"#utility.yul\":2708:2761   */\n      tag_262\n        /* \"#utility.yul\":2753:2760   */\n      dup6\n        /* \"#utility.yul\":2744:2750   */\n      dup3\n        /* \"#utility.yul\":2733:2742   */\n      dup7\n        /* \"#utility.yul\":2729:2751   */\n      add\n        /* \"#utility.yul\":2708:2761   */\n      tag_189\n      jump\t// in\n    tag_262:\n        /* \"#utility.yul\":2698:2761   */\n      swap3\n      pop\n        /* \"#utility.yul\":2654:2771   */\n      pop\n        /* \"#utility.yul\":2810:2812   */\n      0x20\n        /* \"#utility.yul\":2836:2889   */\n      tag_263\n        /* \"#utility.yul\":2881:2888   */\n      dup6\n        /* \"#utility.yul\":2872:2878   */\n      dup3\n        /* \"#utility.yul\":2861:2870   */\n      dup7\n        /* \"#utility.yul\":2857:2879   */\n      add\n        /* \"#utility.yul\":2836:2889   */\n      tag_192\n      jump\t// in\n    tag_263:\n        /* \"#utility.yul\":2826:2889   */\n      swap2\n      pop\n        /* \"#utility.yul\":2781:2899   */\n      pop\n        /* \"#utility.yul\":2432:2906   */\n      swap3\n      pop\n      swap3\n      swap1\n      pop\n      jump\t// out\n        /* \"#utility.yul\":2912:3002   */\n    tag_193:\n        /* \"#utility.yul\":2946:2953   */\n      0x00\n        /* \"#utility.yul\":2989:2994   */\n      dup2\n        /* \"#utility.yul\":2982:2995   */\n      iszero\n        /* \"#utility.yul\":2975:2996   */\n      iszero\n        /* \"#utility.yul\":2964:2996   */\n      swap1\n      pop\n        /* \"#utility.yul\":2912:3002   */\n      swap2\n      swap1\n      pop\n      jump\t// out\n        /* \"#utility.yul\":3008:3117   */\n    tag_194:\n        /* \"#utility.yul\":3089:3110   */\n      tag_266\n        /* \"#utility.yul\":3104:3109   */\n      dup2\n        /* \"#utility.yul\":3089:3110   */\n      tag_193\n      jump\t// in\n    tag_266:\n        /* \"#utility.yul\":3084:3087   */\n      dup3\n        /* \"#utility.yul\":3077:3111   */\n      mstore\n        /* \"#utility.yul\":3008:3117   */\n      pop\n      pop\n      jump\t// out\n        /* \"#utility.yul\":3123:3333   */\n    tag_31:\n        /* \"#utility.yul\":3210:3214   */\n      0x00\n        /* \"#utility.yul\":3248:3250   */\n      0x20\n        /* \"#utility.yul\":3237:3246   */\n      dup3\n        /* \"#utility.yul\":3233:3251   */\n      add\n        /* \"#utility.yul\":3225:3251   */\n      swap1\n      pop\n        /* \"#utility.yul\":3261:3326   */\n      tag_268\n        /* \"#utility.yul\":3323:3324   */\n      0x00\n        /* \"#utility.yul\":3312:3321   */\n      dup4\n        /* \"#utility.yul\":3308:3325   */\n      add\n        /* \"#utility.yul\":3299:3305   */\n      dup5\n        /* \"#utility.yul\":3261:3326   */\n      tag_194\n      jump\t// in\n    tag_268:\n        /* \"#utility.yul\":3123:3333   */\n      swap3\n      swap2\n      pop\n      pop\n      jump\t// out\n        /* \"#utility.yul\":3339:3457   */\n    tag_195:\n        /* \"#utility.yul\":3426:3450   */\n      tag_270\n        /* \"#utility.yul\":3444:3449   */\n      dup2\n        /* \"#utility.yul\":3426:3450   */\n      tag_190\n      jump\t// in\n    tag_270:\n        /* \"#utility.yul\":3421:3424   */\n      dup3\n        /* \"#utility.yul\":3414:3451   */\n      mstore\n        /* \"#utility.yul\":3339:3457   */\n      pop\n      pop\n      jump\t// out\n        /* \"#utility.yul\":3463:3685   */\n    tag_35:\n        /* \"#utility.yul\":3556:3560   */\n      0x00\n        /* \"#utility.yul\":3594:3596   */\n      0x20\n        /* \"#utility.yul\":3583:3592   */\n      dup3\n        /* \"#utility.yul\":3579:3597   */\n      add\n        /* \"#utility.yul\":3571:3597   */\n      swap1\n      pop\n        /* \"#utility.yul\":3607:3678   */\n      tag_272\n        /* \"#utility.yul\":3675:3676   */\n      0x00\n        /* \"#utility.yul\":3664:3673   */\n      dup4\n        /* \"#utility.yul\":3660:3677   */\n      add\n        /* \"#utility.yul\":3651:3657   */\n      dup5\n        /* \"#utility.yul\":3607:3678   */\n      tag_195\n      jump\t// in\n    tag_272:\n        /* \"#utility.yul\":3463:3685   */\n      swap3\n      swap2\n      pop\n      pop\n      jump\t// out\n        /* \"#utility.yul\":3691:4020   */\n    tag_41:\n        /* \"#utility.yul\":3750:3756   */\n      0x00\n        /* \"#utility.yul\":3799:3801   */\n      0x20\n        /* \"#utility.yul\":3787:3796   */\n      dup3\n        /* \"#utility.yul\":3778:3785   */\n      dup5\n        /* \"#utility.yul\":3774:3797   */\n      sub\n        /* \"#utility.yul\":3770:3802   */\n      slt\n        /* \"#utility.yul\":3767:3886   */\n      iszero\n      tag_274\n      jumpi\n        /* \"#utility.yul\":3805:3884   */\n      tag_275\n      tag_184\n      jump\t// in\n    tag_275:\n        /* \"#utility.yul\":3767:3886   */\n    tag_274:\n        /* \"#utility.yul\":3925:3926   */\n      0x00\n        /* \"#utility.yul\":3950:4003   */\n      tag_276\n        /* \"#utility.yul\":3995:4002   */\n      dup5\n        /* \"#utility.yul\":3986:3992   */\n      dup3\n        /* \"#utility.yul\":3975:3984   */\n      dup6\n        /* \"#utility.yul\":3971:3993   */\n      add\n        /* \"#utility.yul\":3950:4003   */\n      tag_189\n      jump\t// in\n    tag_276:\n        /* \"#utility.yul\":3940:4003   */\n      swap2\n      pop\n        /* \"#utility.yul\":3896:4013   */\n      pop\n        /* \"#utility.yul\":3691:4020   */\n      swap3\n      swap2\n      pop\n      pop\n      jump\t// out\n        /* \"#utility.yul\":4026:4645   */\n    tag_46:\n        /* \"#utility.yul\":4103:4109   */\n      0x00\n        /* \"#utility.yul\":4111:4117   */\n      0x00\n        /* \"#utility.yul\":4119:4125   */\n      0x00\n        /* \"#utility.yul\":4168:4170   */\n      0x60\n        /* \"#utility.yul\":4156:4165   */\n      dup5\n        /* \"#utility.yul\":4147:4154   */\n      dup7\n        /* \"#utility.yul\":4143:4166   */\n      sub\n        /* \"#utility.yul\":4139:4171   */\n      slt\n        /* \"#utility.yul\":4136:4255   */\n      iszero\n      tag_278\n      jumpi\n        /* \"#utility.yul\":4174:4253   */\n      tag_279\n      tag_184\n      jump\t// in\n    tag_279:\n        /* \"#utility.yul\":4136:4255   */\n    tag_278:\n        /* \"#utility.yul\":4294:4295   */\n      0x00\n        /* \"#utility.yul\":4319:4372   */\n      tag_280\n        /* \"#utility.yul\":4364:4371   */\n      dup7\n        /* \"#utility.yul\":4355:4361   */\n      dup3\n        /* \"#utility.yul\":4344:4353   */\n      dup8\n        /* \"#utility.yul\":4340:4362   */\n      add\n        /* \"#utility.yul\":4319:4372   */\n      tag_189\n      jump\t// in\n    tag_280:\n        /* \"#utility.yul\":4309:4372   */\n      swap4\n      pop\n        /* \"#utility.yul\":4265:4382   */\n      pop\n        /* \"#utility.yul\":4421:4423   */\n      0x20\n        /* \"#utility.yul\":4447:4500   */\n      tag_281\n        /* \"#utility.yul\":4492:4499   */\n      dup7\n        /* \"#utility.yul\":4483:4489   */\n      dup3\n        /* \"#utility.yul\":4472:4481   */\n      dup8\n        /* \"#utility.yul\":4468:4490   */\n      add\n        /* \"#utility.yul\":4447:4500   */\n      tag_189\n      jump\t// in\n    tag_281:\n        /* \"#utility.yul\":4437:4500   */\n      swap3\n      pop\n        /* \"#utility.yul\":4392:4510   */\n      pop\n        /* \"#utility.yul\":4549:4551   */\n      0x40\n        /* \"#utility.yul\":4575:4628   */\n      tag_282\n        /* \"#utility.yul\":4620:4627   */\n      dup7\n        /* \"#utility.yul\":4611:4617   */\n      dup3\n        /* \"#utility.yul\":4600:4609   */\n      dup8\n        /* \"#utility.yul\":4596:4618   */\n      add\n        /* \"#utility.yul\":4575:4628   */\n      tag_192\n      jump\t// in\n    tag_282:\n        /* \"#utility.yul\":4565:4628   */\n      swap2\n      pop\n        /* \"#utility.yul\":4520:4638   */\n      pop\n        /* \"#utility.yul\":4026:4645   */\n      swap3\n      pop\n      swap3\n      pop\n      swap3\n      jump\t// out\n        /* \"#utility.yul\":4651:4737   */\n    tag_196:\n        /* \"#utility.yul\":4686:4693   */\n      0x00\n        /* \"#utility.yul\":4726:4730   */\n      0xff\n        /* \"#utility.yul\":4719:4724   */\n      dup3\n        /* \"#utility.yul\":4715:4731   */\n      and\n        /* \"#utility.yul\":4704:4731   */\n      swap1\n      pop\n        /* \"#utility.yul\":4651:4737   */\n      swap2\n      swap1\n      pop\n      jump\t// out\n        /* \"#utility.yul\":4743:4855   */\n    tag_197:\n        /* \"#utility.yul\":4826:4848   */\n      tag_285\n        /* \"#utility.yul\":4842:4847   */\n      dup2\n        /* \"#utility.yul\":4826:4848   */\n      tag_196\n      jump\t// in\n    tag_285:\n        /* \"#utility.yul\":4821:4824   */\n      dup3\n        /* \"#utility.yul\":4814:4849   */\n      mstore\n        /* \"#utility.yul\":4743:4855   */\n      pop\n      pop\n      jump\t// out\n        /* \"#utility.yul\":4861:5075   */\n    tag_52:\n        /* \"#utility.yul\":4950:4954   */\n      0x00\n        /* \"#utility.yul\":4988:4990   */\n      0x20\n        /* \"#utility.yul\":4977:4986   */\n      dup3\n        /* \"#utility.yul\":4973:4991   */\n      add\n        /* \"#utility.yul\":4965:4991   */\n      swap1\n      pop\n        /* \"#utility.yul\":5001:5068   */\n      tag_287\n        /* \"#utility.yul\":5065:5066   */\n      0x00\n        /* \"#utility.yul\":5054:5063   */\n      dup4\n        /* \"#utility.yul\":5050:5067   */\n      add\n        /* \"#utility.yul\":5041:5047   */\n      dup5\n        /* \"#utility.yul\":5001:5068   */\n      tag_197\n      jump\t// in\n    tag_287:\n        /* \"#utility.yul\":4861:5075   */\n      swap3\n      swap2\n      pop\n      pop\n      jump\t// out\n        /* \"#utility.yul\":5081:5195   */\n    tag_198:\n        /* \"#utility.yul\":5148:5154   */\n      0x00\n        /* \"#utility.yul\":5182:5187   */\n      dup2\n        /* \"#utility.yul\":5176:5188   */\n      mload\n        /* \"#utility.yul\":5166:5188   */\n      swap1\n      pop\n        /* \"#utility.yul\":5081:5195   */\n      swap2\n      swap1\n      pop\n      jump\t// out\n        /* \"#utility.yul\":5201:5385   */\n    tag_199:\n        /* \"#utility.yul\":5300:5311   */\n      0x00\n        /* \"#utility.yul\":5334:5340   */\n      dup3\n        /* \"#utility.yul\":5329:5332   */\n      dup3\n        /* \"#utility.yul\":5322:5341   */\n      mstore\n        /* \"#utility.yul\":5374:5378   */\n      0x20\n        /* \"#utility.yul\":5369:5372   */\n      dup3\n        /* \"#utility.yul\":5365:5379   */\n      add\n        /* \"#utility.yul\":5350:5379   */\n      swap1\n      pop\n        /* \"#utility.yul\":5201:5385   */\n      swap3\n      swap2\n      pop\n      pop\n      jump\t// out\n        /* \"#utility.yul\":5391:5523   */\n    tag_200:\n        /* \"#utility.yul\":5458:5462   */\n      0x00\n        /* \"#utility.yul\":5481:5484   */\n      dup2\n        /* \"#utility.yul\":5473:5484   */\n      swap1\n      pop\n        /* \"#utility.yul\":5511:5515   */\n      0x20\n        /* \"#utility.yul\":5506:5509   */\n      dup3\n        /* \"#utility.yul\":5502:5516   */\n      add\n        /* \"#utility.yul\":5494:5516   */\n      swap1\n      pop\n        /* \"#utility.yul\":5391:5523   */\n      swap2\n      swap1\n      pop\n      jump\t// out\n        /* \"#utility.yul\":5529:5637   */\n    tag_201:\n        /* \"#utility.yul\":5606:5630   */\n      tag_292\n        /* \"#utility.yul\":5624:5629   */\n      dup2\n        /* \"#utility.yul\":5606:5630   */\n      tag_187\n      jump\t// in\n    tag_292:\n        /* \"#utility.yul\":5601:5604   */\n      dup3\n        /* \"#utility.yul\":5594:5631   */\n      mstore\n        /* \"#utility.yul\":5529:5637   */\n      pop\n      pop\n      jump\t// out\n        /* \"#utility.yul\":5643:5822   */\n    tag_202:\n        /* \"#utility.yul\":5712:5722   */\n      0x00\n        /* \"#utility.yul\":5733:5779   */\n      tag_294\n        /* \"#utility.yul\":5775:5778   */\n      dup4\n        /* \"#utility.yul\":5767:5773   */\n      dup4\n        /* \"#utility.yul\":5733:5779   */\n      tag_201\n      jump\t// in\n    tag_294:\n        /* \"#utility.yul\":5811:5815   */\n      0x20\n        /* \"#utility.yul\":5806:5809   */\n      dup4\n        /* \"#utility.yul\":5802:5816   */\n      add\n        /* \"#utility.yul\":5788:5816   */\n      swap1\n      pop\n        /* \"#utility.yul\":5643:5822   */\n      swap3\n      swap2\n      pop\n      pop\n      jump\t// out\n        /* \"#utility.yul\":5828:5941   */\n    tag_203:\n        /* \"#utility.yul\":5898:5902   */\n      0x00\n        /* \"#utility.yul\":5930:5934   */\n      0x20\n        /* \"#utility.yul\":5925:5928   */\n      dup3\n        /* \"#utility.yul\":5921:5935   */\n      add\n        /* \"#utility.yul\":5913:5935   */\n      swap1\n      pop\n        /* \"#utility.yul\":5828:5941   */\n      swap2\n      swap1\n      pop\n      jump\t// out\n        /* \"#utility.yul\":5977:6709   */\n    tag_204:\n        /* \"#utility.yul\":6096:6099   */\n      0x00\n        /* \"#utility.yul\":6125:6179   */\n      tag_297\n        /* \"#utility.yul\":6173:6178   */\n      dup3\n        /* \"#utility.yul\":6125:6179   */\n      tag_198\n      jump\t// in\n    tag_297:\n        /* \"#utility.yul\":6195:6281   */\n      tag_298\n        /* \"#utility.yul\":6274:6280   */\n      dup2\n        /* \"#utility.yul\":6269:6272   */\n      dup6\n        /* \"#utility.yul\":6195:6281   */\n      tag_199\n      jump\t// in\n    tag_298:\n        /* \"#utility.yul\":6188:6281   */\n      swap4\n      pop\n        /* \"#utility.yul\":6305:6361   */\n      tag_299\n        /* \"#utility.yul\":6355:6360   */\n      dup4\n        /* \"#utility.yul\":6305:6361   */\n      tag_200\n      jump\t// in\n    tag_299:\n        /* \"#utility.yul\":6384:6391   */\n      dup1\n        /* \"#utility.yul\":6415:6416   */\n      0x00\n        /* \"#utility.yul\":6400:6684   */\n    tag_300:\n        /* \"#utility.yul\":6425:6431   */\n      dup4\n        /* \"#utility.yul\":6422:6423   */\n      dup2\n        /* \"#utility.yul\":6419:6432   */\n      lt\n        /* \"#utility.yul\":6400:6684   */\n      iszero\n      tag_302\n      jumpi\n        /* \"#utility.yul\":6501:6507   */\n      dup2\n        /* \"#utility.yul\":6495:6508   */\n      mload\n        /* \"#utility.yul\":6528:6591   */\n      tag_303\n        /* \"#utility.yul\":6587:6590   */\n      dup9\n        /* \"#utility.yul\":6572:6585   */\n      dup3\n        /* \"#utility.yul\":6528:6591   */\n      tag_202\n      jump\t// in\n    tag_303:\n        /* \"#utility.yul\":6521:6591   */\n      swap8\n      pop\n        /* \"#utility.yul\":6614:6674   */\n      tag_304\n        /* \"#utility.yul\":6667:6673   */\n      dup4\n        /* \"#utility.yul\":6614:6674   */\n      tag_203\n      jump\t// in\n    tag_304:\n        /* \"#utility.yul\":6604:6674   */\n      swap3\n      pop\n        /* \"#utility.yul\":6460:6684   */\n      pop\n        /* \"#utility.yul\":6447:6448   */\n      0x01\n        /* \"#utility.yul\":6444:6445   */\n      dup2\n        /* \"#utility.yul\":6440:6449   */\n      add\n        /* \"#utility.yul\":6435:6449   */\n      swap1\n      pop\n        /* \"#utility.yul\":6400:6684   */\n      jump(tag_300)\n    tag_302:\n        /* \"#utility.yul\":6404:6418   */\n      pop\n        /* \"#utility.yul\":6700:6703   */\n      dup6\n        /* \"#utility.yul\":6693:6703   */\n      swap4\n      pop\n        /* \"#utility.yul\":6101:6709   */\n      pop\n      pop\n      pop\n        /* \"#utility.yul\":5977:6709   */\n      swap3\n      swap2\n      pop\n      pop\n      jump\t// out\n        /* \"#utility.yul\":6715:6829   */\n    tag_205:\n        /* \"#utility.yul\":6782:6788   */\n      0x00\n        /* \"#utility.yul\":6816:6821   */\n      dup2\n        /* \"#utility.yul\":6810:6822   */\n      mload\n        /* \"#utility.yul\":6800:6822   */\n      swap1\n      pop\n        /* \"#utility.yul\":6715:6829   */\n      swap2\n      swap1\n      pop\n      jump\t// out\n        /* \"#utility.yul\":6835:7019   */\n    tag_206:\n        /* \"#utility.yul\":6934:6945   */\n      0x00\n        /* \"#utility.yul\":6968:6974   */\n      dup3\n        /* \"#utility.yul\":6963:6966   */\n      dup3\n        /* \"#utility.yul\":6956:6975   */\n      mstore\n        /* \"#utility.yul\":7008:7012   */\n      0x20\n        /* \"#utility.yul\":7003:7006   */\n      dup3\n        /* \"#utility.yul\":6999:7013   */\n      add\n        /* \"#utility.yul\":6984:7013   */\n      swap1\n      pop\n        /* \"#utility.yul\":6835:7019   */\n      swap3\n      swap2\n      pop\n      pop\n      jump\t// out\n        /* \"#utility.yul\":7025:7157   */\n    tag_207:\n        /* \"#utility.yul\":7092:7096   */\n      0x00\n        /* \"#utility.yul\":7115:7118   */\n      dup2\n        /* \"#utility.yul\":7107:7118   */\n      swap1\n      pop\n        /* \"#utility.yul\":7145:7149   */\n      0x20\n        /* \"#utility.yul\":7140:7143   */\n      dup3\n        /* \"#utility.yul\":7136:7150   */\n      add\n        /* \"#utility.yul\":7128:7150   */\n      swap1\n      pop\n        /* \"#utility.yul\":7025:7157   */\n      swap2\n      swap1\n      pop\n      jump\t// out\n        /* \"#utility.yul\":7163:7271   */\n    tag_208:\n        /* \"#utility.yul\":7240:7264   */\n      tag_309\n        /* \"#utility.yul\":7258:7263   */\n      dup2\n        /* \"#utility.yul\":7240:7264   */\n      tag_190\n      jump\t// in\n    tag_309:\n        /* \"#utility.yul\":7235:7238   */\n      dup3\n        /* \"#utility.yul\":7228:7265   */\n      mstore\n        /* \"#utility.yul\":7163:7271   */\n      pop\n      pop\n      jump\t// out\n        /* \"#utility.yul\":7277:7456   */\n    tag_209:\n        /* \"#utility.yul\":7346:7356   */\n      0x00\n        /* \"#utility.yul\":7367:7413   */\n      tag_311\n        /* \"#utility.yul\":7409:7412   */\n      dup4\n        /* \"#utility.yul\":7401:7407   */\n      dup4\n        /* \"#utility.yul\":7367:7413   */\n      tag_208\n      jump\t// in\n    tag_311:\n        /* \"#utility.yul\":7445:7449   */\n      0x20\n        /* \"#utility.yul\":7440:7443   */\n      dup4\n        /* \"#utility.yul\":7436:7450   */\n      add\n        /* \"#utility.yul\":7422:7450   */\n      swap1\n      pop\n        /* \"#utility.yul\":7277:7456   */\n      swap3\n      swap2\n      pop\n      pop\n      jump\t// out\n        /* \"#utility.yul\":7462:7575   */\n    tag_210:\n        /* \"#utility.yul\":7532:7536   */\n      0x00\n        /* \"#utility.yul\":7564:7568   */\n      0x20\n        /* \"#utility.yul\":7559:7562   */\n      dup3\n        /* \"#utility.yul\":7555:7569   */\n      add\n        /* \"#utility.yul\":7547:7569   */\n      swap1\n      pop\n        /* \"#utility.yul\":7462:7575   */\n      swap2\n      swap1\n      pop\n      jump\t// out\n        /* \"#utility.yul\":7611:8343   */\n    tag_211:\n        /* \"#utility.yul\":7730:7733   */\n      0x00\n        /* \"#utility.yul\":7759:7813   */\n      tag_314\n        /* \"#utility.yul\":7807:7812   */\n      dup3\n        /* \"#utility.yul\":7759:7813   */\n      tag_205\n      jump\t// in\n    tag_314:\n        /* \"#utility.yul\":7829:7915   */\n      tag_315\n        /* \"#utility.yul\":7908:7914   */\n      dup2\n        /* \"#utility.yul\":7903:7906   */\n      dup6\n        /* \"#utility.yul\":7829:7915   */\n      tag_206\n      jump\t// in\n    tag_315:\n        /* \"#utility.yul\":7822:7915   */\n      swap4\n      pop\n        /* \"#utility.yul\":7939:7995   */\n      tag_316\n        /* \"#utility.yul\":7989:7994   */\n      dup4\n        /* \"#utility.yul\":7939:7995   */\n      tag_207\n      jump\t// in\n    tag_316:\n        /* \"#utility.yul\":8018:8025   */\n      dup1\n        /* \"#utility.yul\":8049:8050   */\n      0x00\n        /* \"#utility.yul\":8034:8318   */\n    tag_317:\n        /* \"#utility.yul\":8059:8065   */\n      dup4\n        /* \"#utility.yul\":8056:8057   */\n      dup2\n        /* \"#utility.yul\":8053:8066   */\n      lt\n        /* \"#utility.yul\":8034:8318   */\n      iszero\n      tag_319\n      jumpi\n        /* \"#utility.yul\":8135:8141   */\n      dup2\n        /* \"#utility.yul\":8129:8142   */\n      mload\n        /* \"#utility.yul\":8162:8225   */\n      tag_320\n        /* \"#utility.yul\":8221:8224   */\n      dup9\n        /* \"#utility.yul\":8206:8219   */\n      dup3\n        /* \"#utility.yul\":8162:8225   */\n      tag_209\n      jump\t// in\n    tag_320:\n        /* \"#utility.yul\":8155:8225   */\n      swap8\n      pop\n        /* \"#utility.yul\":8248:8308   */\n      tag_321\n        /* \"#utility.yul\":8301:8307   */\n      dup4\n        /* \"#utility.yul\":8248:8308   */\n      tag_210\n      jump\t// in\n    tag_321:\n        /* \"#utility.yul\":8238:8308   */\n      swap3\n      pop\n        /* \"#utility.yul\":8094:8318   */\n      pop\n        /* \"#utility.yul\":8081:8082   */\n      0x01\n        /* \"#utility.yul\":8078:8079   */\n      dup2\n        /* \"#utility.yul\":8074:8083   */\n      add\n        /* \"#utility.yul\":8069:8083   */\n      swap1\n      pop\n        /* \"#utility.yul\":8034:8318   */\n      jump(tag_317)\n    tag_319:\n        /* \"#utility.yul\":8038:8052   */\n      pop\n        /* \"#utility.yul\":8334:8337   */\n      dup6\n        /* \"#utility.yul\":8327:8337   */\n      swap4\n      pop\n        /* \"#utility.yul\":7735:8343   */\n      pop\n      pop\n      pop\n        /* \"#utility.yul\":7611:8343   */\n      swap3\n      swap2\n      pop\n      pop\n      jump\t// out\n        /* \"#utility.yul\":8349:8983   */\n    tag_60:\n        /* \"#utility.yul\":8570:8574   */\n      0x00\n        /* \"#utility.yul\":8608:8610   */\n      0x40\n        /* \"#utility.yul\":8597:8606   */\n      dup3\n        /* \"#utility.yul\":8593:8611   */\n      add\n        /* \"#utility.yul\":8585:8611   */\n      swap1\n      pop\n        /* \"#utility.yul\":8657:8666   */\n      dup2\n        /* \"#utility.yul\":8651:8655   */\n      dup2\n        /* \"#utility.yul\":8647:8667   */\n      sub\n        /* \"#utility.yul\":8643:8644   */\n      0x00\n        /* \"#utility.yul\":8632:8641   */\n      dup4\n        /* \"#utility.yul\":8628:8645   */\n      add\n        /* \"#utility.yul\":8621:8668   */\n      mstore\n        /* \"#utility.yul\":8685:8793   */\n      tag_323\n        /* \"#utility.yul\":8788:8792   */\n      dup2\n        /* \"#utility.yul\":8779:8785   */\n      dup6\n        /* \"#utility.yul\":8685:8793   */\n      tag_204\n      jump\t// in\n    tag_323:\n        /* \"#utility.yul\":8677:8793   */\n      swap1\n      pop\n        /* \"#utility.yul\":8840:8849   */\n      dup2\n        /* \"#utility.yul\":8834:8838   */\n      dup2\n        /* \"#utility.yul\":8830:8850   */\n      sub\n        /* \"#utility.yul\":8825:8827   */\n      0x20\n        /* \"#utility.yul\":8814:8823   */\n      dup4\n        /* \"#utility.yul\":8810:8828   */\n      add\n        /* \"#utility.yul\":8803:8851   */\n      mstore\n        /* \"#utility.yul\":8868:8976   */\n      tag_324\n        /* \"#utility.yul\":8971:8975   */\n      dup2\n        /* \"#utility.yul\":8962:8968   */\n      dup5\n        /* \"#utility.yul\":8868:8976   */\n      tag_211\n      jump\t// in\n    tag_324:\n        /* \"#utility.yul\":8860:8976   */\n      swap1\n      pop\n        /* \"#utility.yul\":8349:8983   */\n      swap4\n      swap3\n      pop\n      pop\n      pop\n      jump\t// out\n        /* \"#utility.yul\":8989:9318   */\n    tag_67:\n        /* \"#utility.yul\":9048:9054   */\n      0x00\n        /* \"#utility.yul\":9097:9099   */\n      0x20\n        /* \"#utility.yul\":9085:9094   */\n      dup3\n        /* \"#utility.yul\":9076:9083   */\n      dup5\n        /* \"#utility.yul\":9072:9095   */\n      sub\n        /* \"#utility.yul\":9068:9100   */\n      slt\n        /* \"#utility.yul\":9065:9184   */\n      iszero\n      tag_326\n      jumpi\n        /* \"#utility.yul\":9103:9182   */\n      tag_327\n      tag_184\n      jump\t// in\n    tag_327:\n        /* \"#utility.yul\":9065:9184   */\n    tag_326:\n        /* \"#utility.yul\":9223:9224   */\n      0x00\n        /* \"#utility.yul\":9248:9301   */\n      tag_328\n        /* \"#utility.yul\":9293:9300   */\n      dup5\n        /* \"#utility.yul\":9284:9290   */\n      dup3\n        /* \"#utility.yul\":9273:9282   */\n      dup6\n        /* \"#utility.yul\":9269:9291   */\n      add\n        /* \"#utility.yul\":9248:9301   */\n      tag_192\n      jump\t// in\n    tag_328:\n        /* \"#utility.yul\":9238:9301   */\n      swap2\n      pop\n        /* \"#utility.yul\":9194:9311   */\n      pop\n        /* \"#utility.yul\":8989:9318   */\n      swap3\n      swap2\n      pop\n      pop\n      jump\t// out\n        /* \"#utility.yul\":9324:9798   */\n    tag_82:\n        /* \"#utility.yul\":9392:9398   */\n      0x00\n        /* \"#utility.yul\":9400:9406   */\n      0x00\n        /* \"#utility.yul\":9449:9451   */\n      0x40\n        /* \"#utility.yul\":9437:9446   */\n      dup4\n        /* \"#utility.yul\":9428:9435   */\n      dup6\n        /* \"#utility.yul\":9424:9447   */\n      sub\n        /* \"#utility.yul\":9420:9452   */\n      slt\n        /* \"#utility.yul\":9417:9536   */\n      iszero\n      tag_330\n      jumpi\n        /* \"#utility.yul\":9455:9534   */\n      tag_331\n      tag_184\n      jump\t// in\n    tag_331:\n        /* \"#utility.yul\":9417:9536   */\n    tag_330:\n        /* \"#utility.yul\":9575:9576   */\n      0x00\n        /* \"#utility.yul\":9600:9653   */\n      tag_332\n        /* \"#utility.yul\":9645:9652   */\n      dup6\n        /* \"#utility.yul\":9636:9642   */\n      dup3\n        /* \"#utility.yul\":9625:9634   */\n      dup7\n        /* \"#utility.yul\":9621:9643   */\n      add\n        /* \"#utility.yul\":9600:9653   */\n      tag_189\n      jump\t// in\n    tag_332:\n        /* \"#utility.yul\":9590:9653   */\n      swap3\n      pop\n        /* \"#utility.yul\":9546:9663   */\n      pop\n        /* \"#utility.yul\":9702:9704   */\n      0x20\n        /* \"#utility.yul\":9728:9781   */\n      tag_333\n        /* \"#utility.yul\":9773:9780   */\n      dup6\n        /* \"#utility.yul\":9764:9770   */\n      dup3\n        /* \"#utility.yul\":9753:9762   */\n      dup7\n        /* \"#utility.yul\":9749:9771   */\n      add\n        /* \"#utility.yul\":9728:9781   */\n      tag_189\n      jump\t// in\n    tag_333:\n        /* \"#utility.yul\":9718:9781   */\n      swap2\n      pop\n        /* \"#utility.yul\":9673:9791   */\n      pop\n        /* \"#utility.yul\":9324:9798   */\n      swap3\n      pop\n      swap3\n      swap1\n      pop\n      jump\t// out\n        /* \"#utility.yul\":9804:9922   */\n    tag_212:\n        /* \"#utility.yul\":9891:9915   */\n      tag_335\n        /* \"#utility.yul\":9909:9914   */\n      dup2\n        /* \"#utility.yul\":9891:9915   */\n      tag_187\n      jump\t// in\n    tag_335:\n        /* \"#utility.yul\":9886:9889   */\n      dup3\n        /* \"#utility.yul\":9879:9916   */\n      mstore\n        /* \"#utility.yul\":9804:9922   */\n      pop\n      pop\n      jump\t// out\n        /* \"#utility.yul\":9928:10150   */\n    tag_89:\n        /* \"#utility.yul\":10021:10025   */\n      0x00\n        /* \"#utility.yul\":10059:10061   */\n      0x20\n        /* \"#utility.yul\":10048:10057   */\n      dup3\n        /* \"#utility.yul\":10044:10062   */\n      add\n        /* \"#utility.yul\":10036:10062   */\n      swap1\n      pop\n        /* \"#utility.yul\":10072:10143   */\n      tag_337\n        /* \"#utility.yul\":10140:10141   */\n      0x00\n        /* \"#utility.yul\":10129:10138   */\n      dup4\n        /* \"#utility.yul\":10125:10142   */\n      add\n        /* \"#utility.yul\":10116:10122   */\n      dup5\n        /* \"#utility.yul\":10072:10143   */\n      tag_212\n      jump\t// in\n    tag_337:\n        /* \"#utility.yul\":9928:10150   */\n      swap3\n      swap2\n      pop\n      pop\n      jump\t// out\n        /* \"#utility.yul\":10156:10336   */\n    tag_102:\n        /* \"#utility.yul\":10204:10281   */\n      0x4e487b7100000000000000000000000000000000000000000000000000000000\n        /* \"#utility.yul\":10201:10202   */\n      0x00\n        /* \"#utility.yul\":10194:10282   */\n      mstore\n        /* \"#utility.yul\":10301:10305   */\n      0x41\n        /* \"#utility.yul\":10298:10299   */\n      0x04\n        /* \"#utility.yul\":10291:10306   */\n      mstore\n        /* \"#utility.yul\":10325:10329   */\n      0x24\n        /* \"#utility.yul\":10322:10323   */\n      0x00\n        /* \"#utility.yul\":10315:10330   */\n      revert\n        /* \"#utility.yul\":10342:10522   */\n    tag_112:\n        /* \"#utility.yul\":10390:10467   */\n      0x4e487b7100000000000000000000000000000000000000000000000000000000\n        /* \"#utility.yul\":10387:10388   */\n      0x00\n        /* \"#utility.yul\":10380:10468   */\n      mstore\n        /* \"#utility.yul\":10487:10491   */\n      0x32\n        /* \"#utility.yul\":10484:10485   */\n      0x04\n        /* \"#utility.yul\":10477:10492   */\n      mstore\n        /* \"#utility.yul\":10511:10515   */\n      0x24\n        /* \"#utility.yul\":10508:10509   */\n      0x00\n        /* \"#utility.yul\":10501:10516   */\n      revert\n        /* \"#utility.yul\":10528:10706   */\n    tag_213:\n        /* \"#utility.yul\":10668:10698   */\n      0x436f756e74206d7573742062652067726561746572207468616e203000000000\n        /* \"#utility.yul\":10664:10665   */\n      0x00\n        /* \"#utility.yul\":10656:10662   */\n      dup3\n        /* \"#utility.yul\":10652:10666   */\n      add\n        /* \"#utility.yul\":10645:10699   */\n      mstore\n        /* \"#utility.yul\":10528:10706   */\n      pop\n      jump\t// out\n        /* \"#utility.yul\":10712:11078   */\n    tag_214:\n        /* \"#utility.yul\":10854:10857   */\n      0x00\n        /* \"#utility.yul\":10875:10942   */\n      tag_342\n        /* \"#utility.yul\":10939:10941   */\n      0x1c\n        /* \"#utility.yul\":10934:10937   */\n      dup4\n        /* \"#utility.yul\":10875:10942   */\n      tag_179\n      jump\t// in\n    tag_342:\n        /* \"#utility.yul\":10868:10942   */\n      swap2\n      pop\n        /* \"#utility.yul\":10951:11044   */\n      tag_343\n        /* \"#utility.yul\":11040:11043   */\n      dup3\n        /* \"#utility.yul\":10951:11044   */\n      tag_213\n      jump\t// in\n    tag_343:\n        /* \"#utility.yul\":11069:11071   */\n      0x20\n        /* \"#utility.yul\":11064:11067   */\n      dup3\n        /* \"#utility.yul\":11060:11072   */\n      add\n        /* \"#utility.yul\":11053:11072   */\n      swap1\n      pop\n        /* \"#utility.yul\":10712:11078   */\n      swap2\n      swap1\n      pop\n      jump\t// out\n        /* \"#utility.yul\":11084:11503   */\n    tag_125:\n        /* \"#utility.yul\":11250:11254   */\n      0x00\n        /* \"#utility.yul\":11288:11290   */\n      0x20\n        /* \"#utility.yul\":11277:11286   */\n      dup3\n        /* \"#utility.yul\":11273:11291   */\n      add\n        /* \"#utility.yul\":11265:11291   */\n      swap1\n      pop\n        /* \"#utility.yul\":11337:11346   */\n      dup2\n        /* \"#utility.yul\":11331:11335   */\n      dup2\n        /* \"#utility.yul\":11327:11347   */\n      sub\n        /* \"#utility.yul\":11323:11324   */\n      0x00\n        /* \"#utility.yul\":11312:11321   */\n      dup4\n        /* \"#utility.yul\":11308:11325   */\n      add\n        /* \"#utility.yul\":11301:11348   */\n      mstore\n        /* \"#utility.yul\":11365:11496   */\n      tag_345\n        /* \"#utility.yul\":11491:11495   */\n      dup2\n        /* \"#utility.yul\":11365:11496   */\n      tag_214\n      jump\t// in\n    tag_345:\n        /* \"#utility.yul\":11357:11496   */\n      swap1\n      pop\n        /* \"#utility.yul\":11084:11503   */\n      swap2\n      swap1\n      pop\n      jump\t// out\n        /* \"#utility.yul\":11509:11689   */\n    tag_215:\n        /* \"#utility.yul\":11557:11634   */\n      0x4e487b7100000000000000000000000000000000000000000000000000000000\n        /* \"#utility.yul\":11554:11555   */\n      0x00\n        /* \"#utility.yul\":11547:11635   */\n      mstore\n        /* \"#utility.yul\":11654:11658   */\n      0x11\n        /* \"#utility.yul\":11651:11652   */\n      0x04\n        /* \"#utility.yul\":11644:11659   */\n      mstore\n        /* \"#utility.yul\":11678:11682   */\n      0x24\n        /* \"#utility.yul\":11675:11676   */\n      0x00\n        /* \"#utility.yul\":11668:11683   */\n      revert\n        /* \"#utility.yul\":11695:11886   */\n    tag_127:\n        /* \"#utility.yul\":11735:11738   */\n      0x00\n        /* \"#utility.yul\":11754:11774   */\n      tag_348\n        /* \"#utility.yul\":11772:11773   */\n      dup3\n        /* \"#utility.yul\":11754:11774   */\n      tag_190\n      jump\t// in\n    tag_348:\n        /* \"#utility.yul\":11749:11774   */\n      swap2\n      pop\n        /* \"#utility.yul\":11788:11808   */\n      tag_349\n        /* \"#utility.yul\":11806:11807   */\n      dup4\n        /* \"#utility.yul\":11788:11808   */\n      tag_190\n      jump\t// in\n    tag_349:\n        /* \"#utility.yul\":11783:11808   */\n      swap3\n      pop\n        /* \"#utility.yul\":11831:11832   */\n      dup3\n        /* \"#utility.yul\":11828:11829   */\n      dup3\n        /* \"#utility.yul\":11824:11833   */\n      add\n        /* \"#utility.yul\":11817:11833   */\n      swap1\n      pop\n        /* \"#utility.yul\":11852:11855   */\n      dup1\n        /* \"#utility.yul\":11849:11850   */\n      dup3\n        /* \"#utility.yul\":11846:11856   */\n      gt\n        /* \"#utility.yul\":11843:11879   */\n      iszero\n      tag_350\n      jumpi\n        /* \"#utility.yul\":11859:11877   */\n      tag_351\n      tag_215\n      jump\t// in\n    tag_351:\n        /* \"#utility.yul\":11843:11879   */\n    tag_350:\n        /* \"#utility.yul\":11695:11886   */\n      swap3\n      swap2\n      pop\n      pop\n      jump\t// out\n        /* \"#utility.yul\":11892:12224   */\n    tag_131:\n        /* \"#utility.yul\":12013:12017   */\n      0x00\n        /* \"#utility.yul\":12051:12053   */\n      0x40\n        /* \"#utility.yul\":12040:12049   */\n      dup3\n        /* \"#utility.yul\":12036:12054   */\n      add\n        /* \"#utility.yul\":12028:12054   */\n      swap1\n      pop\n        /* \"#utility.yul\":12064:12135   */\n      tag_353\n        /* \"#utility.yul\":12132:12133   */\n      0x00\n        /* \"#utility.yul\":12121:12130   */\n      dup4\n        /* \"#utility.yul\":12117:12134   */\n      add\n        /* \"#utility.yul\":12108:12114   */\n      dup6\n        /* \"#utility.yul\":12064:12135   */\n      tag_195\n      jump\t// in\n    tag_353:\n        /* \"#utility.yul\":12145:12217   */\n      tag_354\n        /* \"#utility.yul\":12213:12215   */\n      0x20\n        /* \"#utility.yul\":12202:12211   */\n      dup4\n        /* \"#utility.yul\":12198:12216   */\n      add\n        /* \"#utility.yul\":12189:12195   */\n      dup5\n        /* \"#utility.yul\":12145:12217   */\n      tag_195\n      jump\t// in\n    tag_354:\n        /* \"#utility.yul\":11892:12224   */\n      swap4\n      swap3\n      pop\n      pop\n      pop\n      jump\t// out\n        /* \"#utility.yul\":12230:12640   */\n    tag_133:\n        /* \"#utility.yul\":12270:12277   */\n      0x00\n        /* \"#utility.yul\":12293:12313   */\n      tag_356\n        /* \"#utility.yul\":12311:12312   */\n      dup3\n        /* \"#utility.yul\":12293:12313   */\n      tag_190\n      jump\t// in\n    tag_356:\n        /* \"#utility.yul\":12288:12313   */\n      swap2\n      pop\n        /* \"#utility.yul\":12327:12347   */\n      tag_357\n        /* \"#utility.yul\":12345:12346   */\n      dup4\n        /* \"#utility.yul\":12327:12347   */\n      tag_190\n      jump\t// in\n    tag_357:\n        /* \"#utility.yul\":12322:12347   */\n      swap3\n      pop\n        /* \"#utility.yul\":12382:12383   */\n      dup3\n        /* \"#utility.yul\":12379:12380   */\n      dup3\n        /* \"#utility.yul\":12375:12384   */\n      mul\n        /* \"#utility.yul\":12404:12434   */\n      tag_358\n        /* \"#utility.yul\":12422:12433   */\n      dup2\n        /* \"#utility.yul\":12404:12434   */\n      tag_190\n      jump\t// in\n    tag_358:\n        /* \"#utility.yul\":12393:12434   */\n      swap2\n      pop\n        /* \"#utility.yul\":12583:12584   */\n      dup3\n        /* \"#utility.yul\":12574:12581   */\n      dup3\n        /* \"#utility.yul\":12570:12585   */\n      div\n        /* \"#utility.yul\":12567:12568   */\n      dup5\n        /* \"#utility.yul\":12564:12586   */\n      eq\n        /* \"#utility.yul\":12544:12545   */\n      dup4\n        /* \"#utility.yul\":12537:12546   */\n      iszero\n        /* \"#utility.yul\":12517:12600   */\n      or\n        /* \"#utility.yul\":12494:12633   */\n      tag_359\n      jumpi\n        /* \"#utility.yul\":12613:12631   */\n      tag_360\n      tag_215\n      jump\t// in\n    tag_360:\n        /* \"#utility.yul\":12494:12633   */\n    tag_359:\n        /* \"#utility.yul\":12278:12640   */\n      pop\n        /* \"#utility.yul\":12230:12640   */\n      swap3\n      swap2\n      pop\n      pop\n      jump\t// out\n        /* \"#utility.yul\":12646:12821   */\n    tag_216:\n        /* \"#utility.yul\":12786:12813   */\n      0x417070726f76652066726f6d207a65726f206164647265737300000000000000\n        /* \"#utility.yul\":12782:12783   */\n      0x00\n        /* \"#utility.yul\":12774:12780   */\n      dup3\n        /* \"#utility.yul\":12770:12784   */\n      add\n        /* \"#utility.yul\":12763:12814   */\n      mstore\n        /* \"#utility.yul\":12646:12821   */\n      pop\n      jump\t// out\n        /* \"#utility.yul\":12827:13193   */\n    tag_217:\n        /* \"#utility.yul\":12969:12972   */\n      0x00\n        /* \"#utility.yul\":12990:13057   */\n      tag_363\n        /* \"#utility.yul\":13054:13056   */\n      0x19\n        /* \"#utility.yul\":13049:13052   */\n      dup4\n        /* \"#utility.yul\":12990:13057   */\n      tag_179\n      jump\t// in\n    tag_363:\n        /* \"#utility.yul\":12983:13057   */\n      swap2\n      pop\n        /* \"#utility.yul\":13066:13159   */\n      tag_364\n        /* \"#utility.yul\":13155:13158   */\n      dup3\n        /* \"#utility.yul\":13066:13159   */\n      tag_216\n      jump\t// in\n    tag_364:\n        /* \"#utility.yul\":13184:13186   */\n      0x20\n        /* \"#utility.yul\":13179:13182   */\n      dup3\n        /* \"#utility.yul\":13175:13187   */\n      add\n        /* \"#utility.yul\":13168:13187   */\n      swap1\n      pop\n        /* \"#utility.yul\":12827:13193   */\n      swap2\n      swap1\n      pop\n      jump\t// out\n        /* \"#utility.yul\":13199:13618   */\n    tag_144:\n        /* \"#utility.yul\":13365:13369   */\n      0x00\n        /* \"#utility.yul\":13403:13405   */\n      0x20\n        /* \"#utility.yul\":13392:13401   */\n      dup3\n        /* \"#utility.yul\":13388:13406   */\n      add\n        /* \"#utility.yul\":13380:13406   */\n      swap1\n      pop\n        /* \"#utility.yul\":13452:13461   */\n      dup2\n        /* \"#utility.yul\":13446:13450   */\n      dup2\n        /* \"#utility.yul\":13442:13462   */\n      sub\n        /* \"#utility.yul\":13438:13439   */\n      0x00\n        /* \"#utility.yul\":13427:13436   */\n      dup4\n        /* \"#utility.yul\":13423:13440   */\n      add\n        /* \"#utility.yul\":13416:13463   */\n      mstore\n        /* \"#utility.yul\":13480:13611   */\n      tag_366\n        /* \"#utility.yul\":13606:13610   */\n      dup2\n        /* \"#utility.yul\":13480:13611   */\n      tag_217\n      jump\t// in\n    tag_366:\n        /* \"#utility.yul\":13472:13611   */\n      swap1\n      pop\n        /* \"#utility.yul\":13199:13618   */\n      swap2\n      swap1\n      pop\n      jump\t// out\n        /* \"#utility.yul\":13624:13797   */\n    tag_218:\n        /* \"#utility.yul\":13764:13789   */\n      0x417070726f766520746f207a65726f2061646472657373000000000000000000\n        /* \"#utility.yul\":13760:13761   */\n      0x00\n        /* \"#utility.yul\":13752:13758   */\n      dup3\n        /* \"#utility.yul\":13748:13762   */\n      add\n        /* \"#utility.yul\":13741:13790   */\n      mstore\n        /* \"#utility.yul\":13624:13797   */\n      pop\n      jump\t// out\n        /* \"#utility.yul\":13803:14169   */\n    tag_219:\n        /* \"#utility.yul\":13945:13948   */\n      0x00\n        /* \"#utility.yul\":13966:14033   */\n      tag_369\n        /* \"#utility.yul\":14030:14032   */\n      0x17\n        /* \"#utility.yul\":14025:14028   */\n      dup4\n        /* \"#utility.yul\":13966:14033   */\n      tag_179\n      jump\t// in\n    tag_369:\n        /* \"#utility.yul\":13959:14033   */\n      swap2\n      pop\n        /* \"#utility.yul\":14042:14135   */\n      tag_370\n        /* \"#utility.yul\":14131:14134   */\n      dup3\n        /* \"#utility.yul\":14042:14135   */\n      tag_218\n      jump\t// in\n    tag_370:\n        /* \"#utility.yul\":14160:14162   */\n      0x20\n        /* \"#utility.yul\":14155:14158   */\n      dup3\n        /* \"#utility.yul\":14151:14163   */\n      add\n        /* \"#utility.yul\":14144:14163   */\n      swap1\n      pop\n        /* \"#utility.yul\":13803:14169   */\n      swap2\n      swap1\n      pop\n      jump\t// out\n        /* \"#utility.yul\":14175:14594   */\n    tag_147:\n        /* \"#utility.yul\":14341:14345   */\n      0x00\n        /* \"#utility.yul\":14379:14381   */\n      0x20\n        /* \"#utility.yul\":14368:14377   */\n      dup3\n        /* \"#utility.yul\":14364:14382   */\n      add\n        /* \"#utility.yul\":14356:14382   */\n      swap1\n      pop\n        /* \"#utility.yul\":14428:14437   */\n      dup2\n        /* \"#utility.yul\":14422:14426   */\n      dup2\n        /* \"#utility.yul\":14418:14438   */\n      sub\n        /* \"#utility.yul\":14414:14415   */\n      0x00\n        /* \"#utility.yul\":14403:14412   */\n      dup4\n        /* \"#utility.yul\":14399:14416   */\n      add\n        /* \"#utility.yul\":14392:14439   */\n      mstore\n        /* \"#utility.yul\":14456:14587   */\n      tag_372\n        /* \"#utility.yul\":14582:14586   */\n      dup2\n        /* \"#utility.yul\":14456:14587   */\n      tag_219\n      jump\t// in\n    tag_372:\n        /* \"#utility.yul\":14448:14587   */\n      swap1\n      pop\n        /* \"#utility.yul\":14175:14594   */\n      swap2\n      swap1\n      pop\n      jump\t// out\n        /* \"#utility.yul\":14600:14772   */\n    tag_220:\n        /* \"#utility.yul\":14740:14764   */\n      0x496e73756666696369656e7420616c6c6f77616e636500000000000000000000\n        /* \"#utility.yul\":14736:14737   */\n      0x00\n        /* \"#utility.yul\":14728:14734   */\n      dup3\n        /* \"#utility.yul\":14724:14738   */\n      add\n        /* \"#utility.yul\":14717:14765   */\n      mstore\n        /* \"#utility.yul\":14600:14772   */\n      pop\n      jump\t// out\n        /* \"#utility.yul\":14778:15144   */\n    tag_221:\n        /* \"#utility.yul\":14920:14923   */\n      0x00\n        /* \"#utility.yul\":14941:15008   */\n      tag_375\n        /* \"#utility.yul\":15005:15007   */\n      0x16\n        /* \"#utility.yul\":15000:15003   */\n      dup4\n        /* \"#utility.yul\":14941:15008   */\n      tag_179\n      jump\t// in\n    tag_375:\n        /* \"#utility.yul\":14934:15008   */\n      swap2\n      pop\n        /* \"#utility.yul\":15017:15110   */\n      tag_376\n        /* \"#utility.yul\":15106:15109   */\n      dup3\n        /* \"#utility.yul\":15017:15110   */\n      tag_220\n      jump\t// in\n    tag_376:\n        /* \"#utility.yul\":15135:15137   */\n      0x20\n        /* \"#utility.yul\":15130:15133   */\n      dup3\n        /* \"#utility.yul\":15126:15138   */\n      add\n        /* \"#utility.yul\":15119:15138   */\n      swap1\n      pop\n        /* \"#utility.yul\":14778:15144   */\n      swap2\n      swap1\n      pop\n      jump\t// out\n        /* \"#utility.yul\":15150:15569   */\n    tag_154:\n        /* \"#utility.yul\":15316:15320   */\n      0x00\n        /* \"#utility.yul\":15354:15356   */\n      0x20\n        /* \"#utility.yul\":15343:15352   */\n      dup3\n        /* \"#utility.yul\":15339:15357   */\n      add\n        /* \"#utility.yul\":15331:15357   */\n      swap1\n      pop\n        /* \"#utility.yul\":15403:15412   */\n      dup2\n        /* \"#utility.yul\":15397:15401   */\n      dup2\n        /* \"#utility.yul\":15393:15413   */\n      sub\n        /* \"#utility.yul\":15389:15390   */\n      0x00\n        /* \"#utility.yul\":15378:15387   */\n      dup4\n        /* \"#utility.yul\":15374:15391   */\n      add\n        /* \"#utility.yul\":15367:15414   */\n      mstore\n        /* \"#utility.yul\":15431:15562   */\n      tag_378\n        /* \"#utility.yul\":15557:15561   */\n      dup2\n        /* \"#utility.yul\":15431:15562   */\n      tag_221\n      jump\t// in\n    tag_378:\n        /* \"#utility.yul\":15423:15562   */\n      swap1\n      pop\n        /* \"#utility.yul\":15150:15569   */\n      swap2\n      swap1\n      pop\n      jump\t// out\n        /* \"#utility.yul\":15575:15769   */\n    tag_157:\n        /* \"#utility.yul\":15615:15619   */\n      0x00\n        /* \"#utility.yul\":15635:15655   */\n      tag_380\n        /* \"#utility.yul\":15653:15654   */\n      dup3\n        /* \"#utility.yul\":15635:15655   */\n      tag_190\n      jump\t// in\n    tag_380:\n        /* \"#utility.yul\":15630:15655   */\n      swap2\n      pop\n        /* \"#utility.yul\":15669:15689   */\n      tag_381\n        /* \"#utility.yul\":15687:15688   */\n      dup4\n        /* \"#utility.yul\":15669:15689   */\n      tag_190\n      jump\t// in\n    tag_381:\n        /* \"#utility.yul\":15664:15689   */\n      swap3\n      pop\n        /* \"#utility.yul\":15713:15714   */\n      dup3\n        /* \"#utility.yul\":15710:15711   */\n      dup3\n        /* \"#utility.yul\":15706:15715   */\n      sub\n        /* \"#utility.yul\":15698:15715   */\n      swap1\n      pop\n        /* \"#utility.yul\":15737:15738   */\n      dup2\n        /* \"#utility.yul\":15731:15735   */\n      dup2\n        /* \"#utility.yul\":15728:15739   */\n      gt\n        /* \"#utility.yul\":15725:15762   */\n      iszero\n      tag_382\n      jumpi\n        /* \"#utility.yul\":15742:15760   */\n      tag_383\n      tag_215\n      jump\t// in\n    tag_383:\n        /* \"#utility.yul\":15725:15762   */\n    tag_382:\n        /* \"#utility.yul\":15575:15769   */\n      swap3\n      swap2\n      pop\n      pop\n      jump\t// out\n        /* \"#utility.yul\":15775:15951   */\n    tag_222:\n        /* \"#utility.yul\":15915:15943   */\n      0x5472616e736665722066726f6d207a65726f2061646472657373000000000000\n        /* \"#utility.yul\":15911:15912   */\n      0x00\n        /* \"#utility.yul\":15903:15909   */\n      dup3\n        /* \"#utility.yul\":15899:15913   */\n      add\n        /* \"#utility.yul\":15892:15944   */\n      mstore\n        /* \"#utility.yul\":15775:15951   */\n      pop\n      jump\t// out\n        /* \"#utility.yul\":15957:16323   */\n    tag_223:\n        /* \"#utility.yul\":16099:16102   */\n      0x00\n        /* \"#utility.yul\":16120:16187   */\n      tag_386\n        /* \"#utility.yul\":16184:16186   */\n      0x1a\n        /* \"#utility.yul\":16179:16182   */\n      dup4\n        /* \"#utility.yul\":16120:16187   */\n      tag_179\n      jump\t// in\n    tag_386:\n        /* \"#utility.yul\":16113:16187   */\n      swap2\n      pop\n        /* \"#utility.yul\":16196:16289   */\n      tag_387\n        /* \"#utility.yul\":16285:16288   */\n      dup3\n        /* \"#utility.yul\":16196:16289   */\n      tag_222\n      jump\t// in\n    tag_387:\n        /* \"#utility.yul\":16314:16316   */\n      0x20\n        /* \"#utility.yul\":16309:16312   */\n      dup3\n        /* \"#utility.yul\":16305:16317   */\n      add\n        /* \"#utility.yul\":16298:16317   */\n      swap1\n      pop\n        /* \"#utility.yul\":15957:16323   */\n      swap2\n      swap1\n      pop\n      jump\t// out\n        /* \"#utility.yul\":16329:16748   */\n    tag_161:\n        /* \"#utility.yul\":16495:16499   */\n      0x00\n        /* \"#utility.yul\":16533:16535   */\n      0x20\n        /* \"#utility.yul\":16522:16531   */\n      dup3\n        /* \"#utility.yul\":16518:16536   */\n      add\n        /* \"#utility.yul\":16510:16536   */\n      swap1\n      pop\n        /* \"#utility.yul\":16582:16591   */\n      dup2\n        /* \"#utility.yul\":16576:16580   */\n      dup2\n        /* \"#utility.yul\":16572:16592   */\n      sub\n        /* \"#utility.yul\":16568:16569   */\n      0x00\n        /* \"#utility.yul\":16557:16566   */\n      dup4\n        /* \"#utility.yul\":16553:16570   */\n      add\n        /* \"#utility.yul\":16546:16593   */\n      mstore\n        /* \"#utility.yul\":16610:16741   */\n      tag_389\n        /* \"#utility.yul\":16736:16740   */\n      dup2\n        /* \"#utility.yul\":16610:16741   */\n      tag_223\n      jump\t// in\n    tag_389:\n        /* \"#utility.yul\":16602:16741   */\n      swap1\n      pop\n        /* \"#utility.yul\":16329:16748   */\n      swap2\n      swap1\n      pop\n      jump\t// out\n        /* \"#utility.yul\":16754:16928   */\n    tag_224:\n        /* \"#utility.yul\":16894:16920   */\n      0x5472616e7366657220746f207a65726f20616464726573730000000000000000\n        /* \"#utility.yul\":16890:16891   */\n      0x00\n        /* \"#utility.yul\":16882:16888   */\n      dup3\n        /* \"#utility.yul\":16878:16892   */\n      add\n        /* \"#utility.yul\":16871:16921   */\n      mstore\n        /* \"#utility.yul\":16754:16928   */\n      pop\n      jump\t// out\n        /* \"#utility.yul\":16934:17300   */\n    tag_225:\n        /* \"#utility.yul\":17076:17079   */\n      0x00\n        /* \"#utility.yul\":17097:17164   */\n      tag_392\n        /* \"#utility.yul\":17161:17163   */\n      0x18\n        /* \"#utility.yul\":17156:17159   */\n      dup4\n        /* \"#utility.yul\":17097:17164   */\n      tag_179\n      jump\t// in\n    tag_392:\n        /* \"#utility.yul\":17090:17164   */\n      swap2\n      pop\n        /* \"#utility.yul\":17173:17266   */\n      tag_393\n        /* \"#utility.yul\":17262:17265   */\n      dup3\n        /* \"#utility.yul\":17173:17266   */\n      tag_224\n      jump\t// in\n    tag_393:\n        /* \"#utility.yul\":17291:17293   */\n      0x20\n        /* \"#utility.yul\":17286:17289   */\n      dup3\n        /* \"#utility.yul\":17282:17294   */\n      add\n        /* \"#utility.yul\":17275:17294   */\n      swap1\n      pop\n        /* \"#utility.yul\":16934:17300   */\n      swap2\n      swap1\n      pop\n      jump\t// out\n        /* \"#utility.yul\":17306:17725   */\n    tag_164:\n        /* \"#utility.yul\":17472:17476   */\n      0x00\n        /* \"#utility.yul\":17510:17512   */\n      0x20\n        /* \"#utility.yul\":17499:17508   */\n      dup3\n        /* \"#utility.yul\":17495:17513   */\n      add\n        /* \"#utility.yul\":17487:17513   */\n      swap1\n      pop\n        /* \"#utility.yul\":17559:17568   */\n      dup2\n        /* \"#utility.yul\":17553:17557   */\n      dup2\n        /* \"#utility.yul\":17549:17569   */\n      sub\n        /* \"#utility.yul\":17545:17546   */\n      0x00\n        /* \"#utility.yul\":17534:17543   */\n      dup4\n        /* \"#utility.yul\":17530:17547   */\n      add\n        /* \"#utility.yul\":17523:17570   */\n      mstore\n        /* \"#utility.yul\":17587:17718   */\n      tag_395\n        /* \"#utility.yul\":17713:17717   */\n      dup2\n        /* \"#utility.yul\":17587:17718   */\n      tag_225\n      jump\t// in\n    tag_395:\n        /* \"#utility.yul\":17579:17718   */\n      swap1\n      pop\n        /* \"#utility.yul\":17306:17725   */\n      swap2\n      swap1\n      pop\n      jump\t// out\n        /* \"#utility.yul\":17731:17901   */\n    tag_226:\n        /* \"#utility.yul\":17871:17893   */\n      0x496e73756666696369656e742062616c616e6365000000000000000000000000\n        /* \"#utility.yul\":17867:17868   */\n      0x00\n        /* \"#utility.yul\":17859:17865   */\n      dup3\n        /* \"#utility.yul\":17855:17869   */\n      add\n        /* \"#utility.yul\":17848:17894   */\n      mstore\n        /* \"#utility.yul\":17731:17901   */\n      pop\n      jump\t// out\n        /* \"#utility.yul\":17907:18273   */\n    tag_227:\n        /* \"#utility.yul\":18049:18052   */\n      0x00\n        /* \"#utility.yul\":18070:18137   */\n      tag_398\n        /* \"#utility.yul\":18134:18136   */\n      0x14\n        /* \"#utility.yul\":18129:18132   */\n      dup4\n        /* \"#utility.yul\":18070:18137   */\n      tag_179\n      jump\t// in\n    tag_398:\n        /* \"#utility.yul\":18063:18137   */\n      swap2\n      pop\n        /* \"#utility.yul\":18146:18239   */\n      tag_399\n        /* \"#utility.yul\":18235:18238   */\n      dup3\n        /* \"#utility.yul\":18146:18239   */\n      tag_226\n      jump\t// in\n    tag_399:\n        /* \"#utility.yul\":18264:18266   */\n      0x20\n        /* \"#utility.yul\":18259:18262   */\n      dup3\n        /* \"#utility.yul\":18255:18267   */\n      add\n        /* \"#utility.yul\":18248:18267   */\n      swap1\n      pop\n        /* \"#utility.yul\":17907:18273   */\n      swap2\n      swap1\n      pop\n      jump\t// out\n        /* \"#utility.yul\":18279:18698   */\n    tag_167:\n        /* \"#utility.yul\":18445:18449   */\n      0x00\n        /* \"#utility.yul\":18483:18485   */\n      0x20\n        /* \"#utility.yul\":18472:18481   */\n      dup3\n        /* \"#utility.yul\":18468:18486   */\n      add\n        /* \"#utility.yul\":18460:18486   */\n      swap1\n      pop\n        /* \"#utility.yul\":18532:18541   */\n      dup2\n        /* \"#utility.yul\":18526:18530   */\n      dup2\n        /* \"#utility.yul\":18522:18542   */\n      sub\n        /* \"#utility.yul\":18518:18519   */\n      0x00\n        /* \"#utility.yul\":18507:18516   */\n      dup4\n        /* \"#utility.yul\":18503:18520   */\n      add\n        /* \"#utility.yul\":18496:18543   */\n      mstore\n        /* \"#utility.yul\":18560:18691   */\n      tag_401\n        /* \"#utility.yul\":18686:18690   */\n      dup2\n        /* \"#utility.yul\":18560:18691   */\n      tag_227\n      jump\t// in\n    tag_401:\n        /* \"#utility.yul\":18552:18691   */\n      swap1\n      pop\n        /* \"#utility.yul\":18279:18698   */\n      swap2\n      swap1\n      pop\n      jump\t// out\n        /* \"#utility.yul\":18704:18874   */\n    tag_228:\n        /* \"#utility.yul\":18844:18866   */\n      0x4d696e7420746f207a65726f2061646472657373000000000000000000000000\n        /* \"#utility.yul\":18840:18841   */\n      0x00\n        /* \"#utility.yul\":18832:18838   */\n      dup3\n        /* \"#utility.yul\":18828:18842   */\n      add\n        /* \"#utility.yul\":18821:18867   */\n      mstore\n        /* \"#utility.yul\":18704:18874   */\n      pop\n      jump\t// out\n        /* \"#utility.yul\":18880:19246   */\n    tag_229:\n        /* \"#utility.yul\":19022:19025   */\n      0x00\n        /* \"#utility.yul\":19043:19110   */\n      tag_404\n        /* \"#utility.yul\":19107:19109   */\n      0x14\n        /* \"#utility.yul\":19102:19105   */\n      dup4\n        /* \"#utility.yul\":19043:19110   */\n      tag_179\n      jump\t// in\n    tag_404:\n        /* \"#utility.yul\":19036:19110   */\n      swap2\n      pop\n        /* \"#utility.yul\":19119:19212   */\n      tag_405\n        /* \"#utility.yul\":19208:19211   */\n      dup3\n        /* \"#utility.yul\":19119:19212   */\n      tag_228\n      jump\t// in\n    tag_405:\n        /* \"#utility.yul\":19237:19239   */\n      0x20\n        /* \"#utility.yul\":19232:19235   */\n      dup3\n        /* \"#utility.yul\":19228:19240   */\n      add\n        /* \"#utility.yul\":19221:19240   */\n      swap1\n      pop\n        /* \"#utility.yul\":18880:19246   */\n      swap2\n      swap1\n      pop\n      jump\t// out\n        /* \"#utility.yul\":19252:19671   */\n    tag_174:\n        /* \"#utility.yul\":19418:19422   */\n      0x00\n        /* \"#utility.yul\":19456:19458   */\n      0x20\n        /* \"#utility.yul\":19445:19454   */\n      dup3\n        /* \"#utility.yul\":19441:19459   */\n      add\n        /* \"#utility.yul\":19433:19459   */\n      swap1\n      pop\n        /* \"#utility.yul\":19505:19514   */\n      dup2\n        /* \"#utility.yul\":19499:19503   */\n      dup2\n        /* \"#utility.yul\":19495:19515   */\n      sub\n        /* \"#utility.yul\":19491:19492   */\n      0x00\n        /* \"#utility.yul\":19480:19489   */\n      dup4\n        /* \"#utility.yul\":19476:19493   */\n      add\n        /* \"#utility.yul\":19469:19516   */\n      mstore\n        /* \"#utility.yul\":19533:19664   */\n      tag_407\n        /* \"#utility.yul\":19659:19663   */\n      dup2\n        /* \"#utility.yul\":19533:19664   */\n      tag_229\n      jump\t// in\n    tag_407:\n        /* \"#utility.yul\":19525:19664   */\n      swap1\n      pop\n        /* \"#utility.yul\":19252:19671   */\n      swap2\n      swap1\n      pop\n      jump\t// out\n\n    auxdata: 0xa26469706673582212207c7194c59f5696cfcce71cee8b9d9f94a8f9a3a5edd3ab039962835a705b385964736f6c634300081f0033\n}\n",
				"bytecode": {
					"linkReferences": {},
					"object": "6080604052348015600e575f5ffd5b506119788061001c5f395ff3fe608060405234801561000f575f5ffd5b50600436106100fe575f3560e01c80636d763a6e1161009557806395d89b411161006457806395d89b41146102d5578063a9059cbb146102f3578063dd62ed3e14610323578063f71d96cb14610353576100fe565b80636d763a6e1461023a57806370a0823114610259578063786c2e68146102895780637c2bb719146102a5576100fe565b80632373580e116100d15780632373580e1461018c57806323b872dd146101bc578063313ce567146101ec57806332d0bbe31461020a576100fe565b806306fdde0314610102578063095ea7b3146101205780631101dc3d1461015057806318160ddd1461016e575b5f5ffd5b61010a610383565b6040516101179190611080565b60405180910390f35b61013a60048036038101906101359190611131565b6103bc565b6040516101479190611189565b60405180910390f35b6101586103d2565b60405161016591906111b1565b60405180910390f35b6101766103de565b60405161018391906111b1565b60405180910390f35b6101a660048036038101906101a191906111ca565b6103e3565b6040516101b391906111b1565b60405180910390f35b6101d660048036038101906101d191906111f5565b610429565b6040516101e39190611189565b60405180910390f35b6101f461044b565b6040516102019190611260565b60405180910390f35b610224600480360381019061021f91906111ca565b610450565b6040516102319190611189565b60405180910390f35b61024261046d565b6040516102509291906113e7565b60405180910390f35b610273600480360381019061026e91906111ca565b61065a565b60405161028091906111b1565b60405180910390f35b6102a3600480360381019061029e919061141c565b6106a0565b005b6102bf60048036038101906102ba91906111ca565b6108eb565b6040516102cc91906111b1565b60405180910390f35b6102dd610900565b6040516102ea9190611080565b60405180910390f35b61030d60048036038101906103089190611131565b610939565b60405161031a9190611189565b60405180910390f35b61033d60048036038101906103389190611447565b61094f565b60405161034a91906111b1565b60405180910390f35b61036d6004803603810190610368919061141c565b6109d1565b60405161037a9190611494565b60405180910390f35b6040518060400160405280600a81526020017f436c69636b546f6b656e0000000000000000000000000000000000000000000081525081565b5f6103c8338484610a0c565b6001905092915050565b670de0b6b3a764000081565b5f5481565b5f60015f8373ffffffffffffffffffffffffffffffffffffffff1673ffffffffffffffffffffffffffffffffffffffff1681526020019081526020015f20549050919050565b5f610435843384610bcf565b610440848484610c63565b600190509392505050565b601281565b6003602052805f5260405f205f915054906101000a900460ff1681565b6060805f60028054905090505f8167ffffffffffffffff811115610494576104936114ad565b5b6040519080825280602002602001820160405280156104c25781602001602082028036833780820191505090505b5090505f8267ffffffffffffffff8111156104e0576104df6114ad565b5b60405190808252806020026020018201604052801561050e5781602001602082028036833780820191505090505b5090505f5f90505b8381101561064c5760028181548110610532576105316114da565b5b905f5260205f20015f9054906101000a900473ffffffffffffffffffffffffffffffffffffffff1683828151811061056d5761056c6114da565b5b602002602001019073ffffffffffffffffffffffffffffffffffffffff16908173ffffffffffffffffffffffffffffffffffffffff168152505060015f600283815481106105be576105bd6114da565b5b905f5260205f20015f9054906101000a900473ffffffffffffffffffffffffffffffffffffffff1673ffffffffffffffffffffffffffffffffffffffff1673ffffffffffffffffffffffffffffffffffffffff1681526020019081526020015f2054828281518110610633576106326114da565b5b6020026020010181815250508080600101915050610516565b508181945094505050509091565b5f60045f8373ffffffffffffffffffffffffffffffffffffffff1673ffffffffffffffffffffffffffffffffffffffff1681526020019081526020015f20549050919050565b5f81116106e2576040517f08c379a00000000000000000000000000000000000000000000000000000000081526004016106d990611551565b60405180910390fd5b8060015f3373ffffffffffffffffffffffffffffffffffffffff1673ffffffffffffffffffffffffffffffffffffffff1681526020019081526020015f205f82825461072e919061159c565b9250508190555060035f3373ffffffffffffffffffffffffffffffffffffffff1673ffffffffffffffffffffffffffffffffffffffff1681526020019081526020015f205f9054906101000a900460ff1661083957600160035f3373ffffffffffffffffffffffffffffffffffffffff1673ffffffffffffffffffffffffffffffffffffffff1681526020019081526020015f205f6101000a81548160ff021916908315150217905550600233908060018154018082558091505060019003905f5260205f20015f9091909190916101000a81548173ffffffffffffffffffffffffffffffffffffffff021916908373ffffffffffffffffffffffffffffffffffffffff1602179055505b3373ffffffffffffffffffffffffffffffffffffffff167f98a3c470ec7dec38a342cc8c873d0594e0911eeea8004e2af3ef1d66f01fdaab60015f3373ffffffffffffffffffffffffffffffffffffffff1673ffffffffffffffffffffffffffffffffffffffff1681526020019081526020015f2054836040516108be9291906115cf565b60405180910390a25f670de0b6b3a7640000826108db91906115f6565b90506108e73382610ecf565b5050565b6001602052805f5260405f205f915090505481565b6040518060400160405280600381526020017f434c4b000000000000000000000000000000000000000000000000000000000081525081565b5f610945338484610c63565b6001905092915050565b5f60055f8473ffffffffffffffffffffffffffffffffffffffff1673ffffffffffffffffffffffffffffffffffffffff1681526020019081526020015f205f8373ffffffffffffffffffffffffffffffffffffffff1673ffffffffffffffffffffffffffffffffffffffff1681526020019081526020015f2054905092915050565b600281815481106109e0575f80fd5b905f5260205f20015f915054906101000a900473ffffffffffffffffffffffffffffffffffffffff1681565b5f73ffffffffffffffffffffffffffffffffffffffff168373ffffffffffffffffffffffffffffffffffffffff1603610a7a576040517f08c379a0000000000000000000000000000000000000000000000000000000008152600401610a7190611681565b60405180910390fd5b5f73ffffffffffffffffffffffffffffffffffffffff168273ffffffffffffffffffffffffffffffffffffffff1603610ae8576040517f08c379a0000000000000000000000000000000000000000000000000000000008152600401610adf906116e9565b60405180910390fd5b8060055f8573ffffffffffffffffffffffffffffffffffffffff1673ffffffffffffffffffffffffffffffffffffffff1681526020019081526020015f205f8473ffffffffffffffffffffffffffffffffffffffff1673ffffffffffffffffffffffffffffffffffffffff1681526020019081526020015f20819055508173ffffffffffffffffffffffffffffffffffffffff168373ffffffffffffffffffffffffffffffffffffffff167f8c5be1e5ebec7d5bd14f71427d1e84f3dd0314c0f7b2291e5b200ac8c7c3b92583604051610bc291906111b1565b60405180910390a3505050565b5f610bda848461094f565b90507fffffffffffffffffffffffffffffffffffffffffffffffffffffffffffffffff8114610c5d5781811015610c46576040517f08c379a0000000000000000000000000000000000000000000000000000000008152600401610c3d90611751565b60405180910390fd5b610c5c84848484610c57919061176f565b610a0c565b5b50505050565b5f73ffffffffffffffffffffffffffffffffffffffff168373ffffffffffffffffffffffffffffffffffffffff1603610cd1576040517f08c379a0000000000000000000000000000000000000000000000000000000008152600401610cc8906117ec565b60405180910390fd5b5f73ffffffffffffffffffffffffffffffffffffffff168273ffffffffffffffffffffffffffffffffffffffff1603610d3f576040517f08c379a0000000000000000000000000000000000000000000000000000000008152600401610d3690611854565b60405180910390fd5b8060045f8573ffffffffffffffffffffffffffffffffffffffff1673ffffffffffffffffffffffffffffffffffffffff1681526020019081526020015f20541015610dbf576040517f08c379a0000000000000000000000000000000000000000000000000000000008152600401610db6906118bc565b60405180910390fd5b8060045f8573ffffffffffffffffffffffffffffffffffffffff1673ffffffffffffffffffffffffffffffffffffffff1681526020019081526020015f205f828254610e0b919061176f565b925050819055508060045f8473ffffffffffffffffffffffffffffffffffffffff1673ffffffffffffffffffffffffffffffffffffffff1681526020019081526020015f205f828254610e5e919061159c565b925050819055508173ffffffffffffffffffffffffffffffffffffffff168373ffffffffffffffffffffffffffffffffffffffff167fddf252ad1be2c89b69c2b068fc378daa952ba7f163c4a11628f55a4df523b3ef83604051610ec291906111b1565b60405180910390a3505050565b5f73ffffffffffffffffffffffffffffffffffffffff168273ffffffffffffffffffffffffffffffffffffffff1603610f3d576040517f08c379a0000000000000000000000000000000000000000000000000000000008152600401610f3490611924565b60405180910390fd5b805f5f828254610f4d919061159c565b925050819055508060045f8473ffffffffffffffffffffffffffffffffffffffff1673ffffffffffffffffffffffffffffffffffffffff1681526020019081526020015f205f828254610fa0919061159c565b925050819055508173ffffffffffffffffffffffffffffffffffffffff165f73ffffffffffffffffffffffffffffffffffffffff167fddf252ad1be2c89b69c2b068fc378daa952ba7f163c4a11628f55a4df523b3ef8360405161100491906111b1565b60405180910390a35050565b5f81519050919050565b5f82825260208201905092915050565b8281835e5f83830152505050565b5f601f19601f8301169050919050565b5f61105282611010565b61105c818561101a565b935061106c81856020860161102a565b61107581611038565b840191505092915050565b5f6020820190508181035f8301526110988184611048565b905092915050565b5f5ffd5b5f73ffffffffffffffffffffffffffffffffffffffff82169050919050565b5f6110cd826110a4565b9050919050565b6110dd816110c3565b81146110e7575f5ffd5b50565b5f813590506110f8816110d4565b92915050565b5f819050919050565b611110816110fe565b811461111a575f5ffd5b50565b5f8135905061112b81611107565b92915050565b5f5f60408385031215611147576111466110a0565b5b5f611154858286016110ea565b92505060206111658582860161111d565b9150509250929050565b5f8115159050919050565b6111838161116f565b82525050565b5f60208201905061119c5f83018461117a565b92915050565b6111ab816110fe565b82525050565b5f6020820190506111c45f8301846111a2565b92915050565b5f602082840312156111df576111de6110a0565b5b5f6111ec848285016110ea565b91505092915050565b5f5f5f6060848603121561120c5761120b6110a0565b5b5f611219868287016110ea565b935050602061122a868287016110ea565b925050604061123b8682870161111d565b9150509250925092565b5f60ff82169050919050565b61125a81611245565b82525050565b5f6020820190506112735f830184611251565b92915050565b5f81519050919050565b5f82825260208201905092915050565b5f819050602082019050919050565b6112ab816110c3565b82525050565b5f6112bc83836112a2565b60208301905092915050565b5f602082019050919050565b5f6112de82611279565b6112e88185611283565b93506112f383611293565b805f5b8381101561132357815161130a88826112b1565b9750611315836112c8565b9250506001810190506112f6565b5085935050505092915050565b5f81519050919050565b5f82825260208201905092915050565b5f819050602082019050919050565b611362816110fe565b82525050565b5f6113738383611359565b60208301905092915050565b5f602082019050919050565b5f61139582611330565b61139f818561133a565b93506113aa8361134a565b805f5b838110156113da5781516113c18882611368565b97506113cc8361137f565b9250506001810190506113ad565b5085935050505092915050565b5f6040820190508181035f8301526113ff81856112d4565b90508181036020830152611413818461138b565b90509392505050565b5f60208284031215611431576114306110a0565b5b5f61143e8482850161111d565b91505092915050565b5f5f6040838503121561145d5761145c6110a0565b5b5f61146a858286016110ea565b925050602061147b858286016110ea565b9150509250929050565b61148e816110c3565b82525050565b5f6020820190506114a75f830184611485565b92915050565b7f4e487b71000000000000000000000000000000000000000000000000000000005f52604160045260245ffd5b7f4e487b71000000000000000000000000000000000000000000000000000000005f52603260045260245ffd5b7f436f756e74206d7573742062652067726561746572207468616e2030000000005f82015250565b5f61153b601c8361101a565b915061154682611507565b602082019050919050565b5f6020820190508181035f8301526115688161152f565b9050919050565b7f4e487b71000000000000000000000000000000000000000000000000000000005f52601160045260245ffd5b5f6115a6826110fe565b91506115b1836110fe565b92508282019050808211156115c9576115c861156f565b5b92915050565b5f6040820190506115e25f8301856111a2565b6115ef60208301846111a2565b9392505050565b5f611600826110fe565b915061160b836110fe565b9250828202611619816110fe565b915082820484148315176116305761162f61156f565b5b5092915050565b7f417070726f76652066726f6d207a65726f2061646472657373000000000000005f82015250565b5f61166b60198361101a565b915061167682611637565b602082019050919050565b5f6020820190508181035f8301526116988161165f565b9050919050565b7f417070726f766520746f207a65726f20616464726573730000000000000000005f82015250565b5f6116d360178361101a565b91506116de8261169f565b602082019050919050565b5f6020820190508181035f830152611700816116c7565b9050919050565b7f496e73756666696369656e7420616c6c6f77616e6365000000000000000000005f82015250565b5f61173b60168361101a565b915061174682611707565b602082019050919050565b5f6020820190508181035f8301526117688161172f565b9050919050565b5f611779826110fe565b9150611784836110fe565b925082820390508181111561179c5761179b61156f565b5b92915050565b7f5472616e736665722066726f6d207a65726f20616464726573730000000000005f82015250565b5f6117d6601a8361101a565b91506117e1826117a2565b602082019050919050565b5f6020820190508181035f830152611803816117ca565b9050919050565b7f5472616e7366657220746f207a65726f206164647265737300000000000000005f82015250565b5f61183e60188361101a565b91506118498261180a565b602082019050919050565b5f6020820190508181035f83015261186b81611832565b9050919050565b7f496e73756666696369656e742062616c616e63650000000000000000000000005f82015250565b5f6118a660148361101a565b91506118b182611872565b602082019050919050565b5f6020820190508181035f8301526118d38161189a565b9050919050565b7f4d696e7420746f207a65726f20616464726573730000000000000000000000005f82015250565b5f61190e60148361101a565b9150611919826118da565b602082019050919050565b5f6020820190508181035f83015261193b81611902565b905091905056fea26469706673582212207c7194c59f5696cfcce71cee8b9d9f94a8f9a3a5edd3ab039962835a705b385964736f6c634300081f0033",
					"opcodes": "PUSH1 0x80 PUSH1 0x40 MSTORE CALLVALUE DUP1 ISZERO PUSH1 0xE JUMPI PUSH0 PUSH0 REVERT JUMPDEST POP PUSH2 0x1978 DUP1 PUSH2 0x1C PUSH0 CODECOPY PUSH0 RETURN INVALID PUSH1 0x80 PUSH1 0x40 MSTORE CALLVALUE DUP1 ISZERO PUSH2 0xF JUMPI PUSH0 PUSH0 REVERT JUMPDEST POP PUSH1 0x4 CALLDATASIZE LT PUSH2 0xFE JUMPI PUSH0 CALLDATALOAD PUSH1 0xE0 SHR DUP1 PUSH4 0x6D763A6E GT PUSH2 0x95 JUMPI DUP1 PUSH4 0x95D89B41 GT PUSH2 0x64 JUMPI DUP1 PUSH4 0x95D89B41 EQ PUSH2 0x2D5 JUMPI DUP1 PUSH4 0xA9059CBB EQ PUSH2 0x2F3 JUMPI DUP1 PUSH4 0xDD62ED3E EQ PUSH2 0x323 JUMPI DUP1 PUSH4 0xF71D96CB EQ PUSH2 0x353 JUMPI PUSH2 0xFE JUMP JUMPDEST DUP1 PUSH4 0x6D763A6E EQ PUSH2 0x23A JUMPI DUP1 PUSH4 0x70A08231 EQ PUSH2 0x259 JUMPI DUP1 PUSH4 0x786C2E68 EQ PUSH2 0x289 JUMPI DUP1 PUSH4 0x7C2BB719 EQ PUSH2 0x2A5 JUMPI PUSH2 0xFE JUMP JUMPDEST DUP1 PUSH4 0x2373580E GT PUSH2 0xD1 JUMPI DUP1 PUSH4 0x2373580E EQ PUSH2 0x18C JUMPI DUP1 PUSH4 0x23B872DD EQ PUSH2 0x1BC JUMPI DUP1 PUSH4 0x313CE567 EQ PUSH2 0x1EC JUMPI DUP1 PUSH4 0x32D0BBE3 EQ PUSH2 0x20A JUMPI PUSH2 0xFE JUMP JUMPDEST DUP1 PUSH4 0x6FDDE03 EQ PUSH2 0x102 JUMPI DUP1 PUSH4 0x95EA7B3 EQ PUSH2 0x120 JUMPI DUP1 PUSH4 0x1101DC3D EQ PUSH2 0x150 JUMPI DUP1 PUSH4 0x18160DDD EQ PUSH2 0x16E JUMPI JUMPDEST PUSH0 PUSH0 REVERT JUMPDEST PUSH2 0x10A PUSH2 0x383 JUMP JUMPDEST PUSH1 0x40 MLOAD PUSH2 0x117 SWAP2 SWAP1 PUSH2 0x1080 JUMP JUMPDEST PUSH1 0x40 MLOAD DUP1 SWAP2 SUB SWAP1 RETURN JUMPDEST PUSH2 0x13A PUSH1 0x4 DUP1 CALLDATASIZE SUB DUP2 ADD SWAP1 PUSH2 0x135 SWAP2 SWAP1 PUSH2 0x1131 JUMP JUMPDEST PUSH2 0x3BC JUMP JUMPDEST PUSH1 0x40 MLOAD PUSH2 0x147 SWAP2 SWAP1 PUSH2 0x1189 JUMP JUMPDEST PUSH1 0x40 MLOAD DUP1 SWAP2 SUB SWAP1 RETURN JUMPDEST PUSH2 0x158 PUSH2 0x3D2 JUMP JUMPDEST PUSH1 0x40 MLOAD PUSH2 0x165 SWAP2 SWAP1 PUSH2 0x11B1 JUMP JUMPDEST PUSH1 0x40 MLOAD DUP1 SWAP2 SUB SWAP1 RETURN JUMPDEST PUSH2 0x176 PUSH2 0x3DE JUMP JUMPDEST PUSH1 0x40 MLOAD PUSH2 0x183 SWAP2 SWAP1 PUSH2 0x11B1 JUMP JUMPDEST PUSH1 0x40 MLOAD DUP1 SWAP2 SUB SWAP1 RETURN JUMPDEST PUSH2 0x1A6 PUSH1 0x4 DUP1 CALLDATASIZE SUB DUP2 ADD SWAP1 PUSH2 0x1A1 SWAP2 SWAP1 PUSH2 0x11CA JUMP JUMPDEST PUSH2 0x3E3 JUMP JUMPDEST PUSH1 0x40 MLOAD PUSH2 0x1B3 SWAP2 SWAP1 PUSH2 0x11B1 JUMP JUMPDEST PUSH1 0x40 MLOAD DUP1 SWAP2 SUB SWAP1 RETURN JUMPDEST PUSH2 0x1D6 PUSH1 0x4 DUP1 CALLDATASIZE SUB DUP2 ADD SWAP1 PUSH2 0x1D1 SWAP2 SWAP1 PUSH2 0x11F5 JUMP JUMPDEST PUSH2 0x429 JUMP JUMPDEST PUSH1 0x40 MLOAD PUSH2 0x1E3 SWAP2 SWAP1 PUSH2 0x1189 JUMP JUMPDEST PUSH1 0x40 MLOAD DUP1 SWAP2 SUB SWAP1 RETURN JUMPDEST PUSH2 0x1F4 PUSH2 0x44B JUMP JUMPDEST PUSH1 0x40 MLOAD PUSH2 0x201 SWAP2 SWAP1 PUSH2 0x1260 JUMP JUMPDEST PUSH1 0x40 MLOAD DUP1 SWAP2 SUB SWAP1 RETURN JUMPDEST PUSH2 0x224 PUSH1 0x4 DUP1 CALLDATASIZE SUB DUP2 ADD SWAP1 PUSH2 0x21F SWAP2 SWAP1 PUSH2 0x11CA JUMP JUMPDEST PUSH2 0x450 JUMP JUMPDEST PUSH1 0x40 MLOAD PUSH2 0x231 SWAP2 SWAP1 PUSH2 0x1189 JUMP JUMPDEST PUSH1 0x40 MLOAD DUP1 SWAP2 SUB SWAP1 RETURN JUMPDEST PUSH2 0x242 PUSH2 0x46D JUMP JUMPDEST PUSH1 0x40 MLOAD PUSH2 0x250 SWAP3 SWAP2 SWAP1 PUSH2 0x13E7 JUMP JUMPDEST PUSH1 0x40 MLOAD DUP1 SWAP2 SUB SWAP1 RETURN JUMPDEST PUSH2 0x273 PUSH1 0x4 DUP1 CALLDATASIZE SUB DUP2 ADD SWAP1 PUSH2 0x26E SWAP2 SWAP1 PUSH2 0x11CA JUMP JUMPDEST PUSH2 0x65A JUMP JUMPDEST PUSH1 0x40 MLOAD PUSH2 0x280 SWAP2 SWAP1 PUSH2 0x11B1 JUMP JUMPDEST PUSH1 0x40 MLOAD DUP1 SWAP2 SUB SWAP1 RETURN JUMPDEST PUSH2 0x2A3 PUSH1 0x4 DUP1 CALLDATASIZE SUB DUP2 ADD SWAP1 PUSH2 0x29E SWAP2 SWAP1 PUSH2 0x141C JUMP JUMPDEST PUSH2 0x6A0 JUMP JUMPDEST STOP JUMPDEST PUSH2 0x2BF PUSH1 0x4 DUP1 CALLDATASIZE SUB DUP2 ADD SWAP1 PUSH2 0x2BA SWAP2 SWAP1 PUSH2 0x11CA JUMP JUMPDEST PUSH2 0x8EB JUMP JUMPDEST PUSH1 0x40 MLOAD PUSH2 0x2CC SWAP2 SWAP1 PUSH2 0x11B1 JUMP JUMPDEST PUSH1 0x40 MLOAD DUP1 SWAP2 SUB SWAP1 RETURN JUMPDEST PUSH2 0x2DD PUSH2 0x900 JUMP JUMPDEST PUSH1 0x40 MLOAD PUSH2 0x2EA SWAP2 SWAP1 PUSH2 0x1080 JUMP JUMPDEST PUSH1 0x40 MLOAD DUP1 SWAP2 SUB SWAP1 RETURN JUMPDEST PUSH2 0x30D PUSH1 0x4 DUP1 CALLDATASIZE SUB DUP2 ADD SWAP1 PUSH2 0x308 SWAP2 SWAP1 PUSH2 0x1131 JUMP JUMPDEST PUSH2 0x939 JUMP JUMPDEST PUSH1 0x40 MLOAD PUSH2 0x31A SWAP2 SWAP1 PUSH2 0x1189 JUMP JUMPDEST PUSH1 0x40 MLOAD DUP1 SWAP2 SUB SWAP1 RETURN JUMPDEST PUSH2 0x33D PUSH1 0x4 DUP1 CALLDATASIZE SUB DUP2 ADD SWAP1 PUSH2 0x338 SWAP2 SWAP1 PUSH2 0x1447 JUMP JUMPDEST PUSH2 0x94F JUMP JUMPDEST PUSH1 0x40 MLOAD PUSH2 0x34A SWAP2 SWAP1 PUSH2 0x11B1 JUMP JUMPDEST PUSH1 0x40 MLOAD DUP1 SWAP2 SUB SWAP1 RETURN JUMPDEST PUSH2 0x36D PUSH1 0x4 DUP1 CALLDATASIZE SUB DUP2 ADD SWAP1 PUSH2 0x368 SWAP2 SWAP1 PUSH2 0x141C JUMP JUMPDEST PUSH2 0x9D1 JUMP JUMPDEST PUSH1 0x40 MLOAD PUSH2 0x37A SWAP2 SWAP1 PUSH2 0x1494 JUMP JUMPDEST PUSH1 0x40 MLOAD DUP1 SWAP2 SUB SWAP1 RETURN JUMPDEST PUSH1 0x40 MLOAD DUP1 PUSH1 0x40 ADD PUSH1 0x40 MSTORE DUP1 PUSH1 0xA DUP2 MSTORE PUSH1 0x20 ADD PUSH32 0x436C69636B546F6B656E00000000000000000000000000000000000000000000 DUP2 MSTORE POP DUP2 JUMP JUMPDEST PUSH0 PUSH2 0x3C8 CALLER DUP5 DUP5 PUSH2 0xA0C JUMP JUMPDEST PUSH1 0x1 SWAP1 POP SWAP3 SWAP2 POP POP JUMP JUMPDEST PUSH8 0xDE0B6B3A7640000 DUP2 JUMP JUMPDEST PUSH0 SLOAD DUP2 JUMP JUMPDEST PUSH0 PUSH1 0x1 PUSH0 DUP4 PUSH20 0xFFFFFFFFFFFFFFFFFFFFFFFFFFFFFFFFFFFFFFFF AND PUSH20 0xFFFFFFFFFFFFFFFFFFFFFFFFFFFFFFFFFFFFFFFF AND DUP2 MSTORE PUSH1 0x20 ADD SWAP1 DUP2 MSTORE PUSH1 0x20 ADD PUSH0 KECCAK256 SLOAD SWAP1 POP SWAP2 SWAP1 POP JUMP JUMPDEST PUSH0 PUSH2 0x435 DUP5 CALLER DUP5 PUSH2 0xBCF JUMP JUMPDEST PUSH2 0x440 DUP5 DUP5 DUP5 PUSH2 0xC63 JUMP JUMPDEST PUSH1 0x1 SWAP1 POP SWAP4 SWAP3 POP POP POP JUMP JUMPDEST PUSH1 0x12 DUP2 JUMP JUMPDEST PUSH1 0x3 PUSH1 0x20 MSTORE DUP1 PUSH0 MSTORE PUSH1 0x40 PUSH0 KECCAK256 PUSH0 SWAP2 POP SLOAD SWAP1 PUSH2 0x100 EXP SWAP1 DIV PUSH1 0xFF AND DUP2 JUMP JUMPDEST PUSH1 0x60 DUP1 PUSH0 PUSH1 0x2 DUP1 SLOAD SWAP1 POP SWAP1 POP PUSH0 DUP2 PUSH8 0xFFFFFFFFFFFFFFFF DUP2 GT ISZERO PUSH2 0x494 JUMPI PUSH2 0x493 PUSH2 0x14AD JUMP JUMPDEST JUMPDEST PUSH1 0x40 MLOAD SWAP1 DUP1 DUP3 MSTORE DUP1 PUSH1 0x20 MUL PUSH1 0x20 ADD DUP3 ADD PUSH1 0x40 MSTORE DUP1 ISZERO PUSH2 0x4C2 JUMPI DUP2 PUSH1 0x20 ADD PUSH1 0x20 DUP3 MUL DUP1 CALLDATASIZE DUP4 CALLDATACOPY DUP1 DUP3 ADD SWAP2 POP POP SWAP1 POP JUMPDEST POP SWAP1 POP PUSH0 DUP3 PUSH8 0xFFFFFFFFFFFFFFFF DUP2 GT ISZERO PUSH2 0x4E0 JUMPI PUSH2 0x4DF PUSH2 0x14AD JUMP JUMPDEST JUMPDEST PUSH1 0x40 MLOAD SWAP1 DUP1 DUP3 MSTORE DUP1 PUSH1 0x20 MUL PUSH1 0x20 ADD DUP3 ADD PUSH1 0x40 MSTORE DUP1 ISZERO PUSH2 0x50E JUMPI DUP2 PUSH1 0x20 ADD PUSH1 0x20 DUP3 MUL DUP1 CALLDATASIZE DUP4 CALLDATACOPY DUP1 DUP3 ADD SWAP2 POP POP SWAP1 POP JUMPDEST POP SWAP1 POP PUSH0 PUSH0 SWAP1 POP JUMPDEST DUP4 DUP2 LT ISZERO PUSH2 0x64C JUMPI PUSH1 0x2 DUP2 DUP2 SLOAD DUP2 LT PUSH2 0x532 JUMPI PUSH2 0x531 PUSH2 0x14DA JUMP JUMPDEST JUMPDEST SWAP1 PUSH0 MSTORE PUSH1 0x20 PUSH0 KECCAK256 ADD PUSH0 SWAP1 SLOAD SWAP1 PUSH2 0x100 EXP SWAP1 DIV PUSH20 0xFFFFFFFFFFFFFFFFFFFFFFFFFFFFFFFFFFFFFFFF AND DUP4 DUP3 DUP2 MLOAD DUP2 LT PUSH2 0x56D JUMPI PUSH2 0x56C PUSH2 0x14DA JUMP JUMPDEST JUMPDEST PUSH1 0x20 MUL PUSH1 0x20 ADD ADD SWAP1 PUSH20 0xFFFFFFFFFFFFFFFFFFFFFFFFFFFFFFFFFFFFFFFF AND SWAP1 DUP2 PUSH20 0xFFFFFFFFFFFFFFFFFFFFFFFFFFFFFFFFFFFFFFFF AND DUP2 MSTORE POP POP PUSH1 0x1 PUSH0 PUSH1 0x2 DUP4 DUP2 SLOAD DUP2 LT PUSH2 0x5BE JUMPI PUSH2 0x5BD PUSH2 0x14DA JUMP JUMPDEST JUMPDEST SWAP1 PUSH0 MSTORE PUSH1 0x20 PUSH0 KECCAK256 ADD PUSH0 SWAP1 SLOAD SWAP1 PUSH2 0x100 EXP SWAP1 DIV PUSH20 0xFFFFFFFFFFFFFFFFFFFFFFFFFFFFFFFFFFFFFFFF AND PUSH20 0xFFFFFFFFFFFFFFFFFFFFFFFFFFFFFFFFFFFFFFFF AND PUSH20 0xFFFFFFFFFFFFFFFFFFFFFFFFFFFFFFFFFFFFFFFF AND DUP2 MSTORE PUSH1 0x20 ADD SWAP1 DUP2 MSTORE PUSH1 0x20 ADD PUSH0 KECCAK256 SLOAD DUP3 DUP3 DUP2 MLOAD DUP2 LT PUSH2 0x633 JUMPI PUSH2 0x632 PUSH2 0x14DA JUMP JUMPDEST JUMPDEST PUSH1 0x20 MUL PUSH1 0x20 ADD ADD DUP2 DUP2 MSTORE POP POP DUP1 DUP1 PUSH1 0x1 ADD SWAP2 POP POP PUSH2 0x516 JUMP JUMPDEST POP DUP2 DUP2 SWAP5 POP SWAP5 POP POP POP POP SWAP1 SWAP2 JUMP JUMPDEST PUSH0 PUSH1 0x4 PUSH0 DUP4 PUSH20 0xFFFFFFFFFFFFFFFFFFFFFFFFFFFFFFFFFFFFFFFF AND PUSH20 0xFFFFFFFFFFFFFFFFFFFFFFFFFFFFFFFFFFFFFFFF AND DUP2 MSTORE PUSH1 0x20 ADD SWAP1 DUP2 MSTORE PUSH1 0x20 ADD PUSH0 KECCAK256 SLOAD SWAP1 POP SWAP2 SWAP1 POP JUMP JUMPDEST PUSH0 DUP2 GT PUSH2 0x6E2 JUMPI PUSH1 0x40 MLOAD PUSH32 0x8C379A000000000000000000000000000000000000000000000000000000000 DUP2 MSTORE PUSH1 0x4 ADD PUSH2 0x6D9 SWAP1 PUSH2 0x1551 JUMP JUMPDEST PUSH1 0x40 MLOAD DUP1 SWAP2 SUB SWAP1 REVERT JUMPDEST DUP1 PUSH1 0x1 PUSH0 CALLER PUSH20 0xFFFFFFFFFFFFFFFFFFFFFFFFFFFFFFFFFFFFFFFF AND PUSH20 0xFFFFFFFFFFFFFFFFFFFFFFFFFFFFFFFFFFFFFFFF AND DUP2 MSTORE PUSH1 0x20 ADD SWAP1 DUP2 MSTORE PUSH1 0x20 ADD PUSH0 KECCAK256 PUSH0 DUP3 DUP3 SLOAD PUSH2 0x72E SWAP2 SWAP1 PUSH2 0x159C JUMP JUMPDEST SWAP3 POP POP DUP2 SWAP1 SSTORE POP PUSH1 0x3 PUSH0 CALLER PUSH20 0xFFFFFFFFFFFFFFFFFFFFFFFFFFFFFFFFFFFFFFFF AND PUSH20 0xFFFFFFFFFFFFFFFFFFFFFFFFFFFFFFFFFFFFFFFF AND DUP2 MSTORE PUSH1 0x20 ADD SWAP1 DUP2 MSTORE PUSH1 0x20 ADD PUSH0 KECCAK256 PUSH0 SWAP1 SLOAD SWAP1 PUSH2 0x100 EXP SWAP1 DIV PUSH1 0xFF AND PUSH2 0x839 JUMPI PUSH1 0x1 PUSH1 0x3 PUSH0 CALLER PUSH20 0xFFFFFFFFFFFFFFFFFFFFFFFFFFFFFFFFFFFFFFFF AND PUSH20 0xFFFFFFFFFFFFFFFFFFFFFFFFFFFFFFFFFFFFFFFF AND DUP2 MSTORE PUSH1 0x20 ADD SWAP1 DUP2 MSTORE PUSH1 0x20 ADD PUSH0 KECCAK256 PUSH0 PUSH2 0x100 EXP DUP2 SLOAD DUP2 PUSH1 0xFF MUL NOT AND SWAP1 DUP4 ISZERO ISZERO MUL OR SWAP1 SSTORE POP PUSH1 0x2 CALLER SWAP1 DUP1 PUSH1 0x1 DUP2 SLOAD ADD DUP1 DUP3 SSTORE DUP1 SWAP2 POP POP PUSH1 0x1 SWAP1 SUB SWAP1 PUSH0 MSTORE PUSH1 0x20 PUSH0 KECCAK256 ADD PUSH0 SWAP1 SWAP2 SWAP1 SWAP2 SWAP1 SWAP2 PUSH2 0x100 EXP DUP2 SLOAD DUP2 PUSH20 0xFFFFFFFFFFFFFFFFFFFFFFFFFFFFFFFFFFFFFFFF MUL NOT AND SWAP1 DUP4 PUSH20 0xFFFFFFFFFFFFFFFFFFFFFFFFFFFFFFFFFFFFFFFF AND MUL OR SWAP1 SSTORE POP JUMPDEST CALLER PUSH20 0xFFFFFFFFFFFFFFFFFFFFFFFFFFFFFFFFFFFFFFFF AND PUSH32 0x98A3C470EC7DEC38A342CC8C873D0594E0911EEEA8004E2AF3EF1D66F01FDAAB PUSH1 0x1 PUSH0 CALLER PUSH20 0xFFFFFFFFFFFFFFFFFFFFFFFFFFFFFFFFFFFFFFFF AND PUSH20 0xFFFFFFFFFFFFFFFFFFFFFFFFFFFFFFFFFFFFFFFF AND DUP2 MSTORE PUSH1 0x20 ADD SWAP1 DUP2 MSTORE PUSH1 0x20 ADD PUSH0 KECCAK256 SLOAD DUP4 PUSH1 0x40 MLOAD PUSH2 0x8BE SWAP3 SWAP2 SWAP1 PUSH2 0x15CF JUMP JUMPDEST PUSH1 0x40 MLOAD DUP1 SWAP2 SUB SWAP1 LOG2 PUSH0 PUSH8 0xDE0B6B3A7640000 DUP3 PUSH2 0x8DB SWAP2 SWAP1 PUSH2 0x15F6 JUMP JUMPDEST SWAP1 POP PUSH2 0x8E7 CALLER DUP3 PUSH2 0xECF JUMP JUMPDEST POP POP JUMP JUMPDEST PUSH1 0x1 PUSH1 0x20 MSTORE DUP1 PUSH0 MSTORE PUSH1 0x40 PUSH0 KECCAK256 PUSH0 SWAP2 POP SWAP1 POP SLOAD DUP2 JUMP JUMPDEST PUSH1 0x40 MLOAD DUP1 PUSH1 0x40 ADD PUSH1 0x40 MSTORE DUP1 PUSH1 0x3 DUP2 MSTORE PUSH1 0x20 ADD PUSH32 0x434C4B0000000000000000000000000000000000000000000000000000000000 DUP2 MSTORE POP DUP2 JUMP JUMPDEST PUSH0 PUSH2 0x945 CALLER DUP5 DUP5 PUSH2 0xC63 JUMP JUMPDEST PUSH1 0x1 SWAP1 POP SWAP3 SWAP2 POP POP JUMP JUMPDEST PUSH0 PUSH1 0x5 PUSH0 DUP5 PUSH20 0xFFFFFFFFFFFFFFFFFFFFFFFFFFFFFFFFFFFFFFFF AND PUSH20 0xFFFFFFFFFFFFFFFFFFFFFFFFFFFFFFFFFFFFFFFF AND DUP2 MSTORE PUSH1 0x20 ADD SWAP1 DUP2 MSTORE PUSH1 0x20 ADD PUSH0 KECCAK256 PUSH0 DUP4 PUSH20 0xFFFFFFFFFFFFFFFFFFFFFFFFFFFFFFFFFFFFFFFF AND PUSH20 0xFFFFFFFFFFFFFFFFFFFFFFFFFFFFFFFFFFFFFFFF AND DUP2 MSTORE PUSH1 0x20 ADD SWAP1 DUP2 MSTORE PUSH1 0x20 ADD PUSH0 KECCAK256 SLOAD SWAP1 POP SWAP3 SWAP2 POP POP JUMP JUMPDEST PUSH1 0x2 DUP2 DUP2 SLOAD DUP2 LT PUSH2 0x9E0 JUMPI PUSH0 DUP1 REVERT JUMPDEST SWAP1 PUSH0 MSTORE PUSH1 0x20 PUSH0 KECCAK256 ADD PUSH0 SWAP2 POP SLOAD SWAP1 PUSH2 0x100 EXP SWAP1 DIV PUSH20 0xFFFFFFFFFFFFFFFFFFFFFFFFFFFFFFFFFFFFFFFF AND DUP2 JUMP JUMPDEST PUSH0 PUSH20 0xFFFFFFFFFFFFFFFFFFFFFFFFFFFFFFFFFFFFFFFF AND DUP4 PUSH20 0xFFFFFFFFFFFFFFFFFFFFFFFFFFFFFFFFFFFFFFFF AND SUB PUSH2 0xA7A JUMPI PUSH1 0x40 MLOAD PUSH32 0x8C379A000000000000000000000000000000000000000000000000000000000 DUP2 MSTORE PUSH1 0x4 ADD PUSH2 0xA71 SWAP1 PUSH2 0x1681 JUMP JUMPDEST PUSH1 0x40 MLOAD DUP1 SWAP2 SUB SWAP1 REVERT JUMPDEST PUSH0 PUSH20 0xFFFFFFFFFFFFFFFFFFFFFFFFFFFFFFFFFFFFFFFF AND DUP3 PUSH20 0xFFFFFFFFFFFFFFFFFFFFFFFFFFFFFFFFFFFFFFFF AND SUB PUSH2 0xAE8 JUMPI PUSH1 0x40 MLOAD PUSH32 0x8C379A000000000000000000000000000000000000000000000000000000000 DUP2 MSTORE PUSH1 0x4 ADD PUSH2 0xADF SWAP1 PUSH2 0x16E9 JUMP JUMPDEST PUSH1 0x40 MLOAD DUP1 SWAP2 SUB SWAP1 REVERT JUMPDEST DUP1 PUSH1 0x5 PUSH0 DUP6 PUSH20 0xFFFFFFFFFFFFFFFFFFFFFFFFFFFFFFFFFFFFFFFF AND PUSH20 0xFFFFFFFFFFFFFFFFFFFFFFFFFFFFFFFFFFFFFFFF AND DUP2 MSTORE PUSH1 0x20 ADD SWAP1 DUP2 MSTORE PUSH1 0x20 ADD PUSH0 KECCAK256 PUSH0 DUP5 PUSH20 0xFFFFFFFFFFFFFFFFFFFFFFFFFFFFFFFFFFFFFFFF AND PUSH20 0xFFFFFFFFFFFFFFFFFFFFFFFFFFFFFFFFFFFFFFFF AND DUP2 MSTORE PUSH1 0x20 ADD SWAP1 DUP2 MSTORE PUSH1 0x20 ADD PUSH0 KECCAK256 DUP2 SWAP1 SSTORE POP DUP2 PUSH20 0xFFFFFFFFFFFFFFFFFFFFFFFFFFFFFFFFFFFFFFFF AND DUP4 PUSH20 0xFFFFFFFFFFFFFFFFFFFFFFFFFFFFFFFFFFFFFFFF AND PUSH32 0x8C5BE1E5EBEC7D5BD14F71427D1E84F3DD0314C0F7B2291E5B200AC8C7C3B925 DUP4 PUSH1 0x40 MLOAD PUSH2 0xBC2 SWAP2 SWAP1 PUSH2 0x11B1 JUMP JUMPDEST PUSH1 0x40 MLOAD DUP1 SWAP2 SUB SWAP1 LOG3 POP POP POP JUMP JUMPDEST PUSH0 PUSH2 0xBDA DUP5 DUP5 PUSH2 0x94F JUMP JUMPDEST SWAP1 POP PUSH32 0xFFFFFFFFFFFFFFFFFFFFFFFFFFFFFFFFFFFFFFFFFFFFFFFFFFFFFFFFFFFFFFFF DUP2 EQ PUSH2 0xC5D JUMPI DUP2 DUP2 LT ISZERO PUSH2 0xC46 JUMPI PUSH1 0x40 MLOAD PUSH32 0x8C379A000000000000000000000000000000000000000000000000000000000 DUP2 MSTORE PUSH1 0x4 ADD PUSH2 0xC3D SWAP1 PUSH2 0x1751 JUMP JUMPDEST PUSH1 0x40 MLOAD DUP1 SWAP2 SUB SWAP1 REVERT JUMPDEST PUSH2 0xC5C DUP5 DUP5 DUP5 DUP5 PUSH2 0xC57 SWAP2 SWAP1 PUSH2 0x176F JUMP JUMPDEST PUSH2 0xA0C JUMP JUMPDEST JUMPDEST POP POP POP POP JUMP JUMPDEST PUSH0 PUSH20 0xFFFFFFFFFFFFFFFFFFFFFFFFFFFFFFFFFFFFFFFF AND DUP4 PUSH20 0xFFFFFFFFFFFFFFFFFFFFFFFFFFFFFFFFFFFFFFFF AND SUB PUSH2 0xCD1 JUMPI PUSH1 0x40 MLOAD PUSH32 0x8C379A000000000000000000000000000000000000000000000000000000000 DUP2 MSTORE PUSH1 0x4 ADD PUSH2 0xCC8 SWAP1 PUSH2 0x17EC JUMP JUMPDEST PUSH1 0x40 MLOAD DUP1 SWAP2 SUB SWAP1 REVERT JUMPDEST PUSH0 PUSH20 0xFFFFFFFFFFFFFFFFFFFFFFFFFFFFFFFFFFFFFFFF AND DUP3 PUSH20 0xFFFFFFFFFFFFFFFFFFFFFFFFFFFFFFFFFFFFFFFF AND SUB PUSH2 0xD3F JUMPI PUSH1 0x40 MLOAD PUSH32 0x8C379A000000000000000000000000000000000000000000000000000000000 DUP2 MSTORE PUSH1 0x4 ADD PUSH2 0xD36 SWAP1 PUSH2 0x1854 JUMP JUMPDEST PUSH1 0x40 MLOAD DUP1 SWAP2 SUB SWAP1 REVERT JUMPDEST DUP1 PUSH1 0x4 PUSH0 DUP6 PUSH20 0xFFFFFFFFFFFFFFFFFFFFFFFFFFFFFFFFFFFFFFFF AND PUSH20 0xFFFFFFFFFFFFFFFFFFFFFFFFFFFFFFFFFFFFFFFF AND DUP2 MSTORE PUSH1 0x20 ADD SWAP1 DUP2 MSTORE PUSH1 0x20 ADD PUSH0 KECCAK256 SLOAD LT ISZERO PUSH2 0xDBF JUMPI PUSH1 0x40 MLOAD PUSH32 0x8C379A000000000000000000000000000000000000000000000000000000000 DUP2 MSTORE PUSH1 0x4 ADD PUSH2 0xDB6 SWAP1 PUSH2 0x18BC JUMP JUMPDEST PUSH1 0x40 MLOAD DUP1 SWAP2 SUB SWAP1 REVERT JUMPDEST DUP1 PUSH1 0x4 PUSH0 DUP6 PUSH20 0xFFFFFFFFFFFFFFFFFFFFFFFFFFFFFFFFFFFFFFFF AND PUSH20 0xFFFFFFFFFFFFFFFFFFFFFFFFFFFFFFFFFFFFFFFF AND DUP2 MSTORE PUSH1 0x20 ADD SWAP1 DUP2 MSTORE PUSH1 0x20 ADD PUSH0 KECCAK256 PUSH0 DUP3 DUP3 SLOAD PUSH2 0xE0B SWAP2 SWAP1 PUSH2 0x176F JUMP JUMPDEST SWAP3 POP POP DUP2 SWAP1 SSTORE POP DUP1 PUSH1 0x4 PUSH0 DUP5 PUSH20 0xFFFFFFFFFFFFFFFFFFFFFFFFFFFFFFFFFFFFFFFF AND PUSH20 0xFFFFFFFFFFFFFFFFFFFFFFFFFFFFFFFFFFFFFFFF AND DUP2 MSTORE PUSH1 0x20 ADD SWAP1 DUP2 MSTORE PUSH1 0x20 ADD PUSH0 KECCAK256 PUSH0 DUP3 DUP3 SLOAD PUSH2 0xE5E SWAP2 SWAP1 PUSH2 0x159C JUMP JUMPDEST SWAP3 POP POP DUP2 SWAP1 SSTORE POP DUP2 PUSH20 0xFFFFFFFFFFFFFFFFFFFFFFFFFFFFFFFFFFFFFFFF AND DUP4 PUSH20 0xFFFFFFFFFFFFFFFFFFFFFFFFFFFFFFFFFFFFFFFF AND PUSH32 0xDDF252AD1BE2C89B69C2B068FC378DAA952BA7F163C4A11628F55A4DF523B3EF DUP4 PUSH1 0x40 MLOAD PUSH2 0xEC2 SWAP2 SWAP1 PUSH2 0x11B1 JUMP JUMPDEST PUSH1 0x40 MLOAD DUP1 SWAP2 SUB SWAP1 LOG3 POP POP POP JUMP JUMPDEST PUSH0 PUSH20 0xFFFFFFFFFFFFFFFFFFFFFFFFFFFFFFFFFFFFFFFF AND DUP3 PUSH20 0xFFFFFFFFFFFFFFFFFFFFFFFFFFFFFFFFFFFFFFFF AND SUB PUSH2 0xF3D JUMPI PUSH1 0x40 MLOAD PUSH32 0x8C379A000000000000000000000000000000000000000000000000000000000 DUP2 MSTORE PUSH1 0x4 ADD PUSH2 0xF34 SWAP1 PUSH2 0x1924 JUMP JUMPDEST PUSH1 0x40 MLOAD DUP1 SWAP2 SUB SWAP1 REVERT JUMPDEST DUP1 PUSH0 PUSH0 DUP3 DUP3 SLOAD PUSH2 0xF4D SWAP2 SWAP1 PUSH2 0x159C JUMP JUMPDEST SWAP3 POP POP DUP2 SWAP1 SSTORE POP DUP1 PUSH1 0x4 PUSH0 DUP5 PUSH20 0xFFFFFFFFFFFFFFFFFFFFFFFFFFFFFFFFFFFFFFFF AND PUSH20 0xFFFFFFFFFFFFFFFFFFFFFFFFFFFFFFFFFFFFFFFF AND DUP2 MSTORE PUSH1 0x20 ADD SWAP1 DUP2 MSTORE PUSH1 0x20 ADD PUSH0 KECCAK256 PUSH0 DUP3 DUP3 SLOAD PUSH2 0xFA0 SWAP2 SWAP1 PUSH2 0x159C JUMP JUMPDEST SWAP3 POP POP DUP2 SWAP1 SSTORE POP DUP2 PUSH20 0xFFFFFFFFFFFFFFFFFFFFFFFFFFFFFFFFFFFFFFFF AND PUSH0 PUSH20 0xFFFFFFFFFFFFFFFFFFFFFFFFFFFFFFFFFFFFFFFF AND PUSH32 0xDDF252AD1BE2C89B69C2B068FC378DAA952BA7F163C4A11628F55A4DF523B3EF DUP4 PUSH1 0x40 MLOAD PUSH2 0x1004 SWAP2 SWAP1 PUSH2 0x11B1 JUMP JUMPDEST PUSH1 0x40 MLOAD DUP1 SWAP2 SUB SWAP1 LOG3 POP POP JUMP JUMPDEST PUSH0 DUP2 MLOAD SWAP1 POP SWAP2 SWAP1 POP JUMP JUMPDEST PUSH0 DUP3 DUP3 MSTORE PUSH1 0x20 DUP3 ADD SWAP1 POP SWAP3 SWAP2 POP POP JUMP JUMPDEST DUP3 DUP2 DUP4 MCOPY PUSH0 DUP4 DUP4 ADD MSTORE POP POP POP JUMP JUMPDEST PUSH0 PUSH1 0x1F NOT PUSH1 0x1F DUP4 ADD AND SWAP1 POP SWAP2 SWAP1 POP JUMP JUMPDEST PUSH0 PUSH2 0x1052 DUP3 PUSH2 0x1010 JUMP JUMPDEST PUSH2 0x105C DUP2 DUP6 PUSH2 0x101A JUMP JUMPDEST SWAP4 POP PUSH2 0x106C DUP2 DUP6 PUSH1 0x20 DUP7 ADD PUSH2 0x102A JUMP JUMPDEST PUSH2 0x1075 DUP2 PUSH2 0x1038 JUMP JUMPDEST DUP5 ADD SWAP2 POP POP SWAP3 SWAP2 POP POP JUMP JUMPDEST PUSH0 PUSH1 0x20 DUP3 ADD SWAP1 POP DUP2 DUP2 SUB PUSH0 DUP4 ADD MSTORE PUSH2 0x1098 DUP2 DUP5 PUSH2 0x1048 JUMP JUMPDEST SWAP1 POP SWAP3 SWAP2 POP POP JUMP JUMPDEST PUSH0 PUSH0 REVERT JUMPDEST PUSH0 PUSH20 0xFFFFFFFFFFFFFFFFFFFFFFFFFFFFFFFFFFFFFFFF DUP3 AND SWAP1 POP SWAP2 SWAP1 POP JUMP JUMPDEST PUSH0 PUSH2 0x10CD DUP3 PUSH2 0x10A4 JUMP JUMPDEST SWAP1 POP SWAP2 SWAP1 POP JUMP JUMPDEST PUSH2 0x10DD DUP2 PUSH2 0x10C3 JUMP JUMPDEST DUP2 EQ PUSH2 0x10E7 JUMPI PUSH0 PUSH0 REVERT JUMPDEST POP JUMP JUMPDEST PUSH0 DUP2 CALLDATALOAD SWAP1 POP PUSH2 0x10F8 DUP2 PUSH2 0x10D4 JUMP JUMPDEST SWAP3 SWAP2 POP POP JUMP JUMPDEST PUSH0 DUP2 SWAP1 POP SWAP2 SWAP1 POP JUMP JUMPDEST PUSH2 0x1110 DUP2 PUSH2 0x10FE JUMP JUMPDEST DUP2 EQ PUSH2 0x111A JUMPI PUSH0 PUSH0 REVERT JUMPDEST POP JUMP JUMPDEST PUSH0 DUP2 CALLDATALOAD SWAP1 POP PUSH2 0x112B DUP2 PUSH2 0x1107 JUMP JUMPDEST SWAP3 SWAP2 POP POP JUMP JUMPDEST PUSH0 PUSH0 PUSH1 0x40 DUP4 DUP6 SUB SLT ISZERO PUSH2 0x1147 JUMPI PUSH2 0x1146 PUSH2 0x10A0 JUMP JUMPDEST JUMPDEST PUSH0 PUSH2 0x1154 DUP6 DUP3 DUP7 ADD PUSH2 0x10EA JUMP JUMPDEST SWAP3 POP POP PUSH1 0x20 PUSH2 0x1165 DUP6 DUP3 DUP7 ADD PUSH2 0x111D JUMP JUMPDEST SWAP2 POP POP SWAP3 POP SWAP3 SWAP1 POP JUMP JUMPDEST PUSH0 DUP2 ISZERO ISZERO SWAP1 POP SWAP2 SWAP1 POP JUMP JUMPDEST PUSH2 0x1183 DUP2 PUSH2 0x116F JUMP JUMPDEST DUP3 MSTORE POP POP JUMP JUMPDEST PUSH0 PUSH1 0x20 DUP3 ADD SWAP1 POP PUSH2 0x119C PUSH0 DUP4 ADD DUP5 PUSH2 0x117A JUMP JUMPDEST SWAP3 SWAP2 POP POP JUMP JUMPDEST PUSH2 0x11AB DUP2 PUSH2 0x10FE JUMP JUMPDEST DUP3 MSTORE POP POP JUMP JUMPDEST PUSH0 PUSH1 0x20 DUP3 ADD SWAP1 POP PUSH2 0x11C4 PUSH0 DUP4 ADD DUP5 PUSH2 0x11A2 JUMP JUMPDEST SWAP3 SWAP2 POP POP JUMP JUMPDEST PUSH0 PUSH1 0x20 DUP3 DUP5 SUB SLT ISZERO PUSH2 0x11DF JUMPI PUSH2 0x11DE PUSH2 0x10A0 JUMP JUMPDEST JUMPDEST PUSH0 PUSH2 0x11EC DUP5 DUP3 DUP6 ADD PUSH2 0x10EA JUMP JUMPDEST SWAP2 POP POP SWAP3 SWAP2 POP POP JUMP JUMPDEST PUSH0 PUSH0 PUSH0 PUSH1 0x60 DUP5 DUP7 SUB SLT ISZERO PUSH2 0x120C JUMPI PUSH2 0x120B PUSH2 0x10A0 JUMP JUMPDEST JUMPDEST PUSH0 PUSH2 0x1219 DUP7 DUP3 DUP8 ADD PUSH2 0x10EA JUMP JUMPDEST SWAP4 POP POP PUSH1 0x20 PUSH2 0x122A DUP7 DUP3 DUP8 ADD PUSH2 0x10EA JUMP JUMPDEST SWAP3 POP POP PUSH1 0x40 PUSH2 0x123B DUP7 DUP3 DUP8 ADD PUSH2 0x111D JUMP JUMPDEST SWAP2 POP POP SWAP3 POP SWAP3 POP SWAP3 JUMP JUMPDEST PUSH0 PUSH1 0xFF DUP3 AND SWAP1 POP SWAP2 SWAP1 POP JUMP JUMPDEST PUSH2 0x125A DUP2 PUSH2 0x1245 JUMP JUMPDEST DUP3 MSTORE POP POP JUMP JUMPDEST PUSH0 PUSH1 0x20 DUP3 ADD SWAP1 POP PUSH2 0x1273 PUSH0 DUP4 ADD DUP5 PUSH2 0x1251 JUMP JUMPDEST SWAP3 SWAP2 POP POP JUMP JUMPDEST PUSH0 DUP2 MLOAD SWAP1 POP SWAP2 SWAP1 POP JUMP JUMPDEST PUSH0 DUP3 DUP3 MSTORE PUSH1 0x20 DUP3 ADD SWAP1 POP SWAP3 SWAP2 POP POP JUMP JUMPDEST PUSH0 DUP2 SWAP1 POP PUSH1 0x20 DUP3 ADD SWAP1 POP SWAP2 SWAP1 POP JUMP JUMPDEST PUSH2 0x12AB DUP2 PUSH2 0x10C3 JUMP JUMPDEST DUP3 MSTORE POP POP JUMP JUMPDEST PUSH0 PUSH2 0x12BC DUP4 DUP4 PUSH2 0x12A2 JUMP JUMPDEST PUSH1 0x20 DUP4 ADD SWAP1 POP SWAP3 SWAP2 POP POP JUMP JUMPDEST PUSH0 PUSH1 0x20 DUP3 ADD SWAP1 POP SWAP2 SWAP1 POP JUMP JUMPDEST PUSH0 PUSH2 0x12DE DUP3 PUSH2 0x1279 JUMP JUMPDEST PUSH2 0x12E8 DUP2 DUP6 PUSH2 0x1283 JUMP JUMPDEST SWAP4 POP PUSH2 0x12F3 DUP4 PUSH2 0x1293 JUMP JUMPDEST DUP1 PUSH0 JUMPDEST DUP4 DUP2 LT ISZERO PUSH2 0x1323 JUMPI DUP2 MLOAD PUSH2 0x130A DUP9 DUP3 PUSH2 0x12B1 JUMP JUMPDEST SWAP8 POP PUSH2 0x1315 DUP4 PUSH2 0x12C8 JUMP JUMPDEST SWAP3 POP POP PUSH1 0x1 DUP2 ADD SWAP1 POP PUSH2 0x12F6 JUMP JUMPDEST POP DUP6 SWAP4 POP POP POP POP SWAP3 SWAP2 POP POP JUMP JUMPDEST PUSH0 DUP2 MLOAD SWAP1 POP SWAP2 SWAP1 POP JUMP JUMPDEST PUSH0 DUP3 DUP3 MSTORE PUSH1 0x20 DUP3 ADD SWAP1 POP SWAP3 SWAP2 POP POP JUMP JUMPDEST PUSH0 DUP2 SWAP1 POP PUSH1 0x20 DUP3 ADD SWAP1 POP SWAP2 SWAP1 POP JUMP JUMPDEST PUSH2 0x1362 DUP2 PUSH2 0x10FE JUMP JUMPDEST DUP3 MSTORE POP POP JUMP JUMPDEST PUSH0 PUSH2 0x1373 DUP4 DUP4 PUSH2 0x1359 JUMP JUMPDEST PUSH1 0x20 DUP4 ADD SWAP1 POP SWAP3 SWAP2 POP POP JUMP JUMPDEST PUSH0 PUSH1 0x20 DUP3 ADD SWAP1 POP SWAP2 SWAP1 POP JUMP JUMPDEST PUSH0 PUSH2 0x1395 DUP3 PUSH2 0x1330 JUMP JUMPDEST PUSH2 0x139F DUP2 DUP6 PUSH2 0x133A JUMP JUMPDEST SWAP4 POP PUSH2 0x13AA DUP4 PUSH2 0x134A JUMP JUMPDEST DUP1 PUSH0 JUMPDEST DUP4 DUP2 LT ISZERO PUSH2 0x13DA JUMPI DUP2 MLOAD PUSH2 0x13C1 DUP9 DUP3 PUSH2 0x1368 JUMP JUMPDEST SWAP8 POP PUSH2 0x13CC DUP4 PUSH2 0x137F JUMP JUMPDEST SWAP3 POP POP PUSH1 0x1 DUP2 ADD SWAP1 POP PUSH2 0x13AD JUMP JUMPDEST POP DUP6 SWAP4 POP POP POP POP SWAP3 SWAP2 POP POP JUMP JUMPDEST PUSH0 PUSH1 0x40 DUP3 ADD SWAP1 POP DUP2 DUP2 SUB PUSH0 DUP4 ADD MSTORE PUSH2 0x13FF DUP2 DUP6 PUSH2 0x12D4 JUMP JUMPDEST SWAP1 POP DUP2 DUP2 SUB PUSH1 0x20 DUP4 ADD MSTORE PUSH2 0x1413 DUP2 DUP5 PUSH2 0x138B JUMP JUMPDEST SWAP1 POP SWAP4 SWAP3 POP POP POP JUMP JUMPDEST PUSH0 PUSH1 0x20 DUP3 DUP5 SUB SLT ISZERO PUSH2 0x1431 JUMPI PUSH2 0x1430 PUSH2 0x10A0 JUMP JUMPDEST JUMPDEST PUSH0 PUSH2 0x143E DUP5 DUP3 DUP6 ADD PUSH2 0x111D JUMP JUMPDEST SWAP2 POP POP SWAP3 SWAP2 POP POP JUMP JUMPDEST PUSH0 PUSH0 PUSH1 0x40 DUP4 DUP6 SUB SLT ISZERO PUSH2 0x145D JUMPI PUSH2 0x145C PUSH2 0x10A0 JUMP JUMPDEST JUMPDEST PUSH0 PUSH2 0x146A DUP6 DUP3 DUP7 ADD PUSH2 0x10EA JUMP JUMPDEST SWAP3 POP POP PUSH1 0x20 PUSH2 0x147B DUP6 DUP3 DUP7 ADD PUSH2 0x10EA JUMP JUMPDEST SWAP2 POP POP SWAP3 POP SWAP3 SWAP1 POP JUMP JUMPDEST PUSH2 0x148E DUP2 PUSH2 0x10C3 JUMP JUMPDEST DUP3 MSTORE POP POP JUMP JUMPDEST PUSH0 PUSH1 0x20 DUP3 ADD SWAP1 POP PUSH2 0x14A7 PUSH0 DUP4 ADD DUP5 PUSH2 0x1485 JUMP JUMPDEST SWAP3 SWAP2 POP POP JUMP JUMPDEST PUSH32 0x4E487B7100000000000000000000000000000000000000000000000000000000 PUSH0 MSTORE PUSH1 0x41 PUSH1 0x4 MSTORE PUSH1 0x24 PUSH0 REVERT JUMPDEST PUSH32 0x4E487B7100000000000000000000000000000000000000000000000000000000 PUSH0 MSTORE PUSH1 0x32 PUSH1 0x4 MSTORE PUSH1 0x24 PUSH0 REVERT JUMPDEST PUSH32 0x436F756E74206D7573742062652067726561746572207468616E203000000000 PUSH0 DUP3 ADD MSTORE POP JUMP JUMPDEST PUSH0 PUSH2 0x153B PUSH1 0x1C DUP4 PUSH2 0x101A JUMP JUMPDEST SWAP2 POP PUSH2 0x1546 DUP3 PUSH2 0x1507 JUMP JUMPDEST PUSH1 0x20 DUP3 ADD SWAP1 POP SWAP2 SWAP1 POP JUMP JUMPDEST PUSH0 PUSH1 0x20 DUP3 ADD SWAP1 POP DUP2 DUP2 SUB PUSH0 DUP4 ADD MSTORE PUSH2 0x1568 DUP2 PUSH2 0x152F JUMP JUMPDEST SWAP1 POP SWAP2 SWAP1 POP JUMP JUMPDEST PUSH32 0x4E487B7100000000000000000000000000000000000000000000000000000000 PUSH0 MSTORE PUSH1 0x11 PUSH1 0x4 MSTORE PUSH1 0x24 PUSH0 REVERT JUMPDEST PUSH0 PUSH2 0x15A6 DUP3 PUSH2 0x10FE JUMP JUMPDEST SWAP2 POP PUSH2 0x15B1 DUP4 PUSH2 0x10FE JUMP JUMPDEST SWAP3 POP DUP3 DUP3 ADD SWAP1 POP DUP1 DUP3 GT ISZERO PUSH2 0x15C9 JUMPI PUSH2 0x15C8 PUSH2 0x156F JUMP JUMPDEST JUMPDEST SWAP3 SWAP2 POP POP JUMP JUMPDEST PUSH0 PUSH1 0x40 DUP3 ADD SWAP1 POP PUSH2 0x15E2 PUSH0 DUP4 ADD DUP6 PUSH2 0x11A2 JUMP JUMPDEST PUSH2 0x15EF PUSH1 0x20 DUP4 ADD DUP5 PUSH2 0x11A2 JUMP JUMPDEST SWAP4 SWAP3 POP POP POP JUMP JUMPDEST PUSH0 PUSH2 0x1600 DUP3 PUSH2 0x10FE JUMP JUMPDEST SWAP2 POP PUSH2 0x160B DUP4 PUSH2 0x10FE JUMP JUMPDEST SWAP3 POP DUP3 DUP3 MUL PUSH2 0x1619 DUP2 PUSH2 0x10FE JUMP JUMPDEST SWAP2 POP DUP3 DUP3 DIV DUP5 EQ DUP4 ISZERO OR PUSH2 0x1630 JUMPI PUSH2 0x162F PUSH2 0x156F JUMP JUMPDEST JUMPDEST POP SWAP3 SWAP2 POP POP JUMP JUMPDEST PUSH32 0x417070726F76652066726F6D207A65726F206164647265737300000000000000 PUSH0 DUP3 ADD MSTORE POP JUMP JUMPDEST PUSH0 PUSH2 0x166B PUSH1 0x19 DUP4 PUSH2 0x101A JUMP JUMPDEST SWAP2 POP PUSH2 0x1676 DUP3 PUSH2 0x1637 JUMP JUMPDEST PUSH1 0x20 DUP3 ADD SWAP1 POP SWAP2 SWAP1 POP JUMP JUMPDEST PUSH0 PUSH1 0x20 DUP3 ADD SWAP1 POP DUP2 DUP2 SUB PUSH0 DUP4 ADD MSTORE PUSH2 0x1698 DUP2 PUSH2 0x165F JUMP JUMPDEST SWAP1 POP SWAP2 SWAP1 POP JUMP JUMPDEST PUSH32 0x417070726F766520746F207A65726F2061646472657373000000000000000000 PUSH0 DUP3 ADD MSTORE POP JUMP JUMPDEST PUSH0 PUSH2 0x16D3 PUSH1 0x17 DUP4 PUSH2 0x101A JUMP JUMPDEST SWAP2 POP PUSH2 0x16DE DUP3 PUSH2 0x169F JUMP JUMPDEST PUSH1 0x20 DUP3 ADD SWAP1 POP SWAP2 SWAP1 POP JUMP JUMPDEST PUSH0 PUSH1 0x20 DUP3 ADD SWAP1 POP DUP2 DUP2 SUB PUSH0 DUP4 ADD MSTORE PUSH2 0x1700 DUP2 PUSH2 0x16C7 JUMP JUMPDEST SWAP1 POP SWAP2 SWAP1 POP JUMP JUMPDEST PUSH32 0x496E73756666696369656E7420616C6C6F77616E636500000000000000000000 PUSH0 DUP3 ADD MSTORE POP JUMP JUMPDEST PUSH0 PUSH2 0x173B PUSH1 0x16 DUP4 PUSH2 0x101A JUMP JUMPDEST SWAP2 POP PUSH2 0x1746 DUP3 PUSH2 0x1707 JUMP JUMPDEST PUSH1 0x20 DUP3 ADD SWAP1 POP SWAP2 SWAP1 POP JUMP JUMPDEST PUSH0 PUSH1 0x20 DUP3 ADD SWAP1 POP DUP2 DUP2 SUB PUSH0 DUP4 ADD MSTORE PUSH2 0x1768 DUP2 PUSH2 0x172F JUMP JUMPDEST SWAP1 POP SWAP2 SWAP1 POP JUMP JUMPDEST PUSH0 PUSH2 0x1779 DUP3 PUSH2 0x10FE JUMP JUMPDEST SWAP2 POP PUSH2 0x1784 DUP4 PUSH2 0x10FE JUMP JUMPDEST SWAP3 POP DUP3 DUP3 SUB SWAP1 POP DUP2 DUP2 GT ISZERO PUSH2 0x179C JUMPI PUSH2 0x179B PUSH2 0x156F JUMP JUMPDEST JUMPDEST SWAP3 SWAP2 POP POP JUMP JUMPDEST PUSH32 0x5472616E736665722066726F6D207A65726F2061646472657373000000000000 PUSH0 DUP3 ADD MSTORE POP JUMP JUMPDEST PUSH0 PUSH2 0x17D6 PUSH1 0x1A DUP4 PUSH2 0x101A JUMP JUMPDEST SWAP2 POP PUSH2 0x17E1 DUP3 PUSH2 0x17A2 JUMP JUMPDEST PUSH1 0x20 DUP3 ADD SWAP1 POP SWAP2 SWAP1 POP JUMP JUMPDEST PUSH0 PUSH1 0x20 DUP3 ADD SWAP1 POP DUP2 DUP2 SUB PUSH0 DUP4 ADD MSTORE PUSH2 0x1803 DUP2 PUSH2 0x17CA JUMP JUMPDEST SWAP1 POP SWAP2 SWAP1 POP JUMP JUMPDEST PUSH32 0x5472616E7366657220746F207A65726F20616464726573730000000000000000 PUSH0 DUP3 ADD MSTORE POP JUMP JUMPDEST PUSH0 PUSH2 0x183E PUSH1 0x18 DUP4 PUSH2 0x101A JUMP JUMPDEST SWAP2 POP PUSH2 0x1849 DUP3 PUSH2 0x180A JUMP JUMPDEST PUSH1 0x20 DUP3 ADD SWAP1 POP SWAP2 SWAP1 POP JUMP JUMPDEST PUSH0 PUSH1 0x20 DUP3 ADD SWAP1 POP DUP2 DUP2 SUB PUSH0 DUP4 ADD MSTORE PUSH2 0x186B DUP2 PUSH2 0x1832 JUMP JUMPDEST SWAP1 POP SWAP2 SWAP1 POP JUMP JUMPDEST PUSH32 0x496E73756666696369656E742062616C616E6365000000000000000000000000 PUSH0 DUP3 ADD MSTORE POP JUMP JUMPDEST PUSH0 PUSH2 0x18A6 PUSH1 0x14 DUP4 PUSH2 0x101A JUMP JUMPDEST SWAP2 POP PUSH2 0x18B1 DUP3 PUSH2 0x1872 JUMP JUMPDEST PUSH1 0x20 DUP3 ADD SWAP1 POP SWAP2 SWAP1 POP JUMP JUMPDEST PUSH0 PUSH1 0x20 DUP3 ADD SWAP1 POP DUP2 DUP2 SUB PUSH0 DUP4 ADD MSTORE PUSH2 0x18D3 DUP2 PUSH2 0x189A JUMP JUMPDEST SWAP1 POP SWAP2 SWAP1 POP JUMP JUMPDEST PUSH32 0x4D696E7420746F207A65726F2061646472657373000000000000000000000000 PUSH0 DUP3 ADD MSTORE POP JUMP JUMPDEST PUSH0 PUSH2 0x190E PUSH1 0x14 DUP4 PUSH2 0x101A JUMP JUMPDEST SWAP2 POP PUSH2 0x1919 DUP3 PUSH2 0x18DA JUMP JUMPDEST PUSH1 0x20 DUP3 ADD SWAP1 POP SWAP2 SWAP1 POP JUMP JUMPDEST PUSH0 PUSH1 0x20 DUP3 ADD SWAP1 POP DUP2 DUP2 SUB PUSH0 DUP4 ADD MSTORE PUSH2 0x193B DUP2 PUSH2 0x1902 JUMP JUMPDEST SWAP1 POP SWAP2 SWAP1 POP JUMP INVALID LOG2 PUSH5 0x6970667358 0x22 SLT KECCAK256 PUSH29 0x7194C59F5696CFCCE71CEE8B9D9F94A8F9A3A5EDD3AB039962835A705B CODESIZE MSIZE PUSH5 0x736F6C6343 STOP ADDMOD 0x1F STOP CALLER "
				},
				"gasEstimates": {
					"creation": {
						"codeDepositCost": "1304000",
						"executionCost": "1354",
						"totalCost": "1305354"
					},
					"external": {
						"TOKENS_PER_CLICK()": "393",
						"allowance(address,address)": "infinite",
						"approve(address,uint256)": "infinite",
						"balanceOf(address)": "2874",
						"decimals()": "398",
						"getClicks(address)": "2852",
						"getLeaderboard()": "infinite",
						"hasPlayed(address)": "2922",
						"name()": "infinite",
						"players(uint256)": "5032",
						"recordClicks(uint256)": "infinite",
						"symbol()": "infinite",
						"totalSupply()": "2514",
						"transfer(address,uint256)": "infinite",
						"transferFrom(address,address,uint256)": "infinite",
						"userClicks(address)": "2891"
					},
					"internal": {
						"_approve(address,address,uint256)": "infinite",
						"_mint(address,uint256)": "infinite",
						"_spendAllowance(address,address,uint256)": "infinite",
						"_transfer(address,address,uint256)": "infinite"
					}
				},
				"methodIdentifiers": {
					"TOKENS_PER_CLICK()": "1101dc3d",
					"allowance(address,address)": "dd62ed3e",
					"approve(address,uint256)": "095ea7b3",
					"balanceOf(address)": "70a08231",
					"decimals()": "313ce567",
					"getClicks(address)": "2373580e",
					"getLeaderboard()": "6d763a6e",
					"hasPlayed(address)": "32d0bbe3",
					"name()": "06fdde03",
					"players(uint256)": "f71d96cb",
					"recordClicks(uint256)": "786c2e68",
					"symbol()": "95d89b41",
					"totalSupply()": "18160ddd",
					"transfer(address,uint256)": "a9059cbb",
					"transferFrom(address,address,uint256)": "23b872dd",
					"userClicks(address)": "7c2bb719"
				}
			},
			"storageLayout": {
				"storage": [
					{
						"astId": 13,
						"contract": "contracts/clicker.sol:ClickerGameWithRewards",
						"label": "totalSupply",
						"offset": 0,
						"slot": "0",
						"type": "t_uint256"
					},
					{
						"astId": 24,
						"contract": "contracts/clicker.sol:ClickerGameWithRewards",
						"label": "userClicks",
						"offset": 0,
						"slot": "1",
						"type": "t_mapping(t_address,t_uint256)"
					},
					{
						"astId": 27,
						"contract": "contracts/clicker.sol:ClickerGameWithRewards",
						"label": "players",
						"offset": 0,
						"slot": "2",
						"type": "t_array(t_address)dyn_storage"
					},
					{
						"astId": 31,
						"contract": "contracts/clicker.sol:ClickerGameWithRewards",
						"label": "hasPlayed",
						"offset": 0,
						"slot": "3",
						"type": "t_mapping(t_address,t_bool)"
					},
					{
						"astId": 35,
						"contract": "contracts/clicker.sol:ClickerGameWithRewards",
						"label": "_balances",
						"offset": 0,
						"slot": "4",
						"type": "t_mapping(t_address,t_uint256)"
					},
					{
						"astId": 41,
						"contract": "contracts/clicker.sol:ClickerGameWithRewards",
						"label": "_allowances",
						"offset": 0,
						"slot": "5",
						"type": "t_mapping(t_address,t_mapping(t_address,t_uint256))"
					}
				],
				"types": {
					"t_address": {
						"encoding": "inplace",
						"label": "address",
						"numberOfBytes": "20"
					},
					"t_array(t_address)dyn_storage": {
						"base": "t_address",
						"encoding": "dynamic_array",
						"label": "address[]",
						"numberOfBytes": "32"
					},
					"t_bool": {
						"encoding": "inplace",
						"label": "bool",
						"numberOfBytes": "1"
					},
					"t_mapping(t_address,t_bool)": {
						"encoding": "mapping",
						"key": "t_address",
						"label": "mapping(address => bool)",
						"numberOfBytes": "32",
						"value": "t_bool"
					},
					"t_mapping(t_address,t_mapping(t_address,t_uint256))": {
						"encoding": "mapping",
						"key": "t_address",
						"label": "mapping(address => mapping(address => uint256))",
						"numberOfBytes": "32",
						"value": "t_mapping(t_address,t_uint256)"
					},
					"t_mapping(t_address,t_uint256)": {
						"encoding": "mapping",
						"key": "t_address",
						"label": "mapping(address => uint256)",
						"numberOfBytes": "32",
						"value": "t_uint256"
					},
					"t_uint256": {
						"encoding": "inplace",
						"label": "uint256",
						"numberOfBytes": "32"
					}
				}
			},
			"userdoc": {
				"kind": "user",
				"methods": {},
				"version": 1
			}
		}
	}
}