{
	"contracts/01_hw.sol": {
		"RestaurantRating": {
			"abi": [
				{
					"inputs": [],
					"stateMutability": "nonpayable",
					"type": "constructor"
				},
				{
					"inputs": [
						{
							"internalType": "string",
							"name": "restaurantName",
							"type": "string"
						}
					],
					"name": "addRestaurant",
					"outputs": [],
					"stateMutability": "nonpayable",
					"type": "function"
				},
				{
					"inputs": [],
					"name": "owner",
					"outputs": [
						{
							"internalType": "address",
							"name": "",
							"type": "address"
						}
					],
					"stateMutability": "view",
					"type": "function"
				},
				{
					"inputs": [
						{
							"internalType": "string",
							"name": "",
							"type": "string"
						}
					],
					"name": "restaurants",
					"outputs": [
						{
							"internalType": "uint256",
							"name": "rating",
							"type": "uint256"
						},
						{
							"internalType": "uint256",
							"name": "ratingCount",
							"type": "uint256"
						}
					],
					"stateMutability": "view",
					"type": "function"
				}
			],
			"devdoc": {
				"kind": "dev",
				"methods": {},
				"version": 1
			},
			"evm": {
				"assembly": "    /* \"contracts/01_hw.sol\":58:431  contract RestaurantRating{... */\n  mstore(0x40, 0x80)\n    /* \"contracts/01_hw.sol\":115:161  constructor(){... */\n  callvalue\n  dup1\n  iszero\n  tag_1\n  jumpi\n  revert(0x00, 0x00)\ntag_1:\n  pop\n    /* \"contracts/01_hw.sol\":144:154  msg.sender */\n  caller\n    /* \"contracts/01_hw.sol\":138:143  owner */\n  0x00\n  0x00\n    /* \"contracts/01_hw.sol\":138:154  owner=msg.sender */\n  0x0100\n  exp\n  dup2\n  sload\n  dup2\n  0xffffffffffffffffffffffffffffffffffffffff\n  mul\n  not\n  and\n  swap1\n  dup4\n  0xffffffffffffffffffffffffffffffffffffffff\n  and\n  mul\n  or\n  swap1\n  sstore\n  pop\n    /* \"contracts/01_hw.sol\":58:431  contract RestaurantRating{... */\n  dataSize(sub_0)\n  dup1\n  dataOffset(sub_0)\n  0x00\n  codecopy\n  0x00\n  return\nstop\n\nsub_0: assembly {\n        /* \"contracts/01_hw.sol\":58:431  contract RestaurantRating{... */\n      mstore(0x40, 0x80)\n      callvalue\n      dup1\n      iszero\n      tag_1\n      jumpi\n      revert(0x00, 0x00)\n    tag_1:\n      pop\n      jumpi(tag_2, lt(calldatasize, 0x04))\n      shr(0xe0, calldataload(0x00))\n      dup1\n      0x4b3ec362\n      eq\n      tag_3\n      jumpi\n      dup1\n      0x6d77bd3e\n      eq\n      tag_4\n      jumpi\n      dup1\n      0x8da5cb5b\n      eq\n      tag_5\n      jumpi\n    tag_2:\n      revert(0x00, 0x00)\n        /* \"contracts/01_hw.sol\":251:299  mapping(string => Restaurant) public restaurants */\n    tag_3:\n      tag_6\n      0x04\n      dup1\n      calldatasize\n      sub\n      dup2\n      add\n      swap1\n      tag_7\n      swap2\n      swap1\n      tag_8\n      jump\t// in\n    tag_7:\n      tag_9\n      jump\t// in\n    tag_6:\n      mload(0x40)\n      tag_10\n      swap3\n      swap2\n      swap1\n      tag_11\n      jump\t// in\n    tag_10:\n      mload(0x40)\n      dup1\n      swap2\n      sub\n      swap1\n      return\n        /* \"contracts/01_hw.sol\":310:429  function addRestaurant(string memory restaurantName)public  {... */\n    tag_4:\n      tag_12\n      0x04\n      dup1\n      calldatasize\n      sub\n      dup2\n      add\n      swap1\n      tag_13\n      swap2\n      swap1\n      tag_8\n      jump\t// in\n    tag_13:\n      tag_14\n      jump\t// in\n    tag_12:\n      stop\n        /* \"contracts/01_hw.sol\":89:109  address public owner */\n    tag_5:\n      tag_15\n      tag_16\n      jump\t// in\n    tag_15:\n      mload(0x40)\n      tag_17\n      swap2\n      swap1\n      tag_18\n      jump\t// in\n    tag_17:\n      mload(0x40)\n      dup1\n      swap2\n      sub\n      swap1\n      return\n        /* \"contracts/01_hw.sol\":251:299  mapping(string => Restaurant) public restaurants */\n    tag_9:\n      0x01\n      dup2\n      dup1\n      mload\n      0x20\n      dup2\n      add\n      dup3\n      add\n      dup1\n      mload\n      dup5\n      dup3\n      mstore\n      0x20\n      dup4\n      add\n      0x20\n      dup6\n      add\n      keccak256\n      dup2\n      dup4\n      mstore\n      dup1\n      swap6\n      pop\n      pop\n      pop\n      pop\n      pop\n      pop\n      0x00\n      swap2\n      pop\n      swap1\n      pop\n      dup1\n      0x00\n      add\n      sload\n      swap1\n      dup1\n      0x01\n      add\n      sload\n      swap1\n      pop\n      dup3\n      jump\t// out\n        /* \"contracts/01_hw.sol\":310:429  function addRestaurant(string memory restaurantName)public  {... */\n    tag_14:\n        /* \"contracts/01_hw.sol\":402:407  owner */\n      0x00\n      0x00\n      swap1\n      sload\n      swap1\n      0x0100\n      exp\n      swap1\n      div\n      0xffffffffffffffffffffffffffffffffffffffff\n      and\n        /* \"contracts/01_hw.sol\":388:407  msg.sender == owner */\n      0xffffffffffffffffffffffffffffffffffffffff\n      and\n        /* \"contracts/01_hw.sol\":388:398  msg.sender */\n      caller\n        /* \"contracts/01_hw.sol\":388:407  msg.sender == owner */\n      0xffffffffffffffffffffffffffffffffffffffff\n      and\n      eq\n        /* \"contracts/01_hw.sol\":380:422  require(msg.sender == owner, \"Only owner\") */\n      tag_20\n      jumpi\n      mload(0x40)\n      0x08c379a000000000000000000000000000000000000000000000000000000000\n      dup2\n      mstore\n      0x04\n      add\n      tag_21\n      swap1\n      tag_22\n      jump\t// in\n    tag_21:\n      mload(0x40)\n      dup1\n      swap2\n      sub\n      swap1\n      revert\n    tag_20:\n        /* \"contracts/01_hw.sol\":310:429  function addRestaurant(string memory restaurantName)public  {... */\n      pop\n      jump\t// out\n        /* \"contracts/01_hw.sol\":89:109  address public owner */\n    tag_16:\n      0x00\n      0x00\n      swap1\n      sload\n      swap1\n      0x0100\n      exp\n      swap1\n      div\n      0xffffffffffffffffffffffffffffffffffffffff\n      and\n      dup2\n      jump\t// out\n        /* \"#utility.yul\":7:82   */\n    tag_23:\n        /* \"#utility.yul\":40:46   */\n      0x00\n        /* \"#utility.yul\":73:75   */\n      0x40\n        /* \"#utility.yul\":67:76   */\n      mload\n        /* \"#utility.yul\":57:76   */\n      swap1\n      pop\n        /* \"#utility.yul\":7:82   */\n      swap1\n      jump\t// out\n        /* \"#utility.yul\":88:205   */\n    tag_24:\n        /* \"#utility.yul\":197:198   */\n      0x00\n        /* \"#utility.yul\":194:195   */\n      0x00\n        /* \"#utility.yul\":187:199   */\n      revert\n        /* \"#utility.yul\":211:328   */\n    tag_25:\n        /* \"#utility.yul\":320:321   */\n      0x00\n        /* \"#utility.yul\":317:318   */\n      0x00\n        /* \"#utility.yul\":310:322   */\n      revert\n        /* \"#utility.yul\":334:451   */\n    tag_26:\n        /* \"#utility.yul\":443:444   */\n      0x00\n        /* \"#utility.yul\":440:441   */\n      0x00\n        /* \"#utility.yul\":433:445   */\n      revert\n        /* \"#utility.yul\":457:574   */\n    tag_27:\n        /* \"#utility.yul\":566:567   */\n      0x00\n        /* \"#utility.yul\":563:564   */\n      0x00\n        /* \"#utility.yul\":556:568   */\n      revert\n        /* \"#utility.yul\":580:682   */\n    tag_28:\n        /* \"#utility.yul\":621:627   */\n      0x00\n        /* \"#utility.yul\":672:674   */\n      0x1f\n        /* \"#utility.yul\":668:675   */\n      not\n        /* \"#utility.yul\":663:665   */\n      0x1f\n        /* \"#utility.yul\":656:661   */\n      dup4\n        /* \"#utility.yul\":652:666   */\n      add\n        /* \"#utility.yul\":648:676   */\n      and\n        /* \"#utility.yul\":638:676   */\n      swap1\n      pop\n        /* \"#utility.yul\":580:682   */\n      swap2\n      swap1\n      pop\n      jump\t// out\n        /* \"#utility.yul\":688:868   */\n    tag_29:\n        /* \"#utility.yul\":736:813   */\n      0x4e487b7100000000000000000000000000000000000000000000000000000000\n        /* \"#utility.yul\":733:734   */\n      0x00\n        /* \"#utility.yul\":726:814   */\n      mstore\n        /* \"#utility.yul\":833:837   */\n      0x41\n        /* \"#utility.yul\":830:831   */\n      0x04\n        /* \"#utility.yul\":823:838   */\n      mstore\n        /* \"#utility.yul\":857:861   */\n      0x24\n        /* \"#utility.yul\":854:855   */\n      0x00\n        /* \"#utility.yul\":847:862   */\n      revert\n        /* \"#utility.yul\":874:1155   */\n    tag_30:\n        /* \"#utility.yul\":957:984   */\n      tag_53\n        /* \"#utility.yul\":979:983   */\n      dup3\n        /* \"#utility.yul\":957:984   */\n      tag_28\n      jump\t// in\n    tag_53:\n        /* \"#utility.yul\":949:955   */\n      dup2\n        /* \"#utility.yul\":945:985   */\n      add\n        /* \"#utility.yul\":1087:1093   */\n      dup2\n        /* \"#utility.yul\":1075:1085   */\n      dup2\n        /* \"#utility.yul\":1072:1094   */\n      lt\n        /* \"#utility.yul\":1051:1069   */\n      0xffffffffffffffff\n        /* \"#utility.yul\":1039:1049   */\n      dup3\n        /* \"#utility.yul\":1036:1070   */\n      gt\n        /* \"#utility.yul\":1033:1095   */\n      or\n        /* \"#utility.yul\":1030:1118   */\n      iszero\n      tag_54\n      jumpi\n        /* \"#utility.yul\":1098:1116   */\n      tag_55\n      tag_29\n      jump\t// in\n    tag_55:\n        /* \"#utility.yul\":1030:1118   */\n    tag_54:\n        /* \"#utility.yul\":1138:1148   */\n      dup1\n        /* \"#utility.yul\":1134:1136   */\n      0x40\n        /* \"#utility.yul\":1127:1149   */\n      mstore\n        /* \"#utility.yul\":917:1155   */\n      pop\n        /* \"#utility.yul\":874:1155   */\n      pop\n      pop\n      jump\t// out\n        /* \"#utility.yul\":1161:1290   */\n    tag_31:\n        /* \"#utility.yul\":1195:1201   */\n      0x00\n        /* \"#utility.yul\":1222:1242   */\n      tag_57\n      tag_23\n      jump\t// in\n    tag_57:\n        /* \"#utility.yul\":1212:1242   */\n      swap1\n      pop\n        /* \"#utility.yul\":1251:1284   */\n      tag_58\n        /* \"#utility.yul\":1279:1283   */\n      dup3\n        /* \"#utility.yul\":1271:1277   */\n      dup3\n        /* \"#utility.yul\":1251:1284   */\n      tag_30\n      jump\t// in\n    tag_58:\n        /* \"#utility.yul\":1161:1290   */\n      swap2\n      swap1\n      pop\n      jump\t// out\n        /* \"#utility.yul\":1296:1604   */\n    tag_32:\n        /* \"#utility.yul\":1358:1362   */\n      0x00\n        /* \"#utility.yul\":1448:1466   */\n      0xffffffffffffffff\n        /* \"#utility.yul\":1440:1446   */\n      dup3\n        /* \"#utility.yul\":1437:1467   */\n      gt\n        /* \"#utility.yul\":1434:1490   */\n      iszero\n      tag_60\n      jumpi\n        /* \"#utility.yul\":1470:1488   */\n      tag_61\n      tag_29\n      jump\t// in\n    tag_61:\n        /* \"#utility.yul\":1434:1490   */\n    tag_60:\n        /* \"#utility.yul\":1508:1537   */\n      tag_62\n        /* \"#utility.yul\":1530:1536   */\n      dup3\n        /* \"#utility.yul\":1508:1537   */\n      tag_28\n      jump\t// in\n    tag_62:\n        /* \"#utility.yul\":1500:1537   */\n      swap1\n      pop\n        /* \"#utility.yul\":1592:1596   */\n      0x20\n        /* \"#utility.yul\":1586:1590   */\n      dup2\n        /* \"#utility.yul\":1582:1597   */\n      add\n        /* \"#utility.yul\":1574:1597   */\n      swap1\n      pop\n        /* \"#utility.yul\":1296:1604   */\n      swap2\n      swap1\n      pop\n      jump\t// out\n        /* \"#utility.yul\":1610:1758   */\n    tag_33:\n        /* \"#utility.yul\":1708:1714   */\n      dup3\n        /* \"#utility.yul\":1703:1706   */\n      dup2\n        /* \"#utility.yul\":1698:1701   */\n      dup4\n        /* \"#utility.yul\":1685:1715   */\n      calldatacopy\n        /* \"#utility.yul\":1749:1750   */\n      0x00\n        /* \"#utility.yul\":1740:1746   */\n      dup4\n        /* \"#utility.yul\":1735:1738   */\n      dup4\n        /* \"#utility.yul\":1731:1747   */\n      add\n        /* \"#utility.yul\":1724:1751   */\n      mstore\n        /* \"#utility.yul\":1610:1758   */\n      pop\n      pop\n      pop\n      jump\t// out\n        /* \"#utility.yul\":1764:2189   */\n    tag_34:\n        /* \"#utility.yul\":1842:1847   */\n      0x00\n        /* \"#utility.yul\":1867:1933   */\n      tag_65\n        /* \"#utility.yul\":1883:1932   */\n      tag_66\n        /* \"#utility.yul\":1925:1931   */\n      dup5\n        /* \"#utility.yul\":1883:1932   */\n      tag_32\n      jump\t// in\n    tag_66:\n        /* \"#utility.yul\":1867:1933   */\n      tag_31\n      jump\t// in\n    tag_65:\n        /* \"#utility.yul\":1858:1933   */\n      swap1\n      pop\n        /* \"#utility.yul\":1956:1962   */\n      dup3\n        /* \"#utility.yul\":1949:1954   */\n      dup2\n        /* \"#utility.yul\":1942:1963   */\n      mstore\n        /* \"#utility.yul\":1994:1998   */\n      0x20\n        /* \"#utility.yul\":1987:1992   */\n      dup2\n        /* \"#utility.yul\":1983:1999   */\n      add\n        /* \"#utility.yul\":2032:2035   */\n      dup5\n        /* \"#utility.yul\":2023:2029   */\n      dup5\n        /* \"#utility.yul\":2018:2021   */\n      dup5\n        /* \"#utility.yul\":2014:2030   */\n      add\n        /* \"#utility.yul\":2011:2036   */\n      gt\n        /* \"#utility.yul\":2008:2120   */\n      iszero\n      tag_67\n      jumpi\n        /* \"#utility.yul\":2039:2118   */\n      tag_68\n      tag_27\n      jump\t// in\n    tag_68:\n        /* \"#utility.yul\":2008:2120   */\n    tag_67:\n        /* \"#utility.yul\":2129:2183   */\n      tag_69\n        /* \"#utility.yul\":2176:2182   */\n      dup5\n        /* \"#utility.yul\":2171:2174   */\n      dup3\n        /* \"#utility.yul\":2166:2169   */\n      dup6\n        /* \"#utility.yul\":2129:2183   */\n      tag_33\n      jump\t// in\n    tag_69:\n        /* \"#utility.yul\":1848:2189   */\n      pop\n        /* \"#utility.yul\":1764:2189   */\n      swap4\n      swap3\n      pop\n      pop\n      pop\n      jump\t// out\n        /* \"#utility.yul\":2209:2549   */\n    tag_35:\n        /* \"#utility.yul\":2265:2270   */\n      0x00\n        /* \"#utility.yul\":2314:2317   */\n      dup3\n        /* \"#utility.yul\":2307:2311   */\n      0x1f\n        /* \"#utility.yul\":2299:2305   */\n      dup4\n        /* \"#utility.yul\":2295:2312   */\n      add\n        /* \"#utility.yul\":2291:2318   */\n      slt\n        /* \"#utility.yul\":2281:2403   */\n      tag_71\n      jumpi\n        /* \"#utility.yul\":2322:2401   */\n      tag_72\n      tag_26\n      jump\t// in\n    tag_72:\n        /* \"#utility.yul\":2281:2403   */\n    tag_71:\n        /* \"#utility.yul\":2439:2445   */\n      dup2\n        /* \"#utility.yul\":2426:2446   */\n      calldataload\n        /* \"#utility.yul\":2464:2543   */\n      tag_73\n        /* \"#utility.yul\":2539:2542   */\n      dup5\n        /* \"#utility.yul\":2531:2537   */\n      dup3\n        /* \"#utility.yul\":2524:2528   */\n      0x20\n        /* \"#utility.yul\":2516:2522   */\n      dup7\n        /* \"#utility.yul\":2512:2529   */\n      add\n        /* \"#utility.yul\":2464:2543   */\n      tag_34\n      jump\t// in\n    tag_73:\n        /* \"#utility.yul\":2455:2543   */\n      swap2\n      pop\n        /* \"#utility.yul\":2271:2549   */\n      pop\n        /* \"#utility.yul\":2209:2549   */\n      swap3\n      swap2\n      pop\n      pop\n      jump\t// out\n        /* \"#utility.yul\":2555:3064   */\n    tag_8:\n        /* \"#utility.yul\":2624:2630   */\n      0x00\n        /* \"#utility.yul\":2673:2675   */\n      0x20\n        /* \"#utility.yul\":2661:2670   */\n      dup3\n        /* \"#utility.yul\":2652:2659   */\n      dup5\n        /* \"#utility.yul\":2648:2671   */\n      sub\n        /* \"#utility.yul\":2644:2676   */\n      slt\n        /* \"#utility.yul\":2641:2760   */\n      iszero\n      tag_75\n      jumpi\n        /* \"#utility.yul\":2679:2758   */\n      tag_76\n      tag_24\n      jump\t// in\n    tag_76:\n        /* \"#utility.yul\":2641:2760   */\n    tag_75:\n        /* \"#utility.yul\":2827:2828   */\n      0x00\n        /* \"#utility.yul\":2816:2825   */\n      dup3\n        /* \"#utility.yul\":2812:2829   */\n      add\n        /* \"#utility.yul\":2799:2830   */\n      calldataload\n        /* \"#utility.yul\":2857:2875   */\n      0xffffffffffffffff\n        /* \"#utility.yul\":2849:2855   */\n      dup2\n        /* \"#utility.yul\":2846:2876   */\n      gt\n        /* \"#utility.yul\":2843:2960   */\n      iszero\n      tag_77\n      jumpi\n        /* \"#utility.yul\":2879:2958   */\n      tag_78\n      tag_25\n      jump\t// in\n    tag_78:\n        /* \"#utility.yul\":2843:2960   */\n    tag_77:\n        /* \"#utility.yul\":2984:3047   */\n      tag_79\n        /* \"#utility.yul\":3039:3046   */\n      dup5\n        /* \"#utility.yul\":3030:3036   */\n      dup3\n        /* \"#utility.yul\":3019:3028   */\n      dup6\n        /* \"#utility.yul\":3015:3037   */\n      add\n        /* \"#utility.yul\":2984:3047   */\n      tag_35\n      jump\t// in\n    tag_79:\n        /* \"#utility.yul\":2974:3047   */\n      swap2\n      pop\n        /* \"#utility.yul\":2770:3057   */\n      pop\n        /* \"#utility.yul\":2555:3064   */\n      swap3\n      swap2\n      pop\n      pop\n      jump\t// out\n        /* \"#utility.yul\":3070:3147   */\n    tag_36:\n        /* \"#utility.yul\":3107:3114   */\n      0x00\n        /* \"#utility.yul\":3136:3141   */\n      dup2\n        /* \"#utility.yul\":3125:3141   */\n      swap1\n      pop\n        /* \"#utility.yul\":3070:3147   */\n      swap2\n      swap1\n      pop\n      jump\t// out\n        /* \"#utility.yul\":3153:3271   */\n    tag_37:\n        /* \"#utility.yul\":3240:3264   */\n      tag_82\n        /* \"#utility.yul\":3258:3263   */\n      dup2\n        /* \"#utility.yul\":3240:3264   */\n      tag_36\n      jump\t// in\n    tag_82:\n        /* \"#utility.yul\":3235:3238   */\n      dup3\n        /* \"#utility.yul\":3228:3265   */\n      mstore\n        /* \"#utility.yul\":3153:3271   */\n      pop\n      pop\n      jump\t// out\n        /* \"#utility.yul\":3277:3609   */\n    tag_11:\n        /* \"#utility.yul\":3398:3402   */\n      0x00\n        /* \"#utility.yul\":3436:3438   */\n      0x40\n        /* \"#utility.yul\":3425:3434   */\n      dup3\n        /* \"#utility.yul\":3421:3439   */\n      add\n        /* \"#utility.yul\":3413:3439   */\n      swap1\n      pop\n        /* \"#utility.yul\":3449:3520   */\n      tag_84\n        /* \"#utility.yul\":3517:3518   */\n      0x00\n        /* \"#utility.yul\":3506:3515   */\n      dup4\n        /* \"#utility.yul\":3502:3519   */\n      add\n        /* \"#utility.yul\":3493:3499   */\n      dup6\n        /* \"#utility.yul\":3449:3520   */\n      tag_37\n      jump\t// in\n    tag_84:\n        /* \"#utility.yul\":3530:3602   */\n      tag_85\n        /* \"#utility.yul\":3598:3600   */\n      0x20\n        /* \"#utility.yul\":3587:3596   */\n      dup4\n        /* \"#utility.yul\":3583:3601   */\n      add\n        /* \"#utility.yul\":3574:3580   */\n      dup5\n        /* \"#utility.yul\":3530:3602   */\n      tag_37\n      jump\t// in\n    tag_85:\n        /* \"#utility.yul\":3277:3609   */\n      swap4\n      swap3\n      pop\n      pop\n      pop\n      jump\t// out\n        /* \"#utility.yul\":3615:3741   */\n    tag_38:\n        /* \"#utility.yul\":3652:3659   */\n      0x00\n        /* \"#utility.yul\":3692:3734   */\n      0xffffffffffffffffffffffffffffffffffffffff\n        /* \"#utility.yul\":3685:3690   */\n      dup3\n        /* \"#utility.yul\":3681:3735   */\n      and\n        /* \"#utility.yul\":3670:3735   */\n      swap1\n      pop\n        /* \"#utility.yul\":3615:3741   */\n      swap2\n      swap1\n      pop\n      jump\t// out\n        /* \"#utility.yul\":3747:3843   */\n    tag_39:\n        /* \"#utility.yul\":3784:3791   */\n      0x00\n        /* \"#utility.yul\":3813:3837   */\n      tag_88\n        /* \"#utility.yul\":3831:3836   */\n      dup3\n        /* \"#utility.yul\":3813:3837   */\n      tag_38\n      jump\t// in\n    tag_88:\n        /* \"#utility.yul\":3802:3837   */\n      swap1\n      pop\n        /* \"#utility.yul\":3747:3843   */\n      swap2\n      swap1\n      pop\n      jump\t// out\n        /* \"#utility.yul\":3849:3967   */\n    tag_40:\n        /* \"#utility.yul\":3936:3960   */\n      tag_90\n        /* \"#utility.yul\":3954:3959   */\n      dup2\n        /* \"#utility.yul\":3936:3960   */\n      tag_39\n      jump\t// in\n    tag_90:\n        /* \"#utility.yul\":3931:3934   */\n      dup3\n        /* \"#utility.yul\":3924:3961   */\n      mstore\n        /* \"#utility.yul\":3849:3967   */\n      pop\n      pop\n      jump\t// out\n        /* \"#utility.yul\":3973:4195   */\n    tag_18:\n        /* \"#utility.yul\":4066:4070   */\n      0x00\n        /* \"#utility.yul\":4104:4106   */\n      0x20\n        /* \"#utility.yul\":4093:4102   */\n      dup3\n        /* \"#utility.yul\":4089:4107   */\n      add\n        /* \"#utility.yul\":4081:4107   */\n      swap1\n      pop\n        /* \"#utility.yul\":4117:4188   */\n      tag_92\n        /* \"#utility.yul\":4185:4186   */\n      0x00\n        /* \"#utility.yul\":4174:4183   */\n      dup4\n        /* \"#utility.yul\":4170:4187   */\n      add\n        /* \"#utility.yul\":4161:4167   */\n      dup5\n        /* \"#utility.yul\":4117:4188   */\n      tag_40\n      jump\t// in\n    tag_92:\n        /* \"#utility.yul\":3973:4195   */\n      swap3\n      swap2\n      pop\n      pop\n      jump\t// out\n        /* \"#utility.yul\":4201:4370   */\n    tag_41:\n        /* \"#utility.yul\":4285:4296   */\n      0x00\n        /* \"#utility.yul\":4319:4325   */\n      dup3\n        /* \"#utility.yul\":4314:4317   */\n      dup3\n        /* \"#utility.yul\":4307:4326   */\n      mstore\n        /* \"#utility.yul\":4359:4363   */\n      0x20\n        /* \"#utility.yul\":4354:4357   */\n      dup3\n        /* \"#utility.yul\":4350:4364   */\n      add\n        /* \"#utility.yul\":4335:4364   */\n      swap1\n      pop\n        /* \"#utility.yul\":4201:4370   */\n      swap3\n      swap2\n      pop\n      pop\n      jump\t// out\n        /* \"#utility.yul\":4376:4536   */\n    tag_42:\n        /* \"#utility.yul\":4516:4528   */\n      0x4f6e6c79206f776e657200000000000000000000000000000000000000000000\n        /* \"#utility.yul\":4512:4513   */\n      0x00\n        /* \"#utility.yul\":4504:4510   */\n      dup3\n        /* \"#utility.yul\":4500:4514   */\n      add\n        /* \"#utility.yul\":4493:4529   */\n      mstore\n        /* \"#utility.yul\":4376:4536   */\n      pop\n      jump\t// out\n        /* \"#utility.yul\":4542:4908   */\n    tag_43:\n        /* \"#utility.yul\":4684:4687   */\n      0x00\n        /* \"#utility.yul\":4705:4772   */\n      tag_96\n        /* \"#utility.yul\":4769:4771   */\n      0x0a\n        /* \"#utility.yul\":4764:4767   */\n      dup4\n        /* \"#utility.yul\":4705:4772   */\n      tag_41\n      jump\t// in\n    tag_96:\n        /* \"#utility.yul\":4698:4772   */\n      swap2\n      pop\n        /* \"#utility.yul\":4781:4874   */\n      tag_97\n        /* \"#utility.yul\":4870:4873   */\n      dup3\n        /* \"#utility.yul\":4781:4874   */\n      tag_42\n      jump\t// in\n    tag_97:\n        /* \"#utility.yul\":4899:4901   */\n      0x20\n        /* \"#utility.yul\":4894:4897   */\n      dup3\n        /* \"#utility.yul\":4890:4902   */\n      add\n        /* \"#utility.yul\":4883:4902   */\n      swap1\n      pop\n        /* \"#utility.yul\":4542:4908   */\n      swap2\n      swap1\n      pop\n      jump\t// out\n        /* \"#utility.yul\":4914:5333   */\n    tag_22:\n        /* \"#utility.yul\":5080:5084   */\n      0x00\n        /* \"#utility.yul\":5118:5120   */\n      0x20\n        /* \"#utility.yul\":5107:5116   */\n      dup3\n        /* \"#utility.yul\":5103:5121   */\n      add\n        /* \"#utility.yul\":5095:5121   */\n      swap1\n      pop\n        /* \"#utility.yul\":5167:5176   */\n      dup2\n        /* \"#utility.yul\":5161:5165   */\n      dup2\n        /* \"#utility.yul\":5157:5177   */\n      sub\n        /* \"#utility.yul\":5153:5154   */\n      0x00\n        /* \"#utility.yul\":5142:5151   */\n      dup4\n        /* \"#utility.yul\":5138:5155   */\n      add\n        /* \"#utility.yul\":5131:5178   */\n      mstore\n        /* \"#utility.yul\":5195:5326   */\n      tag_99\n        /* \"#utility.yul\":5321:5325   */\n      dup2\n        /* \"#utility.yul\":5195:5326   */\n      tag_43\n      jump\t// in\n    tag_99:\n        /* \"#utility.yul\":5187:5326   */\n      swap1\n      pop\n        /* \"#utility.yul\":4914:5333   */\n      swap2\n      swap1\n      pop\n      jump\t// out\n\n    auxdata: 0xa2646970667358221220b8549ae80ecdc9d966d3fbd3e4939264b062780961791bc2400875eba17d2b5c64736f6c634300081f0033\n}\n",
				"bytecode": {
					"linkReferences": {},
					"object": "6080604052348015600e575f5ffd5b50335f5f6101000a81548173ffffffffffffffffffffffffffffffffffffffff021916908373ffffffffffffffffffffffffffffffffffffffff1602179055506104748061005b5f395ff3fe608060405234801561000f575f5ffd5b506004361061003f575f3560e01c80634b3ec362146100435780636d77bd3e146100745780638da5cb5b14610090575b5f5ffd5b61005d600480360381019061005891906102e8565b6100ae565b60405161006b929190610347565b60405180910390f35b61008e600480360381019061008991906102e8565b6100e6565b005b610098610177565b6040516100a591906103ad565b60405180910390f35b6001818051602081018201805184825260208301602085012081835280955050505050505f91509050805f0154908060010154905082565b5f5f9054906101000a900473ffffffffffffffffffffffffffffffffffffffff1673ffffffffffffffffffffffffffffffffffffffff163373ffffffffffffffffffffffffffffffffffffffff1614610174576040517f08c379a000000000000000000000000000000000000000000000000000000000815260040161016b90610420565b60405180910390fd5b50565b5f5f9054906101000a900473ffffffffffffffffffffffffffffffffffffffff1681565b5f604051905090565b5f5ffd5b5f5ffd5b5f5ffd5b5f5ffd5b5f601f19601f8301169050919050565b7f4e487b71000000000000000000000000000000000000000000000000000000005f52604160045260245ffd5b6101fa826101b4565b810181811067ffffffffffffffff82111715610219576102186101c4565b5b80604052505050565b5f61022b61019b565b905061023782826101f1565b919050565b5f67ffffffffffffffff821115610256576102556101c4565b5b61025f826101b4565b9050602081019050919050565b828183375f83830152505050565b5f61028c6102878461023c565b610222565b9050828152602081018484840111156102a8576102a76101b0565b5b6102b384828561026c565b509392505050565b5f82601f8301126102cf576102ce6101ac565b5b81356102df84826020860161027a565b91505092915050565b5f602082840312156102fd576102fc6101a4565b5b5f82013567ffffffffffffffff81111561031a576103196101a8565b5b610326848285016102bb565b91505092915050565b5f819050919050565b6103418161032f565b82525050565b5f60408201905061035a5f830185610338565b6103676020830184610338565b9392505050565b5f73ffffffffffffffffffffffffffffffffffffffff82169050919050565b5f6103978261036e565b9050919050565b6103a78161038d565b82525050565b5f6020820190506103c05f83018461039e565b92915050565b5f82825260208201905092915050565b7f4f6e6c79206f776e6572000000000000000000000000000000000000000000005f82015250565b5f61040a600a836103c6565b9150610415826103d6565b602082019050919050565b5f6020820190508181035f830152610437816103fe565b905091905056fea2646970667358221220b8549ae80ecdc9d966d3fbd3e4939264b062780961791bc2400875eba17d2b5c64736f6c634300081f0033",
					"opcodes": "PUSH1 0x80 PUSH1 0x40 MSTORE CALLVALUE DUP1 ISZERO PUSH1 0xE JUMPI PUSH0 PUSH0 REVERT JUMPDEST POP CALLER PUSH0 PUSH0 PUSH2 0x100 EXP DUP2 SLOAD DUP2 PUSH20 0xFFFFFFFFFFFFFFFFFFFFFFFFFFFFFFFFFFFFFFFF MUL NOT AND SWAP1 DUP4 PUSH20 0xFFFFFFFFFFFFFFFFFFFFFFFFFFFFFFFFFFFFFFFF AND MUL OR SWAP1 SSTORE POP PUSH2 0x474 DUP1 PUSH2 0x5B PUSH0 CODECOPY PUSH0 RETURN INVALID PUSH1 0x80 PUSH1 0x40 MSTORE CALLVALUE DUP1 ISZERO PUSH2 0xF JUMPI PUSH0 PUSH0 REVERT JUMPDEST POP PUSH1 0x4 CALLDATASIZE LT PUSH2 0x3F JUMPI PUSH0 CALLDATALOAD PUSH1 0xE0 SHR DUP1 PUSH4 0x4B3EC362 EQ PUSH2 0x43 JUMPI DUP1 PUSH4 0x6D77BD3E EQ PUSH2 0x74 JUMPI DUP1 PUSH4 0x8DA5CB5B EQ PUSH2 0x90 JUMPI JUMPDEST PUSH0 PUSH0 REVERT JUMPDEST PUSH2 0x5D PUSH1 0x4 DUP1 CALLDATASIZE SUB DUP2 ADD SWAP1 PUSH2 0x58 SWAP2 SWAP1 PUSH2 0x2E8 JUMP JUMPDEST PUSH2 0xAE JUMP JUMPDEST PUSH1 0x40 MLOAD PUSH2 0x6B SWAP3 SWAP2 SWAP1 PUSH2 0x347 JUMP JUMPDEST PUSH1 0x40 MLOAD DUP1 SWAP2 SUB SWAP1 RETURN JUMPDEST PUSH2 0x8E PUSH1 0x4 DUP1 CALLDATASIZE SUB DUP2 ADD SWAP1 PUSH2 0x89 SWAP2 SWAP1 PUSH2 0x2E8 JUMP JUMPDEST PUSH2 0xE6 JUMP JUMPDEST STOP JUMPDEST PUSH2 0x98 PUSH2 0x177 JUMP JUMPDEST PUSH1 0x40 MLOAD PUSH2 0xA5 SWAP2 SWAP1 PUSH2 0x3AD JUMP JUMPDEST PUSH1 0x40 MLOAD DUP1 SWAP2 SUB SWAP1 RETURN JUMPDEST PUSH1 0x1 DUP2 DUP1 MLOAD PUSH1 0x20 DUP2 ADD DUP3 ADD DUP1 MLOAD DUP5 DUP3 MSTORE PUSH1 0x20 DUP4 ADD PUSH1 0x20 DUP6 ADD KECCAK256 DUP2 DUP4 MSTORE DUP1 SWAP6 POP POP POP POP POP POP PUSH0 SWAP2 POP SWAP1 POP DUP1 PUSH0 ADD SLOAD SWAP1 DUP1 PUSH1 0x1 ADD SLOAD SWAP1 POP DUP3 JUMP JUMPDEST PUSH0 PUSH0 SWAP1 SLOAD SWAP1 PUSH2 0x100 EXP SWAP1 DIV PUSH20 0xFFFFFFFFFFFFFFFFFFFFFFFFFFFFFFFFFFFFFFFF AND PUSH20 0xFFFFFFFFFFFFFFFFFFFFFFFFFFFFFFFFFFFFFFFF AND CALLER PUSH20 0xFFFFFFFFFFFFFFFFFFFFFFFFFFFFFFFFFFFFFFFF AND EQ PUSH2 0x174 JUMPI PUSH1 0x40 MLOAD PUSH32 0x8C379A000000000000000000000000000000000000000000000000000000000 DUP2 MSTORE PUSH1 0x4 ADD PUSH2 0x16B SWAP1 PUSH2 0x420 JUMP JUMPDEST PUSH1 0x40 MLOAD DUP1 SWAP2 SUB SWAP1 REVERT JUMPDEST POP JUMP JUMPDEST PUSH0 PUSH0 SWAP1 SLOAD SWAP1 PUSH2 0x100 EXP SWAP1 DIV PUSH20 0xFFFFFFFFFFFFFFFFFFFFFFFFFFFFFFFFFFFFFFFF AND DUP2 JUMP JUMPDEST PUSH0 PUSH1 0x40 MLOAD SWAP1 POP SWAP1 JUMP JUMPDEST PUSH0 PUSH0 REVERT JUMPDEST PUSH0 PUSH0 REVERT JUMPDEST PUSH0 PUSH0 REVERT JUMPDEST PUSH0 PUSH0 REVERT JUMPDEST PUSH0 PUSH1 0x1F NOT PUSH1 0x1F DUP4 ADD AND SWAP1 POP SWAP2 SWAP1 POP JUMP JUMPDEST PUSH32 0x4E487B7100000000000000000000000000000000000000000000000000000000 PUSH0 MSTORE PUSH1 0x41 PUSH1 0x4 MSTORE PUSH1 0x24 PUSH0 REVERT JUMPDEST PUSH2 0x1FA DUP3 PUSH2 0x1B4 JUMP JUMPDEST DUP2 ADD DUP2 DUP2 LT PUSH8 0xFFFFFFFFFFFFFFFF DUP3 GT OR ISZERO PUSH2 0x219 JUMPI PUSH2 0x218 PUSH2 0x1C4 JUMP JUMPDEST JUMPDEST DUP1 PUSH1 0x40 MSTORE POP POP POP JUMP JUMPDEST PUSH0 PUSH2 0x22B PUSH2 0x19B JUMP JUMPDEST SWAP1 POP PUSH2 0x237 DUP3 DUP3 PUSH2 0x1F1 JUMP JUMPDEST SWAP2 SWAP1 POP JUMP JUMPDEST PUSH0 PUSH8 0xFFFFFFFFFFFFFFFF DUP3 GT ISZERO PUSH2 0x256 JUMPI PUSH2 0x255 PUSH2 0x1C4 JUMP JUMPDEST JUMPDEST PUSH2 0x25F DUP3 PUSH2 0x1B4 JUMP JUMPDEST SWAP1 POP PUSH1 0x20 DUP2 ADD SWAP1 POP SWAP2 SWAP1 POP JUMP JUMPDEST DUP3 DUP2 DUP4 CALLDATACOPY PUSH0 DUP4 DUP4 ADD MSTORE POP POP POP JUMP JUMPDEST PUSH0 PUSH2 0x28C PUSH2 0x287 DUP5 PUSH2 0x23C JUMP JUMPDEST PUSH2 0x222 JUMP JUMPDEST SWAP1 POP DUP3 DUP2 MSTORE PUSH1 0x20 DUP2 ADD DUP5 DUP5 DUP5 ADD GT ISZERO PUSH2 0x2A8 JUMPI PUSH2 0x2A7 PUSH2 0x1B0 JUMP JUMPDEST JUMPDEST PUSH2 0x2B3 DUP5 DUP3 DUP6 PUSH2 0x26C JUMP JUMPDEST POP SWAP4 SWAP3 POP POP POP JUMP JUMPDEST PUSH0 DUP3 PUSH1 0x1F DUP4 ADD SLT PUSH2 0x2CF JUMPI PUSH2 0x2CE PUSH2 0x1AC JUMP JUMPDEST JUMPDEST DUP2 CALLDATALOAD PUSH2 0x2DF DUP5 DUP3 PUSH1 0x20 DUP7 ADD PUSH2 0x27A JUMP JUMPDEST SWAP2 POP POP SWAP3 SWAP2 POP POP JUMP JUMPDEST PUSH0 PUSH1 0x20 DUP3 DUP5 SUB SLT ISZERO PUSH2 0x2FD JUMPI PUSH2 0x2FC PUSH2 0x1A4 JUMP JUMPDEST JUMPDEST PUSH0 DUP3 ADD CALLDATALOAD PUSH8 0xFFFFFFFFFFFFFFFF DUP2 GT ISZERO PUSH2 0x31A JUMPI PUSH2 0x319 PUSH2 0x1A8 JUMP JUMPDEST JUMPDEST PUSH2 0x326 DUP5 DUP3 DUP6 ADD PUSH2 0x2BB JUMP JUMPDEST SWAP2 POP POP SWAP3 SWAP2 POP POP JUMP JUMPDEST PUSH0 DUP2 SWAP1 POP SWAP2 SWAP1 POP JUMP JUMPDEST PUSH2 0x341 DUP2 PUSH2 0x32F JUMP JUMPDEST DUP3 MSTORE POP POP JUMP JUMPDEST PUSH0 PUSH1 0x40 DUP3 ADD SWAP1 POP PUSH2 0x35A PUSH0 DUP4 ADD DUP6 PUSH2 0x338 JUMP JUMPDEST PUSH2 0x367 PUSH1 0x20 DUP4 ADD DUP5 PUSH2 0x338 JUMP JUMPDEST SWAP4 SWAP3 POP POP POP JUMP JUMPDEST PUSH0 PUSH20 0xFFFFFFFFFFFFFFFFFFFFFFFFFFFFFFFFFFFFFFFF DUP3 AND SWAP1 POP SWAP2 SWAP1 POP JUMP JUMPDEST PUSH0 PUSH2 0x397 DUP3 PUSH2 0x36E JUMP JUMPDEST SWAP1 POP SWAP2 SWAP1 POP JUMP JUMPDEST PUSH2 0x3A7 DUP2 PUSH2 0x38D JUMP JUMPDEST DUP3 MSTORE POP POP JUMP JUMPDEST PUSH0 PUSH1 0x20 DUP3 ADD SWAP1 POP PUSH2 0x3C0 PUSH0 DUP4 ADD DUP5 PUSH2 0x39E JUMP JUMPDEST SWAP3 SWAP2 POP POP JUMP JUMPDEST PUSH0 DUP3 DUP3 MSTORE PUSH1 0x20 DUP3 ADD SWAP1 POP SWAP3 SWAP2 POP POP JUMP JUMPDEST PUSH32 0x4F6E6C79206F776E657200000000000000000000000000000000000000000000 PUSH0 DUP3 ADD MSTORE POP JUMP JUMPDEST PUSH0 PUSH2 0x40A PUSH1 0xA DUP4 PUSH2 0x3C6 JUMP JUMPDEST SWAP2 POP PUSH2 0x415 DUP3 PUSH2 0x3D6 JUMP JUMPDEST PUSH1 0x20 DUP3 ADD SWAP1 POP SWAP2 SWAP1 POP JUMP JUMPDEST PUSH0 PUSH1 0x20 DUP3 ADD SWAP1 POP DUP2 DUP2 SUB PUSH0 DUP4 ADD MSTORE PUSH2 0x437 DUP2 PUSH2 0x3FE JUMP JUMPDEST SWAP1 POP SWAP2 SWAP1 POP JUMP INVALID LOG2 PUSH5 0x6970667358 0x22 SLT KECCAK256 0xB8 SLOAD SWAP11 0xE8 0xE 0xCD 0xC9 0xD9 PUSH7 0xD3FBD3E4939264 0xB0 PUSH3 0x780961 PUSH26 0x1BC2400875EBA17D2B5C64736F6C634300081F00330000000000 "
				},
				"gasEstimates": {
					"creation": {
						"codeDepositCost": "228000",
						"executionCost": "24531",
						"totalCost": "252531"
					},
					"external": {
						"addRestaurant(string)": "infinite",
						"owner()": "2529",
						"restaurants(string)": "infinite"
					}
				},
				"methodIdentifiers": {
					"addRestaurant(string)": "6d77bd3e",
					"owner()": "8da5cb5b",
					"restaurants(string)": "4b3ec362"
				}
			},
			"storageLayout": {
				"storage": [
					{
						"astId": 3,
						"contract": "contracts/01_hw.sol:RestaurantRating",
						"label": "owner",
						"offset": 0,
						"slot": "0",
						"type": "t_address"
					},
					{
						"astId": 22,
						"contract": "contracts/01_hw.sol:RestaurantRating",
						"label": "restaurants",
						"offset": 0,
						"slot": "1",
						"type": "t_mapping(t_string_memory_ptr,t_struct(Restaurant)17_storage)"
					}
				],
				"types": {
					"t_address": {
						"encoding": "inplace",
						"label": "address",
						"numberOfBytes": "20"
					},
					"t_mapping(t_string_memory_ptr,t_struct(Restaurant)17_storage)": {
						"encoding": "mapping",
						"key": "t_string_memory_ptr",
						"label": "mapping(string => struct RestaurantRating.Restaurant)",
						"numberOfBytes": "32",
						"value": "t_struct(Restaurant)17_storage"
					},
					"t_string_memory_ptr": {
						"encoding": "bytes",
						"label": "string",
						"numberOfBytes": "32"
					},
					"t_struct(Restaurant)17_storage": {
						"encoding": "inplace",
						"label": "struct RestaurantRating.Restaurant",
						"members": [
							{
								"astId": 14,
								"contract": "contracts/01_hw.sol:RestaurantRating",
								"label": "rating",
								"offset": 0,
								"slot": "0",
								"type": "t_uint256"
							},
							{
								"astId": 16,
								"contract": "contracts/01_hw.sol:RestaurantRating",
								"label": "ratingCount",
								"offset": 0,
								"slot": "1",
								"type": "t_uint256"
							}
						],
						"numberOfBytes": "64"
					},
					"t_uint256": {
						"encoding": "inplace",
						"label": "uint256",
						"numberOfBytes": "32"
					}
				}
			},
			"userdoc": {
				"kind": "user",
				"methods": {},
				"version": 1
			}
		}
	}
}